:100000009EC100000C94EF160C941A170C9445171F
:100010000C9470170C949B170C94C6170C94F11742
:100020000C941C18BDC10000BBC10000B9C1000088
:10003000B7C100000C94A21EB3C10000B1C1000002
:10004000AFC10000ADC10000ABC10000A9C10000FC
:10005000A7C10000A5C10000A3C100000C9447186F
:100060009FC100000C94391B0C946F1B99C10000B8
:1000700097C1000095C1000093C1000091C100002C
:100080008FC100008DC100008BC1000089C100003C
:100090000C94C51B0C94FB1B83C100009BC3000088
:1000A0007FC100007DC100007BC1000079C100005C
:1000B00077C1000075C1000073C1000071C100006C
:1000C0006FC100006DC100000C942B1F0C94511CDB
:1000D0000C94871C65C100000C94DD1C0C94131D4E
:1000E0005FC1000078197B196A196E197419B21969
:1000F0007F19831989198D19911997199B199F19BE
:10010000B219A519A919AD193D27FB286529682938
:100110003F287228FC261D27E026422931293E2946
:10012000682968296829CB2600000A0B02090C0DF2
:100130000E0807030401000000000000000000009A
:1001400000000000000000000000000000000000AF
:10015000000000001211100000000000000000006C
:10016000000000000000000000000000000001028C
:1001700010202008081020401020408002010201B9
:100180000804020101020408102040808040201071
:1001900008040201800402018040201008040201CA
:1001A0000804020101020408102040800102040832
:1001B000102040800505050507050808080802020B
:1001C00002020A0A080804040404010101010101F1
:1001D00001010303030303030303040707070C0CD4
:1001E0000C0C0C0C0C0C020202020606060606069B
:1001F00006060B0B0B0B0B0B0B0B00002200250054
:1002000028002B002E0031003400020100000501FF
:1002100008010B0100002100240027002A002D0006
:100220003000330001010000040107010A0102004F
:100230001D3A2774694E53E8F5D2CF9C81A6BBCDF9
:10024000D0F7EAB9A4839E25381F02514C6B7687FC
:100250009ABDA0F3EEC9D46F7255481B06213C4AE3
:1002600057706D3E230419A2BF9885D6CBECF113CD
:100270000E2934677A5D40FBE6C1DC8F92B5A8DEBB
:10028000C3E4F9AAB7908D362B0C11425F786594C0
:1002900089AEB3E0FDDAC77C61465B0815322F59A1
:1002A00044637E2D30170AB1AC8B96C5D8FFE22689
:1002B0003B1C01524F6875CED3F4E9BAA7809DEB81
:1002C000F6D1CC9F82A5B8031E3924776A4D50A180
:1002D000BC9B86D5C8EFF24954736E3D20071A6C5B
:1002E00071564B1805223F8499BEA3F0EDCAD7354D
:1002F000280F12415C7B66DDC0E7FAA9B4938EF843
:10030000E5C2DF8C91B6AB100D2A3764795E43B23B
:10031000AF8895C6DBFCE15A47607D2E3314097F18
:100320006245580B16312C978AADB0E3FED9C40054
:10033000F3025007981B241CB01C3C1DA81D11245F
:100340001FBECFEFD1E2DEBFCDBF00E00CBF13E098
:10035000A0E0B2E0E0E8FDE500E00BBF02C00790DE
:100360000D92AE3BB107D9F728E0AEEBB3E001C088
:100370001D92A93BB207E1F711E0CFE9D1E000E01F
:1003800006C021970109802FFE010E94422DC83925
:10039000D10780E00807A9F70E94F02A0C94BE2E2E
:1003A0002FCE8091EE0390E02091EF03821B910904
:1003B00008959091EF038091EE03981750F4E92F80
:1003C000F0E0E051FC4F208130E09F5F9093EF031D
:1003D00002C02FEF3FEFC9010895E091EF03809134
:1003E000EE03E81730F4F0E0E051FC4F808190E03C
:1003F00008958FEF9FEF08950895CF92DF92EF92C7
:10040000FF920F931F93CF93DF937C01262F972F9B
:100410008A018091CA03882391F0C62FD72F6E01DD
:10042000C40ED51ECC15DD0569F06991D701ED919B
:10043000FC910190F081E02DC7011995F3CF642F55
:10044000822F90D1C801DF91CF911F910F91FF9022
:10045000EF90DF90CF900895CF93DF931F92CDB7A9
:10046000DEB769832091CA032223D1F02091CB0308
:10047000203240F021E030E0FC013383228380E031
:1004800090E014C08091CC03E82FF0E0E353FC4FE0
:10049000998190838F5F8093CC038093CB0304C0BA
:1004A00061E0CE0101965ED181E090E00F90DF9196
:1004B000CF910895FC011382128288EE93E0A0E0B0
:1004C000B0E084839583A683B7838DE992E091831E
:1004D000808308951092EF031092EE031092CC03E4
:1004E0001092CB0383C081E08093CA036093ED0335
:1004F0001092CC031092CB0308950F93062F21E0A6
:100500004091CB036DEC73E08091ED03D5D0109258
:10051000CC031092CB031092CA030F9108954F920F
:100520005F926F927F92AF92BF92CF92EF92FF92C3
:100530000F931F93CF93DF935C01F62ED42F2801E6
:100540003901EE2011F1CFDFCE2DC43008F0C3E029
:10055000C150C0F0D501ED91FC91B8E0CB9FC00136
:100560001124A301920104C056954795379527950C
:100570008A95D2F7CA01B9010190F081E02DC50139
:100580001995E6CF60E0C501B8DF4D2FD13208F0F4
:1005900040E22C2D60EF73E08F2D46D01092EF03D8
:1005A0008093EE03DF91CF911F910F91FF90EF9019
:1005B000CF90BF90AF907F906F905F904F900895D5
:1005C000CF92EF920F931F93C22EE12C00E010E028
:1005D0009801A5DF1F910F91EF90CF90089521E032
:1005E000EFCF61E08ACF8EEB93E064CF10927D0471
:1005F00081E080937B0410927A0461E084E10E94A0
:10060000EF1961E085E10E94EF19E9EBF0E08081EC
:100610008E7F808380818D7F808388E48093B80083
:1006200085E48093BC000895413208F043C0909166
:100630007D049111FCCF91E090937D0420937B0485
:100640002FEF2093100410925504240F209354048C
:1006500090937C0490917C04880F892B80937C0478
:1006600080917A04813061F410927A0480917C0444
:100670008093BB008091BC0083FDF8CF85EC01C066
:1006800085EE8093BC0080917D048130E1F3809100
:100690005504841710F44091550426E534E0FB011D
:1006A000D9018A2F821B841718F48D918193F9CF79
:1006B000842F089580E008950F93413208F04AC0D6
:1006C00090917D049111FCCF32E030937D04009332
:1006D0007B043FEF30931004109255044093540470
:1006E000FB0166E574E0DB013A2F361B341718F482
:1006F00031913D93F9CF10927C0430917C04880FA6
:10070000832B80937C0480917A04813061F4109271
:100710007A0480917C048093BB008091BC0083FDAF
:10072000F8CF85EC01C085EE8093BC00222321F038
:1007300080917D048230D1F3809110048F3F79F055
:1007400080911004803241F080911004803331F0A8
:1007500094E005C091E003C092E001C093E0892FCE
:100760000F91089540913204262F30E0240F311D5F
:1007700021323105DCF420917D042430C9F4FC01E0
:1007800080E090E0861758F4309132042191DC012A
:10079000AC5CBB4FA30FB11D2C930196F3CF80919E
:1007A0003204680F6093320480E0089581E0089578
:1007B00082E0089585ED8093BC008091BC0084FDAB
:1007C000FCCF10927D04089585EC8093BC001092BC
:1007D0007D0408951F920F920FB60F9211240BB64D
:1007E0000F922F933F934F935F936F937F938F93CA
:1007F0009F93AF93BF93EF93FF938091B900887F4E
:10080000803609F49DC070F5883209F45CC090F41C
:10081000803109F455C038F4882309F4F3C08830D6
:1008200009F44EC0F2C0883109F44DC0803209F499
:100830005EC0EBC0803409F469C050F4803309F421
:1008400056C0883309F0E1C080931004BDDFDDC0DD
:10085000803509F44FC0883509F45DC0883409F04B
:10086000D4C0D2C0883909F4C3C0A8F4883709F4C9
:1008700067C038F4883609F463C0803709F460C073
:10088000C4C0883809F4B4C0803909F45FC0803826
:1008900009F0BBC05BC0803B09F482C038F4803AE9
:1008A00009F466C0883A09F47BC0AFC0803C09F403
:1008B000A3C0883C09F4A0C0883B09F486C0A5C049
:1008C00080917C0410C09091550480915404981735
:1008D00070F5E091550481E08E0F80935504F0E0AF
:1008E000EA5AFB4F80818093BB0085EC82C08093E5
:1008F00010048AC0E091550481E08E0F8093550466
:100900008091BB00F0E0EA5AFB4F80839091550440
:10091000809154046AC0E091550481E08E0F809369
:1009200055048091BB00F0E0EA5AFB4F8083809130
:100930007B04811169C081E080937A0484EA5DC000
:1009400083E080937D0410921104CFCF8091110435
:10095000803208F04DC0E091110481E08E0F809349
:1009600011048091BB00F0E0EE5EFB4F8083BDCFB1
:100970002BDF80911104803230F4E0911104F0E01B
:10098000EE5EFB4F10826091110470E0E0917604FE
:10099000F091770482E194E019951092110435C02A
:1009A00084E080937D041092330410923204E0912D
:1009B0007804F0917904199580913204811105C071
:1009C00081E08093320410923404E091330481E09A
:1009D0008E0F80933304F0E0EC5CFB4F80818093BA
:1009E000BB009091330480913204981708F47DCFB6
:1009F00085E88093BC0009C085EC8093BC00109210
:100A00007D0403C010921004D5DEFF91EF91BF91D9
:100A1000AF919F918F917F916F915F914F913F9196
:100A20002F910F900BBE0F900FBE0F901F90189537
:100A3000EF92FF920F931F93CF93DF931F921F921A
:100A4000CDB7DEB7062F142F682F8EEB93E02983E6
:100A50003A8349DD602F8EEB93E0FEDC2981022F83
:100A6000E22E3A81F32E8E2D801B811738F4F70188
:100A700061917F018EEB93E0EFDCF5CF8EEB93E09D
:100A8000B0DD91E0811190E0892F0F900F90DF9100
:100A9000CF911F910F91FF90EF900895CF93DF9327
:100AA0001F92CDB7DEB749839E012F5F3F4F41E0D4
:100AB000BFDF0F90DF91CF9108952F923F924F9219
:100AC0005F926F927F928F929F92AF92BF92CF92DE
:100AD000DF92EF92FF920F931F93CF93DF9300D09B
:100AE0001F921F92CDB7DEB7F82EE62E242E690195
:100AF0000E9491184B015C01312C1D82822D90E0E7
:100B00009C838B832801612C712C321408F04DC01A
:100B10006F2D8EEB93E0E7DC6E2D8EEB93E09CDC8B
:100B20008EEB93E05EDD6F2D8EEB93E0DCDC4B8192
:100B30005C81431951094132510514F040E250E003
:100B40006F2D8EEB93E04BDD8EEB93E02ADC892B4F
:100B500011F10115110591F4F6012D81E20FF11D3E
:100B600027FDFA95FA83E9838EEB93E022DCE98195
:100B7000FA8180832D812F5F2D83E6CF0E9491180B
:100B8000DC01CB0188199909AA09BB0984159505CF
:100B9000A605B70508F38EEB93E023DD822D40E236
:100BA000421508F480E2380EB0CF01151105D1F0DE
:100BB0000E949118DC01CB0188199909AA09BB0987
:100BC00020E030E080179107A207B30758F0822D8C
:100BD00090E0ED812E2FEE0F330B2817390714F418
:100BE0002FEF2D838D810F900F900F900F900F900E
:100BF000DF91CF911F910F91FF90EF90DF90CF90F9
:100C0000BF90AF909F908F907F906F905F904F902C
:100C10003F902F9008950F931F9389019A0141E00F
:100C20004CDF1F910F910895EF92FF920F931F9346
:100C3000CF93DF931F92CDB7DEB7182F062FF42E78
:100C4000E22E20910A0230910B02AE014F5F5F4FFE
:100C5000E2DF9981EE2041F041E050E001C0440F15
:100C6000FA94EAF7492B09C021E030E0A90101C05C
:100C7000440FFA94EAF7409549234983602F812F66
:100C80000DDF0F90DF91CF911F910F91FF90EF90AB
:100C90000895DF92EF92FF920F931F93CF93DF930C
:100CA0001F92CDB7DEB7182FF62EE42ED22E20914C
:100CB0000A0230910B02AE014F5F5F4FACDF882319
:100CC00019F1EE2DF0E0ED19F109319621E030E057
:100CD00002C0220F331FDA94E2F7215031090E2EA1
:100CE00001C0220F0A94EAF7802F01C0880FEA950D
:100CF000EAF7422F4095998149232823422B4983C3
:100D00006F2D812FCBDE01C080E00F90DF91CF915E
:100D10001F910F91FF90EF90DF90089528E6FC015E
:100D2000208308950F93062F23E042E06AE1FC013F
:100D30008081AFDF0F9108950F93062F22E044E0EA
:100D40006BE1FC018081A5DF0F9108950F93062FC1
:100D500022E044E06CE1FC0180819BDF0F9108956B
:100D60000F931F93CF93DF93EC0100910A02109130
:100D70000B029C012F5F3F4F42E063E488819DDEC0
:100D8000298130E0322F22278A81A901482BCA010C
:100D9000DF91CF911F910F9108950F931F93CF93E0
:100DA000DF93EC0100910A0210910B029C012F5F6E
:100DB0003F4F42E065E4888180DE298130E0322FB8
:100DC00022278A81A901482BCA01DF91CF911F9167
:100DD0000F9108950F931F93CF93DF93EC01009130
:100DE0000A0210910B029C012F5F3F4F42E067E423
:100DF000888163DE298130E0322F22278A81A90190
:100E0000482BCA01DF91CF911F910F910895262F92
:100E100046E06BE6FC01808107CF0F93062F23E0AD
:100E200042E06BE6FC01808134DF0F910895CF939F
:100E3000DF93EC0161E0F1DF60E0CE017DDF60E097
:100E4000CE0184DF60E0CE01DF91CF91E0CFCF9380
:100E5000DF931F92CDB7DEB7682F8EEB93E06983E7
:100E600039DB69818EE794E05DDF8EE794E00F90D7
:100E7000DF91CF91DCCFCF93DF93EC018EE794E04D
:100E80006FDF998388838EE794E087DF9B838A8373
:100E90008EE794E09FDF9D838C83DF91CF9108954F
:100EA0008EE794E03BCF8F929F92AF92BF92CF920A
:100EB000DF92EF92FF920F931F93CF93DF9300D0B7
:100EC00000D0CDB7DEB78091FF07082E000C990B3C
:100ED0000197029710F483E001C080E08093FF0740
:100EE000CE010196C8DF69817A81072E000C880B3C
:100EF000990B0E94F62B609301087093020880936F
:100F0000030890930408E091AB08F091AC0820919D
:100F1000800230918102409182025091830260816F
:100F20007181828193810E94A62C909100081816ED
:100F3000BCF4911103C081E0809300088091FF0709
:100F4000082E000C990B009731F08330910529F49D
:100F500081E090E002C082E090E08093FF0703C050
:100F600091111092000882E090E00E949B16E0919F
:100F7000AB08F091AC08408151816281738180E0BF
:100F800090E00E9497166091A0087091A10880914E
:100F9000A2089091A3080E94F42B2AE037ED43E2C7
:100FA0005CE30E94AA2CAB01BC0181E090E00E94AE
:100FB00097168090A4089090A508A090A608B090DD
:100FC000A70820E030E040E85FEBC501B4010E94D3
:100FD000F02B0091AB081091AC08882319F1F801AF
:100FE000C080D180E280F380A7019601C501B401E1
:100FF0000E948B2B4B015C0120E030E040E054E389
:10100000C701B6010E94AA2C9B01AC01C501B40125
:101010000E94A62C181634F089EA92E090930608F4
:10102000809305088091AA08882331F089EA92E02C
:1010300090930608809305088091980890919908EC
:10104000A0919A08B0919B08BC01CD016F5F7F4FC2
:101050008F4F9F4F609398087093990880939A08D8
:1010600090939B080E94F42B20919C0830919D083E
:1010700040919E0850919F080E94AA2CF80160831D
:101080007183828393838091A0089091A108A0919D
:10109000A208B091A3080196A11DB11D8093A008DC
:1010A0009093A108A093A208B093A30826960FB628
:1010B000F894DEBF0FBECDBFDF91CF911F910F918E
:1010C000FF90EF90DF90CF90BF90AF909F908F9068
:1010D00008950F931F93CF93DF93E5E0F8E080EB43
:1010E000DF011D928A95E9F788EA98E09783868365
:1010F000CBEAD8E0D0934608C09345080CE918E045
:10110000158B048BF0937008E0936F08F583E483EC
:1011100021E030E0DC012D933C938DEB92E093874E
:1011200082872DEA38E03983288340E050E060E888
:101130007FEB4093A4085093A5086093A608709392
:10114000A7084AE057ED63E27CE3D8014D935D9335
:101150006D937C931397C6E8D8E081E391ECA0E50A
:10116000B8EB88839983AA83BB8384E998E3A4EBD3
:10117000B1EC80938A0890938B08A0938C08B0936D
:101180008D088BEA9AEDA8E4BFE180938E089093D6
:101190008F08A0939008B093910888EB98EEAEE387
:1011A000BBE38093920890939308A0939408B09324
:1011B0009508A7EAB4E0B383A283E1EAF4E01196CC
:1011C000FC93EE938AE593E09183808393838283FB
:1011D0008FEF97E09583848386E998E015969C933A
:1011E0008E9314971396DC93CE93129717963C9395
:1011F0002E9316971092010810920208109203087D
:1012000010920408C7EFD7E02AE0FE0111922A9558
:10121000E9F7EDE8F4E024E1DF011D922A95E9F712
:10122000DC01ED93FC938FE090E09183808382E674
:1012300092E09383828384E492E09583848388E1BF
:1012400092E0978386838CE092E09187808781E0AB
:1012500090E0A0E0B0E089839A83AB83BC8380E018
:1012600090E0F5DD81E08D83DF91CF911F910F91AB
:1012700008958091F707811103C081E08093F707FB
:101280000895EF92FF920F931F93CF93DF93DC01AA
:10129000EA01F90114968D919C91159712960D9182
:1012A0001C911397080F191F2881398118964D91A9
:1012B0005C9119974217530728F04D915C91119753
:1012C000452B39F17801E21AF30A18964D915C9199
:1012D0001997481B590B4E0D5F1D4617570794F180
:1012E000A901460F571F40175107E0F0F182E08235
:1012F000338322836E197F0975836483161617065C
:101300001CF4382F292F02C030E020E036832783D9
:1013100013C018968D919C911997821B930B861779
:10132000970784F07183608333832283158214824C
:101330001782168288819981680F791F7983688363
:1013400080E001C081E0DF91CF911F910F91FF906C
:10135000EF900895CF92DF92EF92FF92CF93DF93B9
:101360006B017C0184E48C9DE0018D9DD00D1124E6
:10137000CD54DB4F8AA99BA9009721F00E940D2E26
:101380001BAA1AAA84E48C9DF0018D9DF00D1124F6
:10139000ED54FB4F86A997A9009711F00E940D2EDE
:1013A00084E48C9DF0018D9DF00D1124ED54FB4FD4
:1013B000138A128A168A178A108E118E128E138E35
:1013C000148E158E168E178E10A211A281E090E059
:1013D00093A382A315A214A216A217A210A611A667
:1013E00013A612A615A614A616A617A610AA11AA29
:1013F00013AA12AA15AA14AA17AA16AA11AE10AEF9
:1014000012AE13AE14AE15AEDF01DE961D921D9224
:101410001D921C921397EE5BFF4F11821082DF9199
:10142000CF91FF90EF90DF90CF9008950F931F938F
:10143000CF93DF93EB01DC018D919C91FC01A681A0
:10144000B781E881F98123E0EE0FFF1F2A95E1F7CC
:1014500012962D913C911397E20FF31F0081118199
:10146000AC85BD859D01220F331FDC0112968D9145
:101470009C911397D901A80FB91F8D919C9124813C
:101480003581232B19F461E070E002C062E070E066
:10149000689F9001699F300D789F300D11248885D9
:1014A0009985289FB001299F700D389F700D1124D8
:1014B000EC81FD812E9FC0012F9F900D3E9F900DCE
:1014C0001124800F911FFA019183808373836283BB
:1014D000DF91CF911F910F9108952F923F924F92DC
:1014E0005F926F927F928F929F92AF92BF92CF92B4
:1014F000DF92EF92FF920F931F93CF93DF9300D071
:1015000000D0CDB7DEB7DC011496ED91FC911597B4
:101510000190F081E02D808591859A838983A28155
:10152000B381BC83AB83FB0181909190A190B1907A
:101530008F01C12CD12C7601C814D904EA04FB0414
:101540000CF05FC0D80114964D905D906D907C902A
:10155000179718964D915D916D917C911B97F801AD
:101560007096FE83ED83F801A081B18183E0AA0F1C
:10157000BB1F8A95E1F7E981FA8182819381A80FE7
:10158000B91F2D903C901197F80124853585220FC5
:10159000331F8B819C81280F391FF9010081118134
:1015A00014968D919C911597892B19F481E090E008
:1015B00002C082E090E0809F9001819F300D909F5B
:1015C000300D1124249F8001259F100D349F100D94
:1015D0001124249DC001259D900D349D900D112452
:1015E000A8016D817E81820D931D0E94A52E8D81A3
:1015F0009E81080F191F9FEFC91AD90AE90AF90A33
:101600009BCF26960FB6F894DEBF0FBECDBFDF91FD
:10161000CF911F910F91FF90EF90DF90CF90BF90EF
:10162000AF909F908F907F906F905F904F903F9082
:101630002F900895CF93DF93DB01AC57BD4F2C91D2
:10164000222369F024E4269FF001279FF00D112446
:10165000ED54FB4FEF0119922A95E9F71C9224E40F
:10166000269FF001279FF00D1124ED54FB4F1482AB
:101670001582168217821186108613861286118AA9
:10168000108A17861686DF91CF9164CE2F923F92F3
:101690004F925F926F927F928F929F92AF92BF9282
:1016A000CF92DF92EF92FF920F931F93CF93DF932E
:1016B000CDB7DEB728970FB6F894DEBF0FBECDBF0B
:1016C0006B017C011A0184E48C9D90018D9D300D8D
:1016D00011242D543B4FF90184819581A681B78156
:1016E000892B8A2B8B2B09F4B8C0A12CB12C412C4F
:1016F000512C320138872F83C90104969A8389833C
:10170000D9011896BC83AB83E981FA8180819181EC
:10171000A281B381481659066A067B0694F5AB810F
:10172000BC81ED91FC91EA0DFB1D22813381890181
:10173000812C912C82149304C4F4D801ED91FC9176
:10174000309769F0848195812D833E830E940D2E10
:10175000F801808191810E940D2E3E812D81FFEF45
:101760008F1A9F0A0E5F1F4FE5CFC9010E940D2EF1
:101770008FEF481A580A680A780A94E0A90EB11C3B
:10178000C3CFAF81B88518968D919C9119970E940F
:101790000D2EEF81F88582859385892B59F1A12C37
:1017A000B12C812C912C84E48C9D80018D9D100D99
:1017B000112403541B4F8214930484F4D801ED9137
:1017C000FC91EA0DFB1D848195810E940D2EBFEFD7
:1017D0008B1A9B0AEEE0AE0EB11CEDCF84E48C9D1B
:1017E000F0018D9DF00D1124ED54FB4F8285938502
:1017F0000E940D2E84E48C9D90018D9D300D11244E
:1018000089010D541B4FD80150968D919C91519791
:101810000E940D2EF801868597850E940D2EC70126
:10182000B60198DDC701B60128960FB6F894DEBF61
:101830000FBECDBFDF91CF911F910F91FF90EF9021
:10184000DF90CF90BF90AF909F908F907F906F90E0
:101850005F904F903F902F90EDCE28960FB6F89462
:10186000DEBF0FBECDBFDF91CF911F910F91FF90D3
:10187000EF90DF90CF90BF90AF909F908F907F9030
:101880006F905F904F903F902F90089524E4269F93
:10189000F001279FF00D1124ED54FB4F82899389AD
:1018A0000497029758F485E090E0938B828B8FEF3A
:1018B0009FEFDC01828F938FA48FB58F08952F92B5
:1018C0003F924F925F926F927F928F929F92AF92D0
:1018D000BF92CF92DF92EF92FF920F931F93CF931D
:1018E000DF93CDB7DEB7E0970FB6F894DEBF0FBE3B
:1018F000CDBF9AA389A31B016A012801390184E4A1
:10190000849D8001859D100D112498012D543B4F1D
:101910007901D9014D925D926D927C921397AB0142
:10192000C301B201B3DEF801E954FB4FD6014D917A
:101930005D916D917D918D01CA01408351836283D8
:10194000738364E070E00E945E2DF70191878087C9
:10195000892B09F49FC11E8E1D8E198E1A8E1B8E27
:101960001C8EF8A2EF8E97012C5F3F4F38A72FA354
:101970002C5F3F4F3AA729A7EFA1F8A5808191815D
:10198000A281B381298D3A8D4B8D5C8D2817390743
:101990004A075B070CF0E7C0A9A5BAA58D919C91F9
:1019A0002D8D3E8D280F391F3A8B298BD801ED9153
:1019B000FC91EE0FFF1FA9A1BAA18D919C91E80F98
:1019C000F91F80819181F90191838083D801149658
:1019D0002D913D914D915C9117972BA33CA34DA365
:1019E0005EA3085F1F4F62E070E0C1010E945E2DA0
:1019F000E989FA8993838283892B09F44BC11D8A73
:101A00001E8A1F8A188E2D893E894F89588D8BA179
:101A10009CA1ADA1BEA1281739074A075B070CF0AE
:101A20008FC0D801ED90FC90EE0CFF1CE989FA897B
:101A3000C280D380CE0CDF1C68E070E081E090E0D3
:101A40000E945E2DD6018D939C93E989FA8982814B
:101A50009381FC01EE0DFF1DC080D180C114D10423
:101A600009F418C1F80184819581A681B781F60136
:101A700080839183A283B383085F1F4F18161906D2
:101A80001A061B0634F01C8A1B8A812C912C5401E7
:101A90000CC064E070E00E945E2DD60115969C9308
:101AA0008E931497892B79F7F5C0F6018081918187
:101AB000A281B38188169906AA06BB06A4F5F60191
:101AC000E480F5802B893C89E20EF31EF801DE01EB
:101AD000119680E101900D928A95E1F7005F1F4F0A
:101AE000A701BE016F5F7F4FA9A1BAA114968D9186
:101AF0009C9115979BDCF60126813781D7011296C0
:101B00008D919C911397820F931F97838683BFEFCC
:101B10008B1A9B0AAB0ABB0A2B893C892C5F3F4F6F
:101B20003C8B2B8BC2CF2D893E894F89588D2F5FDF
:101B30003F4F4F4F5F4F2D8B3E8B4F8B588F63CF57
:101B4000298D3A8D4B8D5C8D2F5F3F4F4F4F5F4FEF
:101B5000298F3A8F4B8F5C8F2D8D3E8D2C5F3F4FA1
:101B60003E8F2D8F09CF6EE070E0C1010E945E2D87
:101B7000AF8DB8A11B969C938E931A97812C912CB4
:101B8000A12CB12CC12CD12C24E4249DC001259D75
:101B9000900D11249C0123543B4F3A8B298B21E05B
:101BA00030E0A214B3040CF04DC0D8014D915D910A
:101BB0006D917D918D01E989FA89E080F180E80CD1
:101BC000F91C77FD67C0D70111963C932E93411500
:101BD000510561057105A9F0CA012FA738AB4BA7C4
:101BE0005CA76DA77EA70E94782DF701958384835B
:101BF0002FA538A94BA55CA56DA57EA5892B31F431
:101C000049C0D70115961C921E921497F701538371
:101C10004283848195819783868391878087138609
:101C2000128681E090E0452B462B472B11F480E093
:101C300090E0C80ED91EFFEFAF1ABF0A4EE0840E27
:101C4000911CAFCF84E4849D8001859D100D1124EB
:101C50000D541B4FD8011D961C921E921C97C60155
:101C600033E0880F991F3A95E1F70E94782DF8012B
:101C7000918B808B892B71F0C601880F991F0E9470
:101C8000782DD8011F969C938E931E97892B11F067
:101C900080E005C0A101C301B201F8DC81E0E0965B
:101CA0000FB6F894DEBF0FBECDBFDF91CF911F916D
:101CB0000F91FF90EF90DF90CF90BF90AF909F90EB
:101CC0008F907F906F905F904F903F902F900895EE
:101CD0002F923F924F925F926F927F928F929F923C
:101CE000AF92BF92CF92DF92EF92FF920F931F932A
:101CF000CF93DF93CDB7DEB768970FB6F894DEBF0A
:101D00000FBECDBF9C8B8B8BDB0149015A0124E4B4
:101D1000289DC001299D900D11249C012D543B4FFD
:101D200079012D913C911197F701358B248BFC01A2
:101D3000E753FB4F14964D915D916D917C911797F0
:101D40004083518362837383FC01E353FB4F1896F6
:101D50004D915D916D917C911B974083518362837E
:101D60007383FC01EF52FB4F1C964D915D916D9179
:101D70007C911F974083518362837383FC01EF51F1
:101D8000FB4F50965C91509751964C9151975296BB
:101D90003C91529753962C915397508341833283B1
:101DA00023838D010C5E1F4F852F942F1816190663
:101DB0000CF068C0880F991F880F991F0E94782D1A
:101DC000D701D3969C938E93D297892B09F4BCC0EC
:101DD000212C312C412C512C32019701225D3F4F97
:101DE0003E8B2D8B2C5F3F4F388F2F8B2E5F3F4FBD
:101DF0003A8B298BB301A2012FEF421A520A620AD1
:101E0000720AED89FE8980819181A281B381481790
:101E100059076A077B074CF5AF89B88DCD90DC90E8
:101E2000C20CD31CF801DE01119680E101900D92E5
:101E30008A95E1F7005F1F4FA601BE016F5F7F4FDC
:101E4000EB89FC8984819581F1DAA989BA898D9120
:101E50009C911197F60122813381820F931F8D93FC
:101E60009C93F4E02F0E311CC5CFD701D4968D91F1
:101E70009C91D5970E94782DF70197AB86AB892B63
:101E800009F462C0F80180819181A281B38124E4C8
:101E9000289DF001299DF00D1124ED54FB4FAC015C
:101EA000BD014D7F21E030E0452B462B472B11F043
:101EB00020E030E033A322A324E4289DF001299DF3
:101EC000F00D1124ED54FB4F0197A109B10921E058
:101ED00030E00297A105B10510F020E030E035A315
:101EE00024A384E4889DF001899DF00D1124CF0185
:101EF00087529B4FD80114964D915D916D917C91C5
:101F00001797DC014D935D936D937C931397ED547C
:101F1000FB4F868D978DA0A1B1A1B7FF10C0B095E2
:101F2000A095909581959F4FAF4FBF4F82AF93AFD4
:101F3000A4AFB5AF168E178E10A211A20AC012AEB2
:101F400013AE14AE15AE05C0C501B40103DA81E0CD
:101F500001C080E068960FB6F894DEBF0FBECDBF1B
:101F6000DF91CF911F910F91FF90EF90DF90CF9075
:101F7000BF90AF909F908F907F906F905F904F90A9
:101F80003F902F900895CF92DF92EF92FF92CF93E0
:101F9000DF9310923B0524E4269FF001279FF00D6C
:101FA0001124ED54FB4F15A614A620E030E0C12CFF
:101FB000D12CDF011A96C1E0D0E0C416D506D4F4C6
:101FC000ED91FC911197E20FF31FE280F3801E1454
:101FD0001F0454F4E480F580F782E682F186E086FF
:101FE00013861286D183C083EFEFCE1ADE0A225FFA
:101FF0003F4FE3CF24E4269FF001279FF00D1124EB
:10200000ED54FB4F13A612A611AE10AEDF01DE9603
:102010001D921D921D921C92139782E090E0938B6B
:10202000828BDF91CF91FF90EF90DF90CF9008955A
:1020300024E4269FF001279FF00D1124ED54FB4F5F
:10204000138A128A23CB24E4269FF001279FF00DE8
:102050001124ED54FB4F8289938981309105C8F09A
:102060008530910518F0059769F008958FEF9FEF7F
:10207000DC01828F938FA48FB58F85E090E0938BE6
:10208000828B08958FEF9FEFDC01828F938FA48F57
:10209000B58F089524E4249FF001259FF00D1124AD
:1020A000ED54FB4F2EE0AC01249FC001259F900D05
:1020B00011240284F385E02DE80FF91F81E080935D
:1020C0003B05828593859187808740855185268150
:1020D000378181E090E04217530711F080E090E0F3
:1020E0009183808308952F923F924F925F926F92D7
:1020F0007F928F929F92AF92BF92CF92DF92EF9298
:10210000FF920F931F93CF93DF93CDB7DEB7C255E6
:10211000D1090FB6F894DEBF0FBECDBF21969FAF99
:102120008EAF21974BA75CA76DA77EA748015901E9
:1021300084E4889D8001899D100D1124F801ED54DF
:10214000FB4F2285338527963FAF2EAF2797828995
:102150009389029709F060C186A597A5A0A9B1A9A6
:10216000892B8A2B8B2B29F484E090E0938B828B34
:1021700053C18489958921964EAD5FAD219748174B
:10218000590709F049C186A997A99AAB89AB1EAE38
:102190001DAE19AE1AAE1BAE1CAE8F01DF019E96AE
:1021A0002996BFAFAEAF2997F2962B96FFAFEEAF51
:1021B0002B979801285C3F4F2D963FAF2EAF2D9760
:1021C000A8014A5D5F4F2F965FAF4EAF2F97C801B2
:1021D000829661969FAF8EAF61971A976396BFAF55
:1021E000AEAF63972996EEADFFAD299780819181BF
:1021F000A281B38129AD3AAD4BAD5CAD281739074B
:102200004A075B070CF0E7C02B96EEADFFAD2B97AE
:10221000808191812DAD3EAD280F391F3EAB2DAB96
:10222000D90112960D90BC91A02D2396BFAFAEAFF1
:102230002397B695A795B695A7952596BFAFAEAF50
:1022400025972D96EEADFFAD2D9780819181892B3D
:1022500009F496C02F96AEADBFAD2F97CD90DD900F
:10226000ED90FC9029A83AA8F9010190F081E02DA9
:10227000F8ABEFA718AE1FAA8FA998AD2596AEAD03
:10228000BFAD25978A179B070CF07AC06196AEAD5B
:10229000BFAD61978D919C91892B69F1EFA5F8A94C
:1022A0004080518062807380A7019601C301B20112
:1022B0000E94A62C87FD0BC0A7019601D1016D914C
:1022C0007D918D919C910E94F02B87FD8CC0A70180
:1022D0009601C301B2010E94A62C181664F4A7014E
:1022E0009601F10160817181828193810E94F02BBE
:1022F000882309F478C06396AEADBFAD63978D9126
:102300009C91892B69F1EFA5F8A9408051806280EA
:102310007380A7019601C301B2010E94F02B87FFD1
:102320000BC0A7019601D1016D917D918D919C917A
:102330000E94A62C87FF57C0A7019601C301B201D6
:102340000E94F02B81110CC0A7019601F101608160
:102350007181828193810E94A62C18160CF443C0CF
:102360002FA938AD2F5F3F4F38AF2FAB34E0230E8E
:10237000311C4FA558A94C5F5F4F58AB4FA77CCF7E
:10238000EDA9FEA96081718123964EAD5FAD2397C3
:1023900089A99AA90E94A52E25968EAD9FAD259755
:1023A000880F991F880F991F29A93AA9280F391F4B
:1023B0003AAB29AB89AD9AADABADBCAD0196A11DD1
:1023C000B11D89AF9AAFABAFBCAFADADBEAD14968A
:1023D000BEAFADAF07CF81E090E0D801D9969C9316
:1023E0008E93D89719C084E4889DF001899DF00DE3
:1023F0001124ED54FB4F868D978DA0A1B1A1892B9F
:102400008A2B8B2B09F064C284E090E0938B828B43
:1024100086AD97AD93A782A784E4889DF001899D3E
:10242000F00D1124ED54FB4F828993898230910580
:1024300071F482AD93ADA4ADB5AD181619061A06A8
:102440001B060CF04CC2CC24C394D12C05C00497BD
:1024500009F045C2C12CD12C8EE02196EEADFFAD26
:1024600021978E9F70018F9FF00C112427962EAD1F
:102470003FAD2797E20EF31ED70112964D915C9166
:1024800013974115510509F42AC216968D919C9116
:1024900017979AA789A7FE01319684E1DF011D9263
:1024A0008A95E9F7898A9A8AAB8ABC8AC114D104D1
:1024B00009F457C084E4889DF001899DF00D112432
:1024C000ED54FB4FDF01DE964D905D906D907C905A
:1024D00082AD93ADA4ADB5AD481659066A067B062C
:1024E00009F03FC0F701648175810084F185E02D1A
:1024F00084819581A681B7819C018D8B9E8BAF8B4A
:10250000B88F285F3F4F3E8B2D8BD70118968D914A
:102510009C911997280F391F19963C932E93189761
:1025200018968D919C911997460F571F841B950BF8
:1025300097FD06C0860F971F19969C938E93189748
:1025400084E4889DF001899DF00D1124EF50FB4F2C
:10255000B1E04B1A510861087108408251826282D1
:1025600073829E012B5E3F4FAE01475D5F4F64E17A
:1025700070E0C7010E944109082F10E00115110504
:1025800009F091C18CE090E0A0E0B0E08D839E83E3
:10259000AF83B8879E01235E3F4FAE01475D5F4F1B
:1025A00064E070E0C7010E944109082F10E00115A6
:1025B000110509F078C180E190E0A0E0B0E08D83E2
:1025C0009E83AF83B8874D8D5E8DBE01655D7F4F65
:1025D0008F8D98A10E94A52E8BA19CA1009761F0E0
:1025E0006D8D7E8DEBE2F0E0EC0FFD1F6E0F7F1F17
:1025F00049A15AA10E94A52E1DA21EA21FA218A683
:1026000021962EAD3FAD2197220F331F38AF2FAB50
:1026100024E4289DC001299D900D11248D549B4FC9
:10262000AC014C5F5F4F5AAF49AFDC011896BEAFAB
:10263000ADAF2DA13EA14FA158A529AB3AAB4BABF5
:102640005CABE9ADFAAD80819181A281B38128179D
:1026500039074A075B070CF0CFC0ADADBEADED91B9
:10266000FC9189A99AA9880F991F880F991FE80FD3
:10267000F91FA081B1818C91882309F4AFC0833008
:1026800009F4ACC00280F381E02D2FA938ADE20F30
:10269000F31F4081518158AB4FA7452B09F49EC0D1
:1026A00089859A85AB85BC850196A11DB11D898759
:1026B0009A87AB87BC879E01235E3F4FAE01475D83
:1026C0005F4F64E070E0C7010E94410990E000970D
:1026D00009F0E8C08D819E81AF81B8850496A11D67
:1026E000B11D8D839E83AF83B8874D8D5E8DBE01F6
:1026F0006B5D7F4F8F8D98A10E94A52E8BA19CA111
:10270000009761F06D8D7E8DA5E2B0E0AC0FBD1F2E
:102710006A0F7B1F49A15AA10E94A52E1EAA1DAABD
:10272000412C512C3201EFA5F8A980819181A28121
:10273000B381481659066A067B060CF04FC0EFA518
:10274000F8A9248035802DA93EA9220E331ED1017F
:1027500012966D917C9113979E01235E3F4FAE01BF
:10276000475D5F4FC7010E94410990E0009709F063
:1027700099C0F10182819381092E000CAA0BBB0B39
:102780004D815E816F817885840F951FA61FB71FCD
:102790008D839E83AF83B887608171814D8D5E8DFF
:1027A0008F8D98A10E94A52E8BA19CA1009759F016
:1027B000D1016D917C912D8D3E8D620F731F49A1CA
:1027C0005AA10E94A52EBFEF4B1A5B0A6B0A7B0A27
:1027D000EDA9FEA93496FEABEDABA5CF49A85AA84A
:1027E0006BA87CA8FFEF4F1A5F0A6F0A7F0A4DA201
:1027F0005EA26FA278A61DCF89859A85AB85BC8520
:10280000892B8A2B8B2B09F44EC08AE190E0A0E043
:10281000B0E089839A83AB83BC8321962EAD3FAD14
:102820002197C901330FAA0BBB0B8D879E87AF87FA
:10283000B88B4D895E89BE016F5F7F4F8F89988D00
:102840000E94A52E8B8D9C8D009761F06D897E89ED
:1028500041E050E04C0F5D1F640F751F498D5A8D8C
:102860000E94A52E89A59AA5D70117969C938E93B1
:10287000169711961C921E92CD2889F184E4889DAA
:10288000F001899DF00D1124EF50FB4F8081918163
:10289000A281B3810196A11DB11D80839183A28382
:1028A000B3831DC08C01CD28D1F4012BC1F084E489
:1028B000889DF001899DF00D1124ED54FB4F81E0BE
:1028C00090E095A784A785E090E0938B828B07C06A
:1028D00083E090E0938B828B81E090E09BCDCE5A99
:1028E000DF4F0FB6F894DEBF0FBECDBFDF91CF91A3
:1028F0001F910F91FF90EF90DF90CF90BF90AF901E
:102900009F908F907F906F905F904F903F902F900F
:102910000895CF92DF92EF92FF920F931F936B0176
:102920007C0184E48C9DF0018D9DF00D1124ED540B
:10293000FB4F82899389009709F450C00197B9F43D
:1029400082A593A59C012F5F3F4F33A722A7092E95
:10295000000CAA0BBB0B028D138D248D358D8017B7
:102960009107A207B307D1F5C701B6010CDB84E4D8
:102970008C9DF0018D9DF00D1124ED54FB4F82894B
:102980009389039759F582A593A59C012F5F3F4F2B
:1029900033A722A7092E000CAA0BBB0B468D578D1F
:1029A00060A171A184179507A607B707BCF086AD93
:1029B00097AD93A782A784E090E0938B828B82AD42
:1029C00093ADA4ADB5AD181619061A061B0634F45E
:1029D000EE5BFF4F81E090E0918380831F910F9128
:1029E000FF90EF90DF90CF90089524E4269FF001B0
:1029F000279FF00D1124ED54FB4F82899389049792
:102A0000B1F482A593A5019693A782A7092E000C85
:102A1000AA0BBB0B46895789608D718D841795076A
:102A2000A607B70721F485E090E0938B828B089589
:102A30002F923F924F925F926F927F928F929F92CE
:102A4000AF92BF92CF92DF92EF92FF920F931F93BC
:102A5000CF93DF93CDB7DEB72E970FB6F894DEBFD6
:102A60000FBECDBF49835A836B837C834901442EBB
:102A7000552E24E4249DF001259DF00D1124ED54E4
:102A8000FB4F228833889101245031091586148622
:102A90002230310508F0DDC0DC0111961C921E9237
:102AA00013961C921E921297A12CB12C60E070E03C
:102AB0009F01265F3F4F38872F837F013CE0E30E65
:102AC000F11CDF015096BA87A9879F01225F3F4F13
:102AD0003C872B87681579050CF06FC0EF81F8856E
:102AE000A081B1819D012A0D3B1D3E872D87D90113
:102AF0002D913C911197232B09F059C018960D91F7
:102B00001C9119971296ED91FC911397FE83ED831A
:102B100016962D913C911797D7014D915C91DA0152
:102B2000E3E0AA0FBB1FEA95E1F7E985FA85C080CB
:102B3000D180FD01EC0DFD1D440F551FAB85BC85FB
:102B4000CD90DC904C0D5D1DDA016D937C93D70127
:102B50004D915C9111974F5F5F4F4D935C93138341
:102B60000283AD85BE851B963C932E931A97021760
:102B7000130748F4201B310B318320831582148204
:102B80001782168214C0AD85BE851496CD90DC9058
:102B900015974D815E814C0D5D1D401B510B51837E
:102BA00040832C193D0935832483D782C6826F5F09
:102BB0007F4FBEE0AB0EB11C8DCF24E4249D80017D
:102BC000259D100D11240D541B4FF80124853585CA
:102BD000DC0111963C932E934089518913965C93A6
:102BE0004E9312974685578515965C934E9314978E
:102BF000232BA1F5B5E02B16310481F510923B058E
:102C0000828D938DA48DB58DAE014F5F5F4F64E0D3
:102C100070E08F3F9F4FAF4FBF4F59F480E290E07D
:102C20000E94CC2269817A818B819C81A40100DA87
:102C300015C08FE190E00E94CC22D8019B961C9297
:102C40001E929A9781E090E053969C938E935297B0
:102C500005C0FC0111821082138212822E960FB6DB
:102C6000F894DEBF0FBECDBFDF91CF911F910F91C2
:102C7000FF90EF90DF90CF90BF90AF909F908F909C
:102C80007F906F905F904F903F902F900895EF92BC
:102C9000FF920F931F93CF93DF937C018B01EA0187
:102CA0000E944F23811121C080918602909187025A
:102CB000049711F183E090E090938702809386025D
:102CC0001BC098819111F0CF28ED38EB45E050E022
:102CD00060E070E0CB010E94D925AE01B801C701C8
:102CE0000E94E725C8010E94B22580913C05909181
:102CF0003D05892B31F3D8CFDF91CF911F910F91F3
:102D0000FF90EF900895CF93DF932091860230914A
:102D100087022430310541F0EB010E94E725CE0106
:102D2000DF91CF910C94B225DF91CF9108950C944F
:102D3000F9290C94EE290C94DC290C94C2250C94EE
:102D40008029089560E070E080E090E00C942A23F0
:102D50000895AF92BF92CF92DF92EF92FF920F93BE
:102D60001F93CF93DF931F921F92CDB7DEB75C0105
:102D700069017A018B0180E090E0C114D104E10483
:102D8000F104F1F0C114D10421E0E206F10410F4E1
:102D9000A60102C04FEF5FEF9E012F5F3F4FB801CA
:102DA000C5010E949A2A8F3F2FEF920749F029818F
:102DB0003A81C21AD30AE108F108020F131FDDCFCE
:102DC0000F900F90DF91CF911F910F91FF90EF9097
:102DD000DF90CF90BF90AF900895089508951F920F
:102DE0000F920FB60F9211240BB60F922F933F93B1
:102DF0004F935F936F937F938F939F93AF93BF9303
:102E0000EF93FF93E0918C02F0918D021995FF9161
:102E1000EF91BF91AF919F918F917F916F915F9152
:102E20004F913F912F910F900BBE0F900FBE0F90BF
:102E30001F9018951F920F920FB60F9211240BB688
:102E40000F922F933F934F935F936F937F938F9343
:102E50009F93AF93BF93EF93FF93E0918E02F09116
:102E60008F021995FF91EF91BF91AF919F918F9133
:102E70007F916F915F914F913F912F910F900BBE7A
:102E80000F900FBE0F901F9018951F920F920FB6C4
:102E90000F9211240BB60F922F933F934F935F9392
:102EA0006F937F938F939F93AF93BF93EF93FF9312
:102EB000E0919002F09191021995FF91EF91BF91ED
:102EC000AF919F918F917F916F915F914F913F91C2
:102ED0002F910F900BBE0F900FBE0F901F90189563
:102EE0001F920F920FB60F9211240BB60F922F93D1
:102EF0003F934F935F936F937F938F939F93AF9382
:102F0000BF93EF93FF93E0919202F0919302199592
:102F1000FF91EF91BF91AF919F918F917F916F91B1
:102F20005F914F913F912F910F900BBE0F900FBE6D
:102F30000F901F9018951F920F920FB60F921124A9
:102F40000BB60F922F933F934F935F936F937F93A3
:102F50008F939F93AF93BF93EF93FF93E09188027A
:102F6000F09189021995FF91EF91BF91AF919F91D7
:102F70008F917F916F915F914F913F912F910F9022
:102F80000BBE0F900FBE0F901F9018951F920F92BF
:102F90000FB60F9211240BB60F922F933F934F93BE
:102FA0005F936F937F938F939F93AF93BF93EF93B1
:102FB000FF93E0918A02F0918B021995FF91EF91B6
:102FC000BF91AF919F918F917F916F915F914F9141
:102FD0003F912F910F900BBE0F900FBE0F901F903F
:102FE00018951F920F920FB60F9211240BB60F92E5
:102FF0002F933F934F935F936F937F938F939F9301
:10300000AF93BF93EF93FF93E0919402F0919502F9
:103010001995FF91EF91BF91AF919F918F917F9102
:103020006F915F914F913F912F910F900BBE0F9039
:103030000FBE0F901F9018951F920F920FB60F9210
:1030400011240BB60F922F933F934F935F936F937F
:103050007F938F939F93AF93BF93EF93FF93E091F1
:103060009602F09197021995FF91EF91BF91AF9160
:103070009F918F917F916F915F914F913F912F9190
:103080000F900BBE0F900FBE0F901F9018951F92C0
:103090000F920FB60F9211242F933F938F939F930C
:1030A000AF93BF9380913F0590914005A09141055A
:1030B000B091420530913E0523E0230F2D3720F4D7
:1030C0000196A11DB11D05C026E8230F0296A11D82
:1030D000B11D20933E0580933F0590934005A0933A
:1030E0004105B09342058091430590914405A0911C
:1030F0004505B09146050196A11DB11D809343057C
:1031000090934405A0934505B0934605BF91AF91B8
:103110009F918F913F912F910F900FBE0F901F9015
:1031200018952FB7F89460913F05709140058091F4
:103130004105909142052FBF08953FB7F8948091C3
:10314000430590914405A0914505B091460526B5EB
:10315000A89B05C02F3F19F00196A11DB11D3FBFCF
:10316000BA2FA92F982F8827820F911DA11DB11D5D
:10317000BC01CD0142E0660F771F881F991F4A9559
:10318000D1F708958F929F92AF92BF92CF92DF9224
:10319000EF92FF926B017C01D0DF4B015C01C11407
:1031A000D104E104F104F1F018DEC7DFDC01CB014A
:1031B00088199909AA09BB09883E9340A105B10560
:1031C00070F321E0C21AD108E108F10888EE880EF8
:1031D00083E0981EA11CB11CC114D104E104F104C8
:1031E00021F7DDCFFF90EF90DF90CF90BF90AF90B1
:1031F0009F908F900895789484B5826084BD84B543
:10320000816084BD85B5826085BD85B5816085BDE1
:10321000EEE6F0E0808181608083E1E8F0E01082FA
:10322000808182608083808181608083E0E8F0E03B
:10323000808181608083E1EBF0E080818460808325
:10324000E0EBF0E0808181608083E1E9F0E0808163
:1032500082608083808181608083E0E9F0E080810A
:1032600081608083E1EAF0E08081826080838081F8
:1032700081608083E0EAF0E0808181608083E1E228
:10328000F1E0808182608083808181608083E0E2E0
:10329000F1E0808181608083EAE7F0E080818460F2
:1032A000808380818260808380818160808380814F
:1032B000806880831092C100089590E0FC013197EE
:1032C000E231F10508F04EC08827EE58FF4F8F4FCE
:1032D0000C94422D809180008F7703C080918000F4
:1032E0008F7D80938000089580918000877FF9CF43
:1032F00084B58F7702C084B58F7D84BD0895809199
:10330000B0008F7703C08091B0008F7D8093B000B4
:103310000895809190008F7707C0809190008F7DF5
:1033200003C080919000877F8093900008958091E2
:10333000A0008F7707C08091A0008F7D03C080918F
:10334000A000877F8093A0000895809120018F774F
:1033500007C0809120018F7D03C080912001877F6D
:10336000809320010895CF93DF9390E0FC01E25910
:10337000FE4F2491FC01EC54FE4F8491882361F1AF
:1033800090E0880F991FFC01EC5EFD4FC591D49130
:10339000FC01E650FE4FA591B491611109C09FB7A1
:1033A000F8948881209582238883EC912E230BC08A
:1033B000623061F49FB7F8943881822F809583231F
:1033C0008883EC912E2B2C939FBF06C08FB7F89467
:1033D000E8812E2B28838FBFDF91CF9108951F9313
:1033E000CF93DF93282F30E0F901E85DFE4F849101
:1033F000F901E259FE4FD491F901EC54FE4FC4910A
:10340000CC23C1F0162F811158DFEC2FF0E0EE0F26
:10341000FF1FE650FE4FA591B4918FB7F89411119C
:1034200005C09C91ED2FE095E92302C0EC91ED2BB6
:10343000EC938FBFDF91CF911F910895FC01918D87
:10344000228D892F90E0805C9F4F821B91098F73A2
:1034500099270895FC01918D828D981731F0828D06
:10346000E80FF11D858D90E008958FEF9FEF08958F
:10347000FC01918D828D981761F0828DDF01A80F7C
:10348000B11D5D968C91928D9F5F9F73928F90E09E
:1034900008958FEF9FEF0895FC01848DDF01A80F41
:1034A000B11DA35ABF4F2C91848D90E001968F736C
:1034B0009927848FA689B7892C93A089B1898C918B
:1034C00080648C93938D848D981306C00288F38951
:1034D000E02D80818F7D80830895CF93DF93EC0171
:1034E000888D8823C1F0EA89FB89808185FD05C02C
:1034F000A889B9898C9186FD0EC00FB607FCF5CF5F
:10350000808185FFF2CFA889B9898C9185FFEDCFA5
:10351000CE01C2DFE8CFDF91CF910895EF92FF9205
:103520000F931F93CF93DF93EC0181E0888F9B8DE6
:103530008C8D981305C0E889F989808185FD23C0A9
:10354000F62E0B8D10E00F5F1F4F0F731127E02E2B
:103550008C8DE8120BC00FB607FCFACFE889F98909
:10356000808185FFF5CFCE0197DFF2CF8B8DFE01F5
:10357000E80FF11DE35AFF4FF0820B8FEA89FB89B8
:103580008081806207C0EE89FF896083E889F989BC
:1035900080818064808381E090E0DF91CF911F91F2
:1035A0000F91FF90EF900895CF92DF92EF92FF92EC
:1035B0001F93CF93DF93EC016A017B01122FE889FF
:1035C000F98982E080834115514E61057105B1F0A2
:1035D00060E079E08DE390E0A70196010E94202D44
:1035E000DA01C9010197A109B109B695A795979587
:1035F0008795AC01411580E15807A8F0E889F98961
:10360000108260E874E88EE190E0A70196010E94C4
:10361000202DBA01A901415051096109710976951E
:10362000679557954795EC85FD855083EE85FF8519
:103630004083188EEC89FD891083EA89FB8980819B
:1036400080618083EA89FB89808188608083EA8940
:10365000FB89808180688083EA89FB8980818F7DF6
:103660008083DF91CF911F91FF90EF90DF90CF90FB
:1036700008951F920F920FB60F9211240BB60F925E
:103680002F938F939F93EF93FF93E0915705F091C2
:1036900058058081E0915D05F0915E0582FD12C0C4
:1036A0009081809160058F5F8F73209161058217F3
:1036B00051F0E0916005F0E0E95BFA4F958F80935F
:1036C000600501C08081FF91EF919F918F912F91B3
:1036D0000F900BBE0F900FBE0F901F9018951F926A
:1036E0000F920FB60F9211240BB60F922F933F93A8
:1036F0004F935F936F937F938F939F93AF93BF93FA
:10370000EF93FF9387E495E0C7DEFF91EF91BF91C0
:10371000AF919F918F917F916F915F914F913F9169
:103720002F910F900BBE0F900FBE0F901F9018950A
:10373000E7E4F5E01382128288EE93E0A0E0B0E0C7
:1037400084839583A683B78381E693E09183808306
:1037500085EC90E09587848784EC90E09787868756
:1037600080EC90E0918B808B81EC90E0938B828B4E
:1037700082EC90E0958B848B86EC90E0978B868B27
:10378000118E128E138E148E08951F920F920FB603
:103790000F9211240BB60F922F938F939F93EF9359
:1037A000FF93E091F405F091F5058081E091FA0531
:1037B000F091FB0582FD12C090818091FD058F5F25
:1037C0008F732091FE05821751F0E091FD05F0E026
:1037D000EC51FA4F958F8093FD0501C08081FF91D8
:1037E000EF919F918F912F910F900BBE0F900FBE75
:1037F0000F901F9018951F920F920FB60F921124E1
:103800000BB60F922F933F934F935F936F937F93DA
:103810008F939F93AF93BF93EF93FF9384EE95E0C5
:103820003BDEFF91EF91BF91AF919F918F917F917F
:103830006F915F914F913F912F910F900BBE0F9021
:103840000FBE0F901F901895E4EEF5E013821282E0
:1038500088EE93E0A0E0B0E084839583A683B783ED
:1038600081E693E0918380838DEC90E09587848757
:103870008CEC90E09787868788EC90E0918B808B2A
:1038800089EC90E0938B828B8AEC90E0958B848B13
:103890008EEC90E0978B868B118E128E138E148E89
:1038A00008951F920F920FB60F9211240BB60F922C
:1038B0002F938F939F93EF93FF93E0919106F09155
:1038C00092068081E0919706F091980682FD12C0E1
:1038D000908180919A068F5F8F7320919B0682174B
:1038E00051F0E0919A06F0E0EF57F94F958F8093F1
:1038F0009A0601C08081FF91EF919F918F912F9146
:103900000F900BBE0F900FBE0F901F9018951F9237
:103910000F920FB60F9211240BB60F922F933F9375
:103920004F935F936F937F938F939F93AF93BF93C7
:10393000EF93FF9381E896E0AFDDFF91EF91BF91A8
:10394000AF919F918F917F916F915F914F913F9137
:103950002F910F900BBE0F900FBE0F901F901895D8
:10396000E1E8F6E01382128288EE93E0A0E0B0E096
:1039700084839583A683B78381E693E091838083D4
:1039800085ED90E09587848784ED90E09787868722
:1039900080ED90E0918B808B81ED90E0938B828B1A
:1039A00082ED90E0958B848B86ED90E0978B868BF3
:1039B000118E128E138E148E08951F920F920FB6D1
:1039C0000F9211240BB60F922F938F939F93EF9327
:1039D000FF93E0912E07F0912F078081E09134074B
:1039E000F091350782FD12C09081809137078F5F7B
:1039F0008F7320913807821751F0E0913707F0E07C
:103A0000E25EF84F958F8093370701C08081FF9168
:103A1000EF919F918F912F910F900BBE0F900FBE42
:103A20000F901F9018951F920F920FB60F921124AE
:103A30000BB60F922F933F934F935F936F937F93A8
:103A40008F939F93AF93BF93EF93FF938EE197E094
:103A500023DDFF91EF91BF91AF919F918F917F9166
:103A60006F915F914F913F912F910F900BBE0F90EF
:103A70000FBE0F901F901895EEE1F7E013821282AF
:103A800088EE93E0A0E0B0E084839583A683B783BB
:103A900081E693E09183808385E391E09587848735
:103AA00084E391E09787868780E391E0918B808B18
:103AB00081E391E0938B828B82E391E0958B848B01
:103AC00086E391E0978B868B118E128E138E148E67
:103AD00008958F929F92AF92BF92CF92DF92EF9212
:103AE000FF920F931F93CF93DF937C018B016C01A7
:103AF00082E0C80ED11C4701E5E08E0E911CC0E0AB
:103B0000D0E0F60161916F014AE050E0C801C6D0F3
:103B10005C016EE2C80167D08A0D9B1DC80FD91FDA
:103B2000C814D90471F74AE050E0F7016581C80173
:103B3000B5D08C0F9D1FDF91CF911F910F91FF90FA
:103B4000EF90DF90CF90BF90AF909F908F900895AF
:103B5000EBEBF7E081E793E091838083128213829D
:103B6000148215820895CF92DF92EF92FF920F9305
:103B70001F93CF93DF936C017A018B01C0E0D0E0FB
:103B8000CE15DF0589F0D8016D918D01D601ED913B
:103B9000FC910190F081E02DC6011995892B11F45B
:103BA0007E0102C02196ECCFC701DF91CF911F911A
:103BB0000F91FF90EF90DF90CF9008956115710500
:103BC00079F0FB0101900020E9F73197AF01461B26
:103BD000570BDC01ED91FC910280F381E02D1994EB
:103BE00080E090E00895DC01ED91FC910190F0817E
:103BF000E02D19944F925F926F927F92EF92FF9215
:103C00000F931F93CF93DF93CDB7DEB7A1970FB676
:103C1000F894DEBF0FBECDBF7C01FA01CB0119A223
:103C2000223008F42AE08E010F5D1F4F422E512CE6
:103C3000612C712CBF01A30192010E94202DF9017A
:103C4000CA01015011096A3014F4605D01C0695C59
:103C5000D8016C93232B242B252B61F7B801C701C6
:103C6000ADDFA1960FB6F894DEBF0FBECDBFDF91DA
:103C7000CF911F910F91FF90EF907F906F905F9089
:103C80004F9008952115310541F4DC01ED91FC912F
:103C90000190F081E02D642F1994ACCF9A01462F4A
:103CA00050E060E070E0EECF8230A9F028F4882385
:103CB00049F0813051F00895843021F1E8F08530E9
:103CC00039F1089510926E00089580916F008D7FF4
:103CD00080936F000895809170008D7F80937000B5
:103CE00081E08093B0008091B100887F84608093F0
:103CF000B1001092B3000895809171008D7F809380
:103D000071000895809172008D7F809372000895F4
:103D1000809173008D7F809373000895CF93C82F97
:103D2000809198028C1307C0EEE2F2E0E4918FEFED
:103D30008093980201C0EFEF8E2FB6DF60E08C2FEA
:103D4000CF914DCB1F920F920FB60F9211240BB64D
:103D50000F922F933F934F935F936F937F938F9324
:103D60009F93AF93BF93EF93FF938091C40790917C
:103D7000C507A091C607B091C707892B8A2B8B2B4B
:103D800051F18091C107E091C207F091C307908182
:103D9000892780838091C4079091C507A091C607A9
:103DA000B091C707181619061A061B06BCF48091B5
:103DB000C4079091C507A091C607B091C7070197A6
:103DC000A109B1098093C4079093C507A093C607C2
:103DD000B093C70703C080919802A0DFFF91EF91D5
:103DE000BF91AF919F918F917F916F915F914F9113
:103DF0003F912F910F900BBE0F900FBE0F901F9011
:103E0000189540E052EC61E070E080E090E006D070
:103E100061E08DE0A8DA60E08DE0E1CA81309105D3
:103E200071F01CF4892B39F008958230910559F016
:103E3000039769F0089526E087E495E00BC026E03B
:103E400084EE95E007C026E081E896E003C026E016
:103E50008EE197E0A9CB1F920F920FB60F9211241B
:103E60000BB60F922F933F934F935F936F937F9374
:103E70008F939F93AF93BF93EF93FF938FE89DEF43
:103E800090932501809324018091F5079091F60786
:103E9000019719F461E08DE0A2DA0E94D42AFF9123
:103EA000EF91BF91AF919F918F917F916F915F91B2
:103EB0004F913F912F910F900BBE0F900FBE0F901F
:103EC0001F9018958FE89DEF909325018093240112
:103ED000A3E7B0E08C918E7F8C93E0E2F1E08081EB
:103EE0008C7F8083E1E2F1E08081877E8083808126
:103EF0008460808380818C7F80838C9181608C93AF
:103F0000089581E008956F927F928F929F92AF9271
:103F1000BF92CF92DF92EF92FF920F931F93CF93B6
:103F2000DF935C017B014A0101E010E00E151F05E3
:103F300064F568018FEFC81AD80AE801CC0FDD1FBD
:103F4000C80DD91D6880798061147104E1F063E7C0
:103F500073E0C3010E94B52E892B19F419821882CF
:103F600012C066E773E0C3010E94B52E892B59F495
:103F7000CE14DF0441F06801E2E0CE0ED11C1982BC
:103F800018821B821A828601D1CF81E0F5018083DD
:103F9000B401C7010E94242AF5019283818380E045
:103FA00090E0DF91CF911F910F91FF90EF90DF9004
:103FB000CF90BF90AF909F908F907F906F9008951B
:103FC00088EC97E0089580E008950F931F93CF93B6
:103FD000DF938B01BA01E901198218829801012E41
:103FE000000C440B550BFC01818192810E94A916A3
:103FF000019621F01983088380E001C081E0DF9100
:10400000CF911F910F9108950F931F93CF93DF933B
:104010001F921F92CDB7DEB7FB018A01B9019E0145
:104020002F5F3F4FAF01FC01818192810E943B2AAB
:10403000019639F089819A81F8019183808380E02B
:1040400001C081E00F900F90DF91CF911F910F91F0
:104050000895FC01808108950895089581E0FB0191
:10406000808380E0089508951092F2070895FC017E
:10407000818192810C941B2ACF93DF93CDB7DEB759
:104080002A970FB6F894DEBF0FBECDBFAC01CB01AF
:1040900060E070E049835A836B837C83092E000CB7
:1040A000AA0BBB0B8D839E83AF83B8879E01275FCE
:1040B0003F4FAE014F5F5F4F68E070E08091E107D6
:1040C0009091E20782DF811108C081E029853A855D
:1040D0002830310519F480E001C081E02A960FB63E
:1040E000F894DEBF0FBECDBFDF91CF9108950F933F
:1040F0001F93CF93DF931F921F92CDB7DEB78B0133
:104100009E012F5F3F4FAC018091E1079091E20744
:104110005CDF811108C081E029813A8120173107D5
:1041200019F480E001C081E00F900F90DF91CF91F2
:104130001F910F910895CF93DF93EC011092E50743
:104140001092E4071092F1071092F007AC0160E0C2
:1041500070E0CB010E941810AE0161E070E080E0D9
:1041600090E00E9418108091E1079091E207DF91A2
:10417000CF9179CF4F925F926F927F928F929F9261
:10418000AF92BF92CF92DF92EF92FF920F931F9365
:10419000CF93DF931F921F92CDB7DEB79C016C01C6
:1041A00097FF03C087E0C80ED11C43E0D594C794A5
:1041B0004A95E1F7C90168E070E00E940D2D7C018D
:1041C00089010E5F1F4F8091DF079091E0078017F4
:1041D00091070CF0DCC08091DD079091DE0700971D
:1041E00031F00E940D2E1092E0071092DF07C801F7
:1041F0000E94782D9093DE078093DD07892B29F0AC
:104200001093E0070093DF07C2C0A12CB12CAC14BF
:10421000BD040CF05EC0412C512C320100E010E0D6
:1042200098012A51384FAE014F5F5F4F61E070E057
:104230008091E1079091E207E7DE811198C18981C1
:104240009A812FEF421A520A620A720A20E9421634
:104250002FE5520621E0620671043CF06091F00700
:104260007091F1078DEE90E02DC0080F191F0A30F4
:10427000110551F549E050E060E070E086EE97E00E
:104280000E94C62A6091F0077091F1078823C1F05F
:104290008091EE0790E06817790709F0B8CF8EEEAD
:1042A00090E0EADE8091F0079091F107019699275E
:1042B0009093F1078093F0078FEFA81AB80AA7CF61
:1042C0008FEE90E0D9DEA7CF0A3011050CF4A8CF0D
:1042D0009ECFEF2809F44BC1C12CD12C760100E010
:1042E00010E098012A51384FAE014F5F5F4F61E0F7
:1042F00070E08091E1079091E20786DE811137C17D
:1043000089819A812FEFC21AD20AE20AF20A20E9C1
:10431000C2162FE5D20621E0E206F1043CF06091DE
:10432000F0077091F1078DEE90E02AC0080F191F79
:104330000A30110539F549E050E060E070E086EEA2
:1043400097E00E94C62A6091F0077091F1078823D8
:10435000A9F08091EE0790E06817790709F007C18E
:104360008EEE90E089DE8091F0079091F107019642
:1043700099279093F1078093F007F9C08FEE90E0B2
:104380007BDEAACF0A3011050CF4ABCFF0C000E001
:1043900010E00C151D050CF077C0412C512C32019A
:1043A000A12CB12C480193E0880C991C9A95E1F757
:1043B0002091DD073091DE07C4018A0D9B1D280F77
:1043C000391FAE014F5F5F4F61E070E08091E10700
:1043D0009091E20719DE8111CAC089819A812FEF7D
:1043E000421A520A620A720A20E942162FE5520660
:1043F00021E0620671043CF06091F0077091F107D2
:104400008DEE90E034C0A80EB91E8AE0A816B10463
:10441000A9F549E050E0B4018091DD079091DE07F5
:104420000E94C62A6091F0077091F1078823E9F095
:104430008091DD079091DE07FC01E80DF91D808574
:1044400090E06817790709F0A4CF8EEE90E014DEB3
:104450008091F0079091F107019699279093F107C9
:104460008093F0070F5F1F4F94CF8FEE90E004DE34
:10447000412C512C3201A12CB12C9ACF2AE0A2164A
:10448000B1040CF495CF85CFE114F10409F46AC0AE
:10449000680183E0CC0CDD1C8A95E1F7812C912C1E
:1044A000540100E010E098012A51384FAE014F5FEF
:1044B0005F4F61E070E08091E1079091E207A4DD39
:1044C000811155C089819A812FEF821A920AA20A1E
:1044D000B20A20E982162FE5920621E0A206B10475
:1044E0003CF06091F0077091F1078DEE90E034C0E0
:1044F000080F191F0A30110589F549E050E060E006
:1045000070E086EE97E00E94C62A6091F0077091F5
:10451000F1078823F9F08091EE0790E0681779079A
:1045200009F58EEE90E0A8DD8091DD079091DE0721
:10453000A70166EE77E08C0D9D1D0E94A52E80914F
:10454000F0079091F107019699279093F1078093D6
:10455000F00708C08FEE90E08FDDA0CF0A30110584
:104560000CF4A1CF8091DD079091DE0702C080E0BE
:1045700090E00F900F90DF91CF911F910F91FF90DE
:10458000EF90DF90CF90BF90AF909F908F907F90F3
:104590006F905F904F900895CF92DF92EF92FF92CD
:1045A0000F931F93CF93DF931F92CDB7DEB76C01AC
:1045B0007B018A01452B31F0AB0160E070E0C8015E
:1045C000E1D78983B701C60157DD81110DC00115FF
:1045D000110551F0B701C8018ADD811105C061E004
:1045E00070E0CE01019683DD0F90DF91CF911F9196
:1045F0000F91FF90EF90DF90CF900895CF92DF92D0
:10460000EF92FF92CF93DF93CDB7DEB728970FB627
:10461000F894DEBF0FBECDBF6B01E12CF12CC98237
:10462000DA82EB82FC822D833E834F835887AE0172
:104630004F5F5F4F68E070E0AFDF28960FB6F894E9
:10464000DEBF0FBECDBFDF91CF91FF90EF90DF9027
:10465000CF9008950F931F93CF93DF93EC018B01BD
:10466000AFDC9093E2078093E107009739F0A8014F
:10467000BE0149DCEC01892B19F40BC0C2E8D3E080
:104680008091E1079091E207E7DC1092E207109237
:10469000E107CE01DF91CF911F910F910895809195
:1046A000E1079091E207D5CC2F923F924F925F9213
:1046B0006F927F928F929F92AF92BF92CF92DF9232
:1046C000EF92FF920F931F93CF93DF93CDB7DEB797
:1046D00069970FB6F894DEBF0FBECDBF2091E507F6
:1046E000222309F426C25D8B4C8B688B798B8A8BD5
:1046F0009B8B9A01AB01BC01CE0101960E9418155B
:1047000010E038E0232E312C89819A811816190681
:104710000CF00AC21F861E861D861C8689819A811E
:10472000AC85BD85A817B9070CF0F3C1EB81FC81FE
:104730002E853F85E20FF31F208131813093DC0706
:104740002093DB07848195819093DA078093D907C2
:10475000428153815093D8074093D70746815781B0
:104760005093D6074093D507820F931F9C01990F52
:10477000440B550B2E8B3F8B488F598FC12CD12C5E
:1047800076012E893F89488D598DC216D306E406DD
:10479000F50608F0A2C11F826091DB077091DC076B
:1047A0008B01072E000C220B330BD701C601049698
:1047B000A11DB11D80179107A207B30728F4E0914E
:1047C000D707F091D8070AC0E4E0F0E0E61BF70B4A
:1047D000EC0DFD1D8091D5079091D607E80FF91FCC
:1047E0004080512C612C712CD701C6010596A11D6A
:1047F000B11D80179107A207B30728F4E091D707EE
:10480000F091D8070AC0E5E0F0E0E61BF70BEC0DED
:10481000FD1D8091D5079091D607E80FF91F808183
:10482000582AD701C6010696A11DB11D8017910710
:10483000A207B30728F4E091D707F091D8070AC080
:10484000E6E0F0E0E61BF70BEC0DFD1D8091D507CF
:104850009091D607E80FF91F8081682AD701C60119
:104860000796A11DB11D80179107A207B30728F471
:10487000E091D707F091D8070AC0E7E0F0E0E61B27
:10488000F70BEC0DFD1D8091D5079091D607E80F31
:10489000F91F8081782A4601570148E0840E911C57
:1048A000A11CB11C081519052A053B0508F4B4C064
:1048B000C016D106E206F30638F48091D70790912E
:1048C000D8078C0D9D1D09C0C601861B970B209132
:1048D000D5073091D607820F931F68E070E007DCA0
:1048E000E091DB07F091DC079F010F2E000C440BD9
:1048F000550BD301C201880D991DAA1DBB1D281798
:1049000039074A075B07C8F082169306A406B50666
:1049100038F42091D7073091D807C601089609C00E
:10492000C1018E1B9F0B8C0D9D1D2091D5073091D1
:10493000D607820F931FB20199C08601BF0168504C
:1049400071096C197D0982169306A406B50638F420
:104950002091D7073091D807C601089609C0C10138
:104960008E1B9F0B8C0D9D1D2091D5073091D60776
:10497000820F931FBCDB8091DB079091DC07B101B4
:10498000681B790B600F711F640D751D8091D50731
:104990009091D607ACDB8091DB079091DC07AC01EE
:1049A00048505109FA01E01BF10BAC01092E000C33
:1049B000660B770B84169506A606B70638F4209189
:1049C000D7073091D807C60108960AC09101281B65
:1049D000390BC9018C0D9D1D2091D5073091D6074B
:1049E000820F931FAF0160E070E0CCD58F832091E0
:1049F000DB073091DC07A101421B530B9A01200F0A
:104A0000311F240D351D40E050E0682F8091D507FF
:104A10009091D607A3D550C0C016D106E206F30682
:104A2000C8F46C197D098091D7079091D8078C0D37
:104A30009D1D5DDB8091DB079091DC07B101681B58
:104A4000790B6C0D7D1D640D751D8091D5079091BE
:104A5000D6070CC0C601861B970B2091D507309155
:104A6000D607B201685F7F4F820F931F40DB8091B2
:104A7000DB079091DC07AC01092E000C660B770B6D
:104A800084169506A606B70638F42091D70730910C
:104A9000D807C60108960AC0D101A81BB90BCD01E1
:104AA0008C0D9D1D2091D5073091D607820F931F45
:104AB000A20160E070E066D58F8361E070E0CE0116
:104AC000079615DB182FB8E04B0E511C611C711CAA
:104AD000C40CD51CE61CF71C54CE8C859D85880F14
:104AE000991FED81FE81E80FF91F488959896A896C
:104AF0007B89808191810E944A104C855D854F5F42
:104B00005F4F5D874C878E859F8508969F878E8730
:104B100005CE2C893D89488959896A897B89CE01CE
:104B200001960E941815F0CD112319F08C899D89EA
:104B300002DB69960FB6F894DEBF0FBECDBFDF91E2
:104B4000CF911F910F91FF90EF90DF90CF90BF908A
:104B5000AF909F908F907F906F905F904F903F901D
:104B60002F900895CF93DF93EC01AC0160E070E0EB
:104B7000CB019ADDAE0161E070E080E090E0DF9172
:104B8000CF9192CDCF938091E1079091E2071BDA0C
:104B9000C82F81110BC060E070E0CB010E941A0B9E
:104BA00061E070E080E090E00E941A0B8C2FCF91C2
:104BB00008950F931F9389019A01AB01BC01809165
:104BC000E1079091E20749DA1F910F9108953F9212
:104BD0004F925F926F927F928F929F92AF92BF920D
:104BE000CF92DF92EF92FF920F931F93CF93DF93B9
:104BF000CDB7DEB767970FB6F894DEBF0FBECDBF57
:104C00006C017B015A018091E507882331F0809186
:104C1000E507882309F45CC30AC065EE77E080915C
:104C2000E1079091E2071ADA811152C3F0CF809127
:104C3000E4071A821982882309F46AC0E0E94E2E3B
:104C4000EFE55E2E66246394712C00E010E098017D
:104C50002553384FAE014F5F5F4F61E070E08091A8
:104C6000E1079091E207D0D9982E81114DC089813A
:104C70009A81080F191F0115110509F445C081E03B
:104C8000481A51086108710839F46091F007709171
:104C9000F1078DEE90E030C00A30110589F549E04A
:104CA00050E060E070E08BEC97E070D46091F0072A
:104CB0007091F1078823F1F08091D30790E0681795
:104CC0007907D9F48EEE90E0D7D988E0EBECF7E0E5
:104CD000DE01199601900D928A95E1F72091F00777
:104CE0003091F1072F5F3F4F33273093F107209327
:104CF000F0070AC08FEE90E0BFD91A82198204C073
:104D00000A3011050CF4A3CF81E029813A8124C037
:104D100000E010E078E0672E712C29E030E02C0FE5
:104D20003D1F200F311FAE014F5F5F4FB301601B6E
:104D3000710B8091E1079091E20766D9982E298145
:104D40003A81811108C0020F131F0115110519F0D6
:104D50000830110514F381E0121613060CF080E000
:104D60009110B3C2882309F4B3C28091E407811182
:104D700004C019861A861B861C8689859A85AB8590
:104D8000BC858031910508F0A3C2FC018827EC574F
:104D9000FF4F8F4F77C6D6011696ED91FC9117976E
:104DA00080819181A281B38189839A83AB83BC8303
:104DB000AE014F5F5F4F64E070E085E190E07DC140
:104DC0008D859E85D7D9009731F42FEF3FEFA9014C
:104DD00061E070E00EC0FC0180809180A280B38011
:104DE000A701C501B4010E94C30FA501940160E0B1
:104DF00070E08DE190E067C28D859E85BBD90097FC
:104E000021F42FEF3FEFA90110C0DC018D909D90A0
:104E1000AD90BD90AD0195018401B701C6010E941E
:104E20005F0CA5019401882319F061E070E002C0D5
:104E300060E070E08BE190E046C28D859E859AD956
:104E4000009721F42FEF3FEFA9010FC0FC018190E3
:104E50009190A190B190BF01A5019401C6010E945B
:104E6000680EA5019401882319F061E070E002C08A
:104E700060E070E08CE190E026C2D6011496ED91DE
:104E8000FC91159700811181F80182809380A080A8
:104E9000B18060E1462E512C612C712C49825A82DE
:104EA0006B827C8288E090E0A0E0B0E08D839E83FE
:104EB000AF83B8879E012F5E3F4FAE014F5F5F4FBC
:104EC00068E070E08091E1079091E2077ED8882346
:104ED00019F000E010E0BAC089899A890897C9F7EB
:104EE000D801ED90FC90B8E0EB0EF11CEE0CFF1C2D
:104EF000EE0CFF1CC701FCD58C01892B51F34982B4
:104F00005A826B827C82C7010F2C000CAA0BBB0B50
:104F10008D839E83AF83B8879E012F5E3F4FAE0186
:104F20004F5F5F4F68E070E08091E1079091E2078A
:104F30004CD881118BC089899A89089709F086C05D
:104F4000D6011296ED91FC911397408151816281B7
:104F50007381D8014D935D936D937C931397448136
:104F600055816681778114964D935D936D937C9303
:104F70001797408551856285738518964D935D938B
:104F80006D937C931B9784859585A685B785F801DD
:104F900084879587A687B787108A118A128A138A11
:104FA00084E090E0A0E0B0E0848B958BA68BB78B7B
:104FB0008091860290918702A0E0B0E0808F918F6F
:104FC000A28FB38FC5010B2C000CAA0BBB0B848FD7
:104FD000958FA68FB78FF401D801909680E090E06E
:104FE0008A159B0554F44191519160E070E04D9316
:104FF0005D936D937D930196F3CF9E012F5E3F4F9E
:10500000A801B7018091E1079091E2070E94E51F96
:1050100081111CC089899A898E159F05B9F4A70151
:1050200060E070E0C801AED28B8B9E012F5E3F4FD7
:10503000AE014D5E5F4F61E070E08091E1079091BD
:10504000E2070E94E51F81E08093E407C8016796AC
:105050000FB6F894DEBF0FBECDBFDF91CF911F9189
:105060000F91FF90EF90DF90CF90BF90AF909F9007
:105070008F907F906F905F904F903F90CEC58D85C1
:105080009E85AF85B8890097A105B10521F481E01F
:105090008093E3071DC16ED8009789F481E090E00A
:1050A000A0E0B0E089839A83AB83BC83AE014F5FFD
:1050B0005F4F64E070E082E190E06EDA09C1BC010C
:1050C000C6010E946D0A19821A821B821C82AE01DF
:1050D0004F5F5F4F64E070E082E190E05DDA811144
:1050E000F7C0D5CFD6011496ED91FC91159701909C
:1050F000F081E02D008511858FEF89830115110561
:1051000009F472C0D8016D907C90A280B38020E039
:1051100030E060E070E080E090E0861597050CF5E7
:10512000F801A281B381A20FB31F1296ED91FC91F9
:105130001397EE0FFF1FEA0DFB1D0190F081E02D8C
:1051400016960D90BC91A02DEA9FA001EB9F500DEB
:10515000FA9F500D1124640F751F0196285F3F4F71
:10516000DCCF83E190E00E943C208111B1C0C12CD2
:10517000D12CE12CF12CE614F7047CF5D801129621
:10518000ED91FC911397EC0DFD1D80809180A28123
:10519000B381AA0FBB1FAA0DBB1D2D913C91868127
:1051A0009781289F2001299F500C389F500C112473
:1051B000B201C4010E947720382E920140E050E0F5
:1051C0006981C401CBD18983B8E0CB0ED11C3110E9
:1051D0007FC0EFEFEE1AFE0ACECF61E070E0CE01A5
:1051E00001960E94772074C060E070E083E190E057
:1051F0000E943C206DC040E050E060E070E081E142
:1052000090E0CAD9811164C0812C912C5401C50150
:10521000B4010E94460C80913B05882321F0A70130
:10522000C501B40141DAA701C501B4010E94460BD2
:105230008A9489288A288B2829F0812C912C540162
:105240008394E5CF1092E5071092E4071092F107DE
:105250001092F0078091E1079091E2070E943420BC
:1052600037C081E090E090933D0580933C0540E09D
:1052700050E060E070E086E190E01FCF81E0D50172
:105280008C9326C08D859E850E94BA20009731F4AC
:105290002FEF3FEFA90161E070E013C0FC01208116
:1052A000318142815381CA01B9012C8B3D8B4E8BD8
:1052B0005F8B0E9423102C893D894E895F8960E0B5
:1052C00070E08EE190E09AD903C0C7010E949B2054
:1052D00067960FB6F894DEBF0FBECDBFDF91CF91BA
:1052E0001F910F91FF90EF90DF90CF90BF90AF9004
:1052F0009F908F907F906F905F904F903F90089518
:10530000CF92DF92EF92FF92CF93DF93EC01C12C0B
:10531000D12C7601C701B6010E94460CAE01C7012F
:10532000B601C2D9AE01C701B6010E94460B8091F9
:10533000DD079091DE07009729F06FD41092DE0709
:105340001092DD07CA94CD28CE28CF2829F0C12C91
:10535000D12C7601C394DECF8091E407882359F0E5
:1053600040E050E060E070E084E190E015D9F82E74
:105370001092E40701C0F12C8091E507882341F0E9
:105380001092E50781E090E0909387028093860277
:105390008091E1079091E2070E9437208091E10718
:1053A0009091E2070E942C208F2DDF91CF91FF90EA
:1053B000EF90DF90CF900895CF93DF93EC01AC0195
:1053C00060E070E0CB010E948914AE0161E070E002
:1053D00080E090E0DF91CF910C94891460E070E060
:1053E000CB010E94F51461E070E080E090E00C9445
:1053F000F514CF92DF92EF92FF920F931F93CF930A
:10540000DF93EC016A017B0100E010E098010E944B
:10541000731001E010E020E030E0B701A601CE01FA
:105420000E947310DF91CF911F910F91FF90EF9029
:10543000DF90CF90089568EE73E080E090E00E94E6
:10544000C21880E090E0089526E040E050E16EE070
:1054500070E087E495E00E94D41A87E495E00E940A
:105460001E1A892B29F087E495E00E94381AF5CF9F
:1054700080E090E00895AF92BF92CF92DF92EF92DA
:10548000FF920F931F93CF93DF931F921F92CDB77D
:10549000DEB77A018901F9011182108287E495E073
:1054A00069837A830E941E1A69817A81892B99F116
:1054B0005B01DD24D39485E6C82E8091F20781112B
:1054C00024C087E495E00E94381A85369105A9F733
:1054D000D092F207F501C1925F01F80180819181BC
:1054E000019691838083E9CF87E495E00E94381A82
:1054F0008F3FFFEF9F0749F0F50181935F01F801AE
:1055000080819181019691838083F80180819181CE
:105510008E159F0548F380E090E00F900F90DF918B
:10552000CF911F910F91FF90EF90DF90CF90BF90A0
:10553000AF9008950F931F93CF93DF93EA018901F2
:1055400087E495E00E94B31DF801D183C08380E019
:1055500090E0DF91CF911F910F910895DC01A40F8E
:10556000B51F240F351FAD01481B590B42175307B8
:1055700038F4ED91E627F0E0E15DFD4F6491F3CF63
:10558000862F08959A01AB016FEFE8CFCF93FC010E
:10559000E60FF71FE40FF51FC081F4DF91E0C81399
:1055A00090E0892FCF9108958091F40791E0980FB2
:1055B0009093F407882349F021E030E03093F60718
:1055C0002093F5078093F407089578940E94530779
:1055D000F8948091F40781508093F4070C94991605
:1055E000DF92EF92FF920F931F93CF93DF931F925F
:1055F0001F92CDB7DEB7FF24F394FA820E94FB1806
:105600000E94011F00915B0310915C03F80111825D
:10561000108260E070E080E090E00E94A2160E949C
:1056200069087894C80181569F4F0E94A11682E0B4
:1056300090E00E949D161982AE014F5F5F4F62E0BD
:1056400070E0F801828193810E9447168981882346
:1056500021F0F801EB55FF4FF0820E94A816F89454
:105660000E94621FF80180819181892B29F481E0D9
:10567000EB55FF4F9081911180E08A837894789464
:105680007801F5EAEF0EF11CDD24D3948A8188239A
:1056900079F11982AE014F5F5F4F62E070E0F8016F
:1056A000828193810E9483168981882311F0F701FA
:1056B000D082F80180819181892B39F481E0F70152
:1056C0009081911103C080E001C081E08093F307D5
:1056D0009091F30781E0911180E08A838A81882389
:1056E00019F00E94811F02C080E090E08A83CECF33
:1056F0000E94390982E090E00E949F16F89480E0B1
:1057000090E00F900F90DF91CF911F910F91FF903C
:10571000EF90DF9008955058BB27AA270ED0DCC029
:10572000CDD030F0D2D020F031F49F3F11F41EF4F0
:10573000C2C00EF4E095E7FBB8C0E92FDED080F3DD
:10574000BA17620773078407950718F071F49EF57E
:10575000F6C00EF4E0950B2EBA2FA02D0B01B90167
:1057600090010C01CA01A0011124FF27591B99F0D7
:10577000593F50F4503E68F11A16F040A22F232FE3
:10578000342F4427585FF3CF469537952795A79533
:10579000F0405395C9F77EF41F16BA0B620B730BDA
:1057A000840BBAF09150A1F0FF0FBB1F661F771F4B
:1057B000881FC2F70EC0BA0F621F731F841F48F400
:1057C000879577956795B795F7959E3F08F0B3CF86
:1057D0009395880F08F09927EE0F97958795089570
:1057E00040D008F481E00895E89409C097FB3EF4A6
:1057F00090958095709561957F4F8F4F9F4F99231E
:10580000A9F0F92F96E9BB279395F695879577959B
:105810006795B795F111F8CFFAF4BB0F11F460FF5B
:105820001BC06F5F7F4F8F4F9F4F16C0882311F0B3
:1058300096E911C0772321F09EE8872F762F05C0C7
:10584000662371F096E8862F70E060E02AF09A9562
:10585000660F771F881FDAF7880F9695879597F957
:105860000895990F0008550FAA0BE0E8FEEF1616F1
:105870001706E807F907C0F012161306E407F50744
:1058800098F0621B730B840B950B39F40A2661F0B8
:10589000232B242B252B21F408950A2609F4A1405B
:1058A000A6958FEF811D811D089597F99F6780E868
:1058B00070E060E008959FEF80EC089500240A9462
:1058C0001616170618060906089500240A941216DB
:1058D0001306140605060895092E0394000C11F40E
:1058E000882352F0BB0F40F4BF2B11F460FF04C0BB
:1058F0006F5F7F4F8F4F9F4F089557FD9058440F14
:10590000551F59F05F3F71F04795880F97FB991F1E
:1059100061F09F3F79F087950895121613061406DB
:10592000551FF2CF4695F1DF08C016161706180668
:10593000991FF1CF86957105610508940895E89443
:10594000BB2766277727CB0197F908958ADF08F4EC
:105950008FEF08950BD0C0CFB1DF28F0B6DF18F07D
:10596000952309F0A2CFA7CF1124EACFC6DFA0F379
:10597000959FD1F3950F50E0551F629FF001729FE4
:10598000BB27F00DB11D639FAA27F00DB11DAA1F03
:10599000649F6627B00DA11D661F829F2227B00D50
:1059A000A11D621F739FB00DA11D621F839FA00DDB
:1059B000611D221F749F3327A00D611D231F849F2B
:1059C000600D211D822F762F6A2F11249F57504082
:1059D0008AF0E1F088234AF0EE0FFF1FBB1F661F1D
:1059E000771F881F91505040A9F79E3F510570F0D6
:1059F0005CCFA6CF5F3FECF3983EDCF386957795BE
:105A00006795B795F795E7959F5FC1F7FE2B880FD0
:105A1000911D9695879597F9089597FB072E16F493
:105A2000009406D077FD08D035D007FC05D03EF4B1
:105A3000909581959F4F0895709561957F4F08953A
:105A4000A1E21A2EAA1BBB1BFD010DC0AA1FBB1F82
:105A5000EE1FFF1FA217B307E407F50720F0A21BF4
:105A6000B30BE40BF50B661F771F881F991F1A9461
:105A700069F760957095809590959B01AC01BD018B
:105A8000CF010895EE0FFF1F881F8BBF0790F6917F
:105A9000E02D1994AA1BBB1B51E107C0AA1FBB1F15
:105AA000A617B70710F0A61BB70B881F991F5A95AA
:105AB000A9F780959095BC01CD0108950F931F9390
:105AC000CF93DF93869F8001879F100D969F100DC7
:105AD0001124C8010DD0EC01009721F0A80160E06D
