:1000000027C100000C94461D0C94711D0C949C1D7E
:100010000C94C71D0C94F21D0C941D1E0C94481ECC
:100020000C94731E0C947E0C0C94520D0C948F0D3A
:1000300040C100000C94F4263CC100003AC100000D
:1000400038C1000036C1000034C1000032C10000D8
:1000500030C100002EC100002CC100000C949E1E77
:1000600028C100000C94F9210C942F2222C1000019
:1000700020C100001EC100001CC100001AC1000008
:1000800018C1000016C1000014C1000012C1000018
:100090000C9485220C94BB220CC10000BFC7000049
:1000A00008C1000006C1000004C1000002C1000038
:1000B00000C10000FEC00000FCC00000FAC000004B
:1000C000F8C00000F6C000000C947D270C941123AA
:1000D0000C944723EEC000000C949D230C94D32372
:1000E000E8C00000201DEA1CF21CFE1C0B1D2C1D8C
:1000F000391D7D1F821F871F911F9B1F1420A51F65
:10010000AD1FB51FBF1FC91FD31FE21FEC1F142057
:10011000F61F00200A2038203B202A202E203420E1
:1001200072203F20432049204D20512057205B2042
:100130005F207220652069206D2000000A0B0209F3
:100140000C0D0E0807030401000000000000000071
:10015000000000000000000000000000000000009F
:10016000000000000000121110000000000000005C
:10017000000000000000000000000000000000007F
:1001800001021020200808102040102040800201A9
:10019000020108040201010204081020408080408E
:1001A000201008040201800402018040201008048D
:1001B000020108040201010204081020408001022B
:1001C00004081020408005050505070508080808F3
:1001D000020202020A0A08080404040401010101DF
:1001E00001010101030303030303030304070707DA
:1001F0000C0C0C0C0C0C0C0C02020202060606067F
:10020000060606060B0B0B0B0B0B0B0B000022005C
:10021000250028002B002E003100340002010000D0
:10022000050108010B0100002100240027002A001D
:100230002D003000330001010000040107010A0114
:1002400002001707740B5822E4227023FC23682451
:1002500011241FBECFEFD1E2DEBFCDBF00E00CBF47
:1002600014E0A0E0B2E0EEE3F6E500E00BBF02C070
:1002700007900D92A837B107D9F729E0A8E7B4E0B5
:1002800001C01D92AE36B207E1F711E0C8E2D1E03D
:1002900000E006C021970109802FFE010E94152B66
:1002A000C132D10780E00807A9F70E94ED270C941E
:1002B0001D2BA6CE6F927F928F929F92AF92BF928C
:1002C000CF92DF92EF92FF920F931F93CF93DF9322
:1002D0001F92CDB7DEB7B62ED72E3A01F02E3E2DA7
:1002E000B401E22FF0E0E830F10511F4E4E0F0E0D1
:1002F000CC2049F091E0C91649F092E0C91649F0C6
:1003000002E010E008C00AE010E005C000E110E0E3
:1003100002C008E010E0813009F4FDC038F08230FE
:1003200009F412C2833009F428C34FC4F1100CC081
:10033000E69DA001E79D500DF69D500D11246B2DFB
:100340007D2D86E995E026C386E995E039830E94F4
:10035000B324398131111DC08B2C9D2C680C791C64
:100360008614970409F431C4E1E0A801FE1207C025
:10037000F401608186E995E00E94832506C0F401BE
:10038000608186E995E00E948925FFEF8F1A9F0A18
:10039000E7CF3130E9F48B2C9D2C6114710409F402
:1003A00014C481E0F40160817181A801F81205C0D4
:1003B00086E995E00E949E2504C086E995E00E94AA
:1003C000A325F1E06F1A710882E0880E911CE5CF39
:1003D0003230F9F48B2C9D2C6114710409F4F5C3AF
:1003E00091E0F40140815181628173819801F91299
:1003F00005C086E995E00E94772504C086E995E06E
:100400000E94B725F1E06F1A710884E0880E911CF4
:10041000E3CF3330F1F48B2C9D2C680C791C8614BF
:10042000970409F4D2C391E0F4016081062E000C18
:10043000770BA801F91205C086E995E00E944C25CA
:1004400004C086E995E00E945225FFEF8F1A9F0AAB
:10045000E6CF3430E9F48B2C9D2C6114710409F43F
:10046000B4C381E0F40160817181A801F81205C074
:1004700086E995E00E944C2504C086E995E00E943B
:100480005225F1E06F1A710882E0880E911CE5CFC9
:100490003530F9F48B2C9D2C6114710409F495C34B
:1004A00091E0F40140815181628173819801F912D8
:1004B00005C086E995E00E94052504C086E995E01F
:1004C0000E946725F1E06F1A710884E0880E911C84
:1004D000E3CF363009F079C30B2D1D2DB12C6114FB
:1004E000710409F472C391E0F80140815181628185
:1004F00073819501F91205C086E995E00E94952661
:1005000004C086E995E00E949626F1E06F1A710812
:100510000C5F1F4FE4CFF1100CC0E69DA001E79DDA
:10052000500DF69D500D11246B2D7D2D83E396E02B
:1005300031C283E396E039830E94B32439813111BB
:100540001BC08B2C9D2C680C791C8614970409F415
:100550003CC381E0A801F4016081F81205C083E387
:1005600096E00E94832504C083E396E00E948925DB
:10057000FFEF8F1A9F0AE9CF3130E9F48B2C9D2CC5
:100580006114710409F421C381E0F4016081718177
:10059000A801F81205C083E396E00E949E2504C0DE
:1005A00083E396E00E94A325F1E06F1A710882E0D0
:1005B000880E911CE5CF3230F9F48B2C9D2C611400
:1005C000710409F402C391E0F40140815181628118
:1005D00073819801F91205C083E396E00E947725A4
:1005E00004C083E396E00E94B725F1E06F1A71081A
:1005F00084E0880E911CE3CF3330F1F48B2C9D2CDA
:10060000680C791C8614970409F4DFC291E0F401A8
:100610006081062E000C770BA801F91205C083E358
:1006200096E00E944C2504C083E396E00E94522588
:10063000FFEF8F1A9F0AE6CF3430E9F48B2C9D2C04
:100640006114710409F4C1C281E0F4016081718117
:10065000A801F81205C083E396E00E944C2504C06F
:1006600083E396E00E945225F1E06F1A710882E060
:10067000880E911CE5CF3530F9F48B2C9D2C61143C
:10068000710409F4A2C291E0F401408151816281B8
:1006900073819801F91205C083E396E00E94052555
:1006A00004C083E396E00E946725F1E06F1A7108A9
:1006B00084E0880E911CE3CF363009F086C28B2C83
:1006C0009D2CB12C6114710409F47FC291E0F401F6
:1006D000F9121AC0C1100AC0408151816281738130
:1006E000950183E396E00E94952627C06081718181
:1006F000828193810E940429AB01BC01980183E3AC
:1007000096E00E94052519C0C1100AC040815181A0
:1007100062817381950183E396E00E9496260DC065
:1007200060817181828193810E940429AB01BC01A7
:10073000980183E396E00E946725F1E06F1A710843
:1007400084E0880E911CBECFF1100CC0E69DA00184
:10075000E79D500DF69D500D11246B2D7D2D80EDE4
:1007600096E018C180ED96E039830E94B324398168
:1007700031111BC08B2C9D2C680C791C861497049E
:1007800009F423C291E0A801F4016081F91205C0C7
:1007900080ED96E00E94832504C080ED96E00E94E3
:1007A0008925FFEF8F1A9F0AE9CF3130E9F48B2CAE
:1007B0009D2C6114710409F408C281E0F401608188
:1007C0007181A801F81205C080ED96E00E949E2577
:1007D00004C080ED96E00E94A325F1E06F1A710835
:1007E00082E0880E911CE5CF3230F9F48B2C9D2CE1
:1007F0006114710409F4E9C191E0F401408151816F
:10080000628173819801F91205C080ED96E00E9423
:10081000772504C080ED96E00E94B725F1E06F1ABD
:10082000710884E0880E911CE3CF3330F1F48B2CF7
:100830009D2C680C791C8614970409F4C6C191E0BC
:10084000F4016081062E000C770BA801F91205C097
:1008500080ED96E00E944C2504C080ED96E00E9459
:100860005225FFEF8F1A9F0AE6CF3430E9F48B2C24
:100870009D2C6114710409F4A8C181E0F401608128
:100880007181A801F81205C080ED96E00E944C2508
:1008900004C080ED96E00E945225F1E06F1A7108C5
:1008A00082E0880E911CE5CF3530F9F48B2C9D2C1D
:1008B0006114710409F489C191E0F401408151810E
:1008C000628173819801F91205C080ED96E00E9463
:1008D000052504C080ED96E00E946725F1E06F1ABF
:1008E000710884E0880E911CE3CF363009F06DC1A9
:1008F0008B2C9D2CB12C6114710409F466C191E01C
:10090000F401F9121AC0C1100AC0408151816281FC
:100910007381950180ED96E00E94952627C0608145
:100920007181828193810E940429AB01BC019801ED
:1009300080ED96E00E94052519C0C1100AC04081D3
:10094000518162817381950180ED96E00E94962627
:100950000DC060817181828193810E940429AB0165
:10096000BC01980180ED96E00E946725F1E06F1AC6
:10097000710884E0880E911CBECFF1101CC0E69D6A
:10098000A001E79D500DF69D500D11246B2D7D2D7E
:100990008DE697E00F90DF91CF911F910F91FF901F
:1009A000EF90DF90CF90BF90AF909F908F907F900F
:1009B0006F900C9473248DE697E039830E94B324E2
:1009C000398131111BC08B2C9D2C680C791C86142D
:1009D000970409F4FAC091E0A801F4016081F912CA
:1009E00005C08DE697E00E94832504C08DE697E060
:1009F0000E948925FFEF8F1A9F0AE9CF3130E9F471
:100A00008B2C9D2C6114710409F4DFC081E0F4018A
:100A100060817181A801F81205C08DE697E00E94FF
:100A20009E2504C08DE697E00E94A325F1E06F1A91
:100A3000710882E0880E911CE5CF3230F9F48B2CDE
:100A40009D2C6114710409F4C0C091E0F40140814F
:100A50005181628173819801F91205C08DE697E09A
:100A60000E94772504C08DE697E00E94B725F1E04B
:100A70006F1A710884E0880E911CE3CF3330F1F4D3
:100A80008B2C9D2C680C791C8614970409F49DC04E
:100A900091E0F4016081062E000C770BA801F91299
:100AA00005C08DE697E00E944C2504C08DE697E0D6
:100AB0000E945225FFEF8F1A9F0AE6CF3430E9F4E7
:100AC0008B2C9D2C6114710409F47FC081E0F4012A
:100AD00060817181A801F81205C08DE697E00E943F
:100AE0004C2504C08DE697E00E945225F1E06F1A74
:100AF000710882E0880E911CE5CF3530F9F48B2C1B
:100B00009D2C6114710409F460C091E0F4014081EE
:100B10005181628173819801F91205C08DE697E0D9
:100B20000E94052504C08DE697E00E946725F1E04C
:100B30006F1A710884E0880E911CE3CF363009F0FB
:100B400044C08B2C9D2CB12C61147104F1F191E007
:100B5000F401F9121AC0C1100AC0408151816281AA
:100B6000738195018DE697E00E94952627C06081EC
:100B70007181828193810E940429AB01BC0198019B
:100B80008DE697E00E94052519C0C1100AC040817A
:100B900051816281738195018DE697E00E949626CE
:100BA0000DC060817181828193810E940429AB0113
:100BB000BC0198018DE697E00E946725F1E06F1A6D
:100BC000710884E0880E911CBFCF0F90DF91CF9108
:100BD0001F910F91FF90EF90DF90CF90BF90AF905B
:100BE0009F908F907F906F9008958091A80490E0DF
:100BF0002091A904821B910908959091A9048091E4
:100C0000A804981750F4E92FF0E0E655FB4F208137
:100C100030E09F5F9093A90402C02FEF3FEFC9011E
:100C20000895E091A9048091A804E81730F4F0E059
:100C3000E655FB4F808190E008958FEF9FEF089578
:100C40000895CF92DF92EF92FF920F931F93CF936D
:100C5000DF937C01262F972F8A01809184048823BB
:100C600091F0C62FD72F6E01C40ED51ECC15DD0511
:100C700069F06991D701ED91FC910190F081E02D2F
:100C8000C7011995F3CF642F822F90D1C801DF914E
:100C9000CF911F910F91FF90EF90DF90CF9008952B
:100CA000CF93DF931F92CDB7DEB769832091840481
:100CB0002223D1F020918504203240F021E030E061
:100CC000FC013383228380E090E014C0809186048D
:100CD000E82FF0E0E957FB4F998190838F5F809375
:100CE00086048093850404C061E0CE0101965ED144
:100CF00081E090E00F90DF91CF910895FC01138285
:100D0000128288EE93E0A0E0B0E084839583A6830E
:100D1000B78380E394E09183808308951092A904BF
:100D20001092A804109286041092850483C081E07A
:100D3000809384046093A704109286041092850423
:100D400008950F93062F21E04091850467E874E031
:100D50008091A704D5D01092860410928504109239
:100D600084040F9108954F925F926F927F92AF9299
:100D7000BF92CF92EF92FF920F931F93CF93DF9387
:100D80005C01F62ED42F28013901EE2011F1CFDFBE
:100D9000CE2DC43008F0C3E0C150C0F0D501ED91B4
:100DA000FC91B8E0CB9FC0011124A301920104C0C3
:100DB00056954795379527958A95D2F7CA01B90177
:100DC0000190F081E02DC5011995E6CF60E0C501E5
:100DD000B8DF4D2FD13208F040E22C2D6AEA74E0E2
:100DE0008F2D46D01092A9048093A804DF91CF9153
:100DF0001F910F91FF90EF90CF90BF90AF907F9099
:100E00006F905F904F900895CF92EF920F931F9342
:100E1000C22EE12C00E010E09801A5DF1F910F9198
:100E2000EF90CF90089521E0EFCF61E08ACF88E77F
:100E300094E064CF1092370581E0809335051092DD
:100E4000340561E084E10E94AF2061E085E10E9409
:100E5000AF20E9EBF0E080818E7F808380818D7F01
:100E6000808388E48093B80085E48093BC00089573
:100E7000413208F043C0909137059111FCCF91E0C9
:100E800090933705209335052FEF2093CA041092D5
:100E90000F05240F20930E0590933605909136058B
:100EA000880F892B8093360580913405813061F459
:100EB00010923405809136058093BB008091BC0070
:100EC00083FDF8CF85EC01C085EE8093BC00809156
:100ED00037058130E1F380910F05841710F44091BC
:100EE0000F0520E135E0FB01D9018A2F821B841711
:100EF00018F48D918193F9CF842F089580E008959F
:100F00000F93413208F04AC0909137059111FCCF00
:100F100032E030933705009335053FEF3093CA0434
:100F200010920F0540930E05FB0160E175E0DB01B7
:100F30003A2F361B341718F431913D93F9CF1092A4
:100F4000360530913605880F832B809336058091C6
:100F50003405813061F41092340580913605809318
:100F6000BB008091BC0083FDF8CF85EC01C085EE0D
:100F70008093BC00222321F0809137058230D1F389
:100F80008091CA048F3F79F08091CA04803241F089
:100F90008091CA04803331F094E005C091E003C031
:100FA00092E001C093E0892F0F9108954091EC04E5
:100FB000262F30E0240F311D21323105DCF4209141
:100FC00037052430C9F4FC0180E090E0861758F41E
:100FD0003091EC042191DC01A251BB4FA30FB11D54
:100FE0002C930196F3CF8091EC04680F6093EC048E
:100FF00080E0089581E0089582E0089585ED809372
:10100000BC008091BC0084FDFCCF10923705089590
:1010100085EC8093BC001092370508951F920F92C3
:101020000FB60F9211240BB60F922F933F934F934D
:101030005F936F937F938F939F93AF93BF93EF9340
:10104000FF938091B900887F803609F49DC070F5C8
:10105000883209F45CC090F4803109F455C038F44A
:10106000882309F4F3C0883009F44EC0F2C08831F7
:1010700009F44DC0803209F45EC0EBC0803409F43D
:1010800069C050F4803309F456C0883309F0E1C0D8
:101090008093CA04BDDFDDC0803509F44FC08835B8
:1010A00009F45DC0883409F0D4C0D2C0883909F48D
:1010B000C3C0A8F4883709F467C038F4883609F447
:1010C00063C0803709F460C0C4C0883809F4B4C074
:1010D000803909F45FC0803809F0BBC05BC0803B39
:1010E00009F482C038F4803A09F466C0883A09F4F9
:1010F0007BC0AFC0803C09F4A3C0883C09F4A0C009
:10110000883B09F486C0A5C08091360510C0909137
:101110000F0580910E05981770F5E0910F0581E09D
:101120008E0F80930F05F0E0E05FFA4F808180938F
:10113000BB0085EC82C08093CA048AC0E0910F0591
:1011400081E08E0F80930F058091BB00F0E0E05F9F
:10115000FA4F808390910F0580910E056AC0E0914F
:101160000F0581E08E0F80930F058091BB00F0E0AA
:10117000E05FFA4F808380913505811169C081E07D
:101180008093340584EA5DC083E080933705109234
:10119000CB04CFCF8091CB04803208F04DC0E091DA
:1011A000CB0481E08E0F8093CB048091BB00F0E0F4
:1011B000E453FB4F8083BDCF2BDF8091CB04803283
:1011C00030F4E091CB04F0E0E453FB4F10826091E7
:1011D000CB0470E0E0913005F09131058CEC94E0A7
:1011E00019951092CB0435C084E080933705109296
:1011F000ED041092EC04E0913205F091330519955D
:101200008091EC04811105C081E08093EC04109280
:10121000EE04E091ED0481E08E0F8093ED04F0E0A8
:10122000E251FB4F80818093BB009091ED0480914F
:10123000EC04981708F47DCF85E88093BC0009C0C2
:1012400085EC8093BC001092370503C01092CA044D
:10125000D5DEFF91EF91BF91AF919F918F917F91DB
:101260006F915F914F913F912F910F900BBE0F9017
:101270000FBE0F901F901895EF92FF920F931F9340
:10128000CF93DF931F921F92CDB7DEB7062F142F97
:10129000682F88E794E029833A8349DD602F88E747
:1012A00094E0FEDC2981022FE22E3A81F32E8E2D6E
:1012B000801B811738F4F70161917F0188E794E082
:1012C000EFDCF5CF88E794E0B0DD91E0811190E0AC
:1012D000892F0F900F90DF91CF911F910F91FF9069
:1012E000EF900895CF93DF931F92CDB7DEB7498378
:1012F0009E012F5F3F4F41E0BFDF0F90DF91CF9105
:1013000008952F923F924F925F926F927F928F92A9
:101310009F92AF92BF92CF92DF92EF92FF920F9384
:101320001F93CF93DF9300D01F921F92CDB7DEB7EC
:10133000F82EE62E242E69010E94E81E4B015C0166
:10134000312C1D82822D90E09C838B832801612C9F
:10135000712C321408F04DC06F2D88E794E0E7DC63
:101360006E2D88E794E09CDC88E794E05EDD6F2DCD
:1013700088E794E0DCDC4B815C8143195109413200
:10138000510514F040E250E06F2D88E794E04BDD0A
:1013900088E794E02ADC892B11F10115110591F4FD
:1013A000F6012D81E20FF11D27FDFA95FA83E983FD
:1013B00088E794E022DCE981FA8180832D812F5F28
:1013C0002D83E6CF0E94E81EDC01CB018819990924
:1013D000AA09BB0984159505A605B70508F388E792
:1013E00094E023DD822D40E2421508F480E2380EBD
:1013F000B0CF01151105D1F00E94E81EDC01CB0130
:1014000088199909AA09BB0920E030E080179107E3
:10141000A207B30758F0822D90E0ED812E2FEE0F3A
:10142000330B2817390714F42FEF2D838D810F907C
:101430000F900F900F900F90DF91CF911F910F9110
:10144000FF90EF90DF90CF90BF90AF909F908F90E4
:101450007F906F905F904F903F902F9008950F93E3
:101460001F9389019A0141E04CDF1F910F9108956C
:10147000EF92FF920F931F93CF93DF931F92CDB7FD
:10148000DEB7182F062FF42EE22E20910A0230919B
:101490000B02AE014F5F5F4FE2DF9981EE2041F01A
:1014A00041E050E001C0440FFA94EAF7492B09C02B
:1014B00021E030E0A90101C0440FFA94EAF7409519
:1014C00049234983602F812F0DDF0F90DF91CF914A
:1014D0001F910F91FF90EF900895DF92EF92FF928E
:1014E0000F931F93CF93DF931F92CDB7DEB7182FC3
:1014F000F62EE42ED22E20910A0230910B02AE017C
:101500004F5F5F4FACDF882319F1EE2DF0E0ED194E
:10151000F109319621E030E002C0220F331FDA9446
:10152000E2F7215031090E2E01C0220F0A94EAF78A
:10153000802F01C0880FEA95EAF7422F40959981E4
:1015400049232823422B49836F2D812FCBDE01C0F5
:1015500080E00F90DF91CF911F910F91FF90EF905E
:10156000DF90089528E6FC01208308950F93062F4D
:1015700023E042E06AE1FC018081AFDF0F91089532
:101580000F93062F22E044E06BE1FC018081A5DF90
:101590000F9108950F93062F22E044E06CE1FC01C7
:1015A00080819BDF0F9108950F931F93CF93DF935B
:1015B000EC0100910A0210910B029C012F5F3F4F3A
:1015C00042E063E488819DDE298130E0322F2227CA
:1015D0008A81A901482BCA01DF91CF911F910F91F8
:1015E00008950F931F93CF93DF93EC0100910A02AC
:1015F00010910B029C012F5F3F4F42E065E4888110
:1016000080DE298130E0322F22278A81A901482BF0
:10161000CA01DF91CF911F910F9108950F931F93EE
:10162000CF93DF93EC0100910A0210910B029C0111
:101630002F5F3F4F42E067E4888163DE298130E01D
:10164000322F22278A81A901482BCA01DF91CF912D
:101650001F910F910895262F46E06BE6FC018081D3
:1016600007CF0F93062F23E042E06BE6FC01808159
:1016700034DF0F910895CF93DF93EC0161E0F1DF48
:1016800060E0CE017DDF60E0CE0184DF60E0CE016E
:10169000DF91CF91E0CFCF93DF931F92CDB7DEB72D
:1016A000682F88E794E0698339DB698188E395E0F6
:1016B0005DDF88E395E00F90DF91CF91DCCFCF9392
:1016C000DF93EC0188E395E06FDF9983888388E3FB
:1016D00095E087DF9B838A8388E395E09FDF9D8386
:1016E0008C83DF91CF91089588E395E03BCF9CB147
:1016F00095FB882780F994FF03C081110FC002C0B9
:10170000882361F080914B0590914C05A0914D0587
:10171000B0914E050196A11DB11D0BC080914B05E6
:1017200090914C05A0914D05B0914E050197A109EE
:10173000B10980934B0590934C05A0934D05B09350
:101740004E0508959CB194FB882780F995FF03C04E
:10175000882379F002C081110CC080914B059091D3
:101760004C05A0914D05B0914E050196A11DB11DEE
:101770000BC080914B0590914C05A0914D05B09107
:101780004E050197A109B10980934B0590934C0533
:10179000A0934D05B0934E05089599B193FB88270A
:1017A00080F992FF03C081110FC002C0882361F04D
:1017B0008091590590915A05A0915B05B0915C0507
:1017C0000196A11DB11D0BC08091590590915A053C
:1017D000A0915B05B0915C050197A109B1098093C7
:1017E000590590935A05A0935B05B0935C05089545
:1017F00099B192FB882780F993FF03C0882379F081
:1018000002C081110CC08091590590915A05A09198
:101810005B05B0915C050196A11DB11D0BC08091C7
:10182000590590915A05A0915B05B0915C0501970F
:10183000A109B1098093590590935A05A0935B05BE
:10184000B0935C0508952CB1822F807890E0880FCA
:10185000892F881F990B26FF03C0892B79F402C0BA
:10186000019761F48091670590916805A0916905E1
:10187000B0916A050196A11DB11D0BC0809167054D
:1018800090916805A0916905B0916A050197A10939
:10189000B1098093670590936805A0936905B0939B
:1018A0006A0508952CB126FB882780F990E027FF70
:1018B00003C0019779F402C0892B61F48091670518
:1018C00090916805A0916905B0916A050196A11DE6
:1018D000B11D0BC08091670590916805A0916905C5
:1018E000B0916A050197A109B109809367059093AA
:1018F0006805A0936905B0936A0508951F920F9239
:101900000FB60F9211242F933F934F935F936F93D2
:101910007F938F939F93AF93BF9383B185FB992759
:1019200090F9292F30E086FB882780F940918B05BC
:1019300050918C052417350779F5482F50E05093C6
:101940008A0540938905882359F0232B61F0409143
:10195000830550918405609185057091860566C068
:101960002130310561F48091830590918405A09127
:101970008505B09186050196A11DB11D35C0409128
:1019800083055091840560918505709186054150CD
:101990005109610971093FC030938C0520938B0573
:1019A0002130310551F58823A1F080918305909174
:1019B0008405A0918505B09186050196A11DB11DF4
:1019C0008093830590938405A0938505B093860545
:1019D00047C08091830590918405A0918505B091C1
:1019E00086050197A109B109809383059093840529
:1019F000A0938505B093860527C04091830550913B
:101A00008405609185057091860581110FC04F5F37
:101A10005F4F6F4F7F4F40938305509384056093D2
:101A20008505709386059923D9F00EC04150510960
:101A3000610971094093830550938405609385057E
:101A40007093860591110CC0809183059091840557
:101A5000A0918505B09186050196A11DB11D0BC011
:101A60008091830590918405A0918505B0918605AC
:101A70000197A109B1098093830590938405A093F0
:101A80008505B0938605BF91AF919F918F917F910E
:101A90006F915F914F913F912F910F900FBE0F90DB
:101AA0001F9018951F920F920FB60F9211248F93CB
:101AB0009F93AF93BF938091060181709091030132
:101AC00090FF03C081110FC002C0813061F480918A
:101AD000750590917605A0917705B09178050196EE
:101AE000A11DB11D0BC08091750590917605A09147
:101AF0007705B09178050197A109B1098093750523
:101B000090937605A0937705B0937805BF91AF9138
:101B10009F918F910F900FBE0F901F9018951F925D
:101B20000F920FB60F9211248F939F93AF93BF9391
:101B30008091030181709091060190FF03C0813074
:101B400079F402C081110CC08091750590917605E1
:101B5000A0917705B09178050196A11DB11D0BC02C
:101B60008091750590917605A0917705B0917805E3
:101B70000197A109B1098093750590937605A0930B
:101B80007705B0937805BF91AF919F918F910F909A
:101B90000FBE0F901F9018950F931F93CF93DF9355
:101BA0008C018EE0809FE001819FD00D1124C95BE4
:101BB000DA4F798368835B834A838881998160E007
:101BC0000E9473208A819B8160E00E94732088813B
:101BD000998161E00E94AF208A819B8161E00E942F
:101BE000AF200230110509F47FC044F4011511053E
:101BF000E9F00130110509F448C0BEC003301105F9
:101C000009F4A6C00430110509F0B6C0809168003F
:101C100081608093680080916B00806280936B008C
:101C200080916B00806480936B00A6C08091470513
:101C30009091480502978431910540F4FC01E45CE1
:101C4000FB4F8081082E000C990B02C08FEF9FEF95
:101C500041E050E067E77BE00E94D21C809149059B
:101C600090914A0502978431910540F4FC01E45CAF
:101C7000FB4F8081082E000C990B02C08FEF9FEF65
:101C800041E050E062EA7BE05DC0809155059091B3
:101C9000560502978431910540F4FC01E45CFB4F4A
:101CA0008081082E000C990B02C08FEF9FEF41E05E
:101CB00050E06DEC7BE00E94D21C80915705909122
:101CC000580502978431910540F4FC01E45CFB4F18
:101CD0008081082E000C990B02C08FEF9FEF41E02E
:101CE00050E068EF7BE02EC0809163059091640521
:101CF00002978431910540F4FC01E45CFB4F808144
:101D0000082E000C990B02C08FEF9FEF41E050E0CE
:101D100063E27CE00E94D21C80916505909166058B
:101D200002978431910540F4FC01E45CFB4F808113
:101D3000082E000C990B02C08FEF9FEF41E050E09E
:101D400062E57CE0DF91CF911F910F910C94D21C42
:101D50008091680084608093680080916800826050
:101D60008093680080916D00816080936D00809108
:101D70006C00826080936C00DF91CF911F910F9176
:101D800008952EE0269FF001279FF00D1124E95BB6
:101D9000FA4F64817581868197810895833009F4B3
:101DA0005DC028F4813051F0823071F1B5C08430CB
:101DB00009F466C0853009F489C0AEC06330A9F06B
:101DC00028F4613041F0623059F00895643091F0A8
:101DD0006530A9F0089580918100887F816025C0D9
:101DE0008091B100887F816027C080919100887FB9
:101DF0008160ADC08091A100887F8160AFC080917B
:101E00002101887F8160B1C06330C9F028F461305E
:101E100041F0623069F008956430B1F06530C9F086
:101E2000089580918100887F826080938100089569
:101E30008091B100887F82608093B1000895809185
:101E40009100887F826083C08091A100887F82603A
:101E500085C080912101887F826087C0633009F44A
:101E600072C038F4613009F464C0623009F466C0AD
:101E70000895643009F46EC0653009F472C00895A5
:101E80006330A9F028F4613041F0623059F00895D0
:101E9000643091F06530A9F0089580918100887FC9
:101EA0008460C3CF8091B100887F8460C5CF80916A
:101EB0009100887F84604BC08091A100887F8460FE
:101EC0004DC080912101887F84604FC06330A9F0AC
:101ED00028F4613041F0623059F00895643091F097
:101EE0006530A9F0089580918100887F85609DCF3D
:101EF0008091B100887F85609FCF80919100887F1D
:101F0000856025C08091A100887F856027C0809171
:101F10002101887F856029C06330A9F028F46130F1
:101F200041F0623059F008956430A1F06530C9F095
:101F3000089580918100887F836077CF8091B10080
:101F4000887F836079CF80919100887F83608093C0
:101F5000910008958091A100887F83608093A10003
:101F6000089580912101887F8360809321010895E5
:101F70001F93CF93DF931F92CDB7DEB7162F61E08B
:101F8000812F79830E947320812F7981972F0F9061
:101F9000DF91CF911F9108950895CF93C82FCB0162
:101FA000BA010E9404298C2FCF910C94561F6623EE
:101FB00011F061E001C060E00C947320662311F021
:101FC00061E001C060E00C94AF202F923F924F92ED
:101FD0005F926F927F928F929F92AF92BF92CF92B9
:101FE000DF92EF92FF920F931F93CF93DF93CDB7C2
:101FF000DEB7E4970FB6F894DEBF0FBECDBF61E049
:1020000070E080E090E0BDDE60935009709351096C
:1020100080935209909353090E94372920915803C5
:102020003091590340915A0350915B030E948C2ACE
:10203000209144033091450340914603509147035A
:102040000E948C2A6B017C0160932C0970932D09EE
:1020500080932E0990932F0920915C0330915D03AA
:1020600040915E0350915F030E948C2A6D8B7E8BA2
:102070008F8B988F609338097093390980933A0950
:1020800090933B092091B7083091B8084091B90866
:102090005091BA0829833A834B835C83209168036B
:1020A0003091690340916A0350916B0369817A8191
:1020B0008B819C810E948C2A69A37AA38BA39CA309
:1020C00060933409709335098093360990933709EA
:1020D0002091BF083091C0084091C1085091C208BA
:1020E00060917003709171038091720390917303FA
:1020F0000E948C2A20E030E0A9010E94342820E0D0
:1021000030E0A9010E94342820E030E0A9010E94BB
:10211000342869877A878B879C872091C308309100
:10212000C4084091C5085091C60860918C03709115
:102130008D0380918E0390918F030E948C2A20E062
:1021400030E0A9010E94342820E030E0A9010E947B
:10215000342820E030E0A9010E9434286DA37EA33A
:102160008FA398A760933009709331098093320947
:10217000909333092091C7083091C8084091C9084D
:102180005091CA086091A8037091A9038091AA0395
:102190009091AB030E948C2A20E030E0A9010E94BC
:1021A000342820E030E0A9010E9434286D87798B23
:1021B000898F9D8F2091CB083091CC084091CD081C
:1021C0005091CE086091C4037091C5038091C603FD
:1021D0009091C7030E948C2A29853A854B855C859E
:1021E00020933C0930933D0940933E0950933F09A9
:1021F0000D851989298D3D8D009340091093410962
:10220000209342093093430920E030E0A9010E9465
:1022100034286D837E838F839887609344097093FD
:10222000450980934609909347092091CF08309142
:10223000D0084091D1085091D2086091D00370919C
:10224000D1038091D2039091D3030E948C2A20E085
:1022500030E0A9010E9434282B013C012091F402B6
:102260003091F5024091F6025091F702C701B60194
:102270000E948C2A4B015C0120E030E0A901C301DF
:10228000B2010E9434289B01AC01C501B4010E9437
:10229000342869A77AA78BA79CA72091F8023091D0
:1022A000F9024091FA025091FB02C701B6010E9467
:1022B0008C2A4B015C012091D3083091D4084091C5
:1022C000D5085091D6086091E8037091E903809198
:1022D000EA039091EB030E948C2A20E030E0A901F0
:1022E0000E94342820E030E0A9010E9434289B019C
:1022F000AC01C501B4010E9434286DA77EA78FA749
:1023000098AB2091FC023091FD024091FE02509169
:10231000FF02C701B6010E948C2A4B015C0120918B
:10232000D7083091D8084091D9085091DA086091C7
:1023300000047091010480910204909103040E94B2
:102340008C2A20E030E0A9010E9434289B01AC01D6
:10235000C501B4010E9434282B013C0100E113E0C7
:102360002BED222E28E0322E1CAB0BAB0C5F1F4F47
:10237000ABA9BCA950962D913D914D915C9153977D
:102380006DA57EA58FA598A90E948C2A4B015C01A2
:10239000EBA9FCA9208131814281538169A57AA5ED
:1023A0008BA59CA50E948C2A9B01AC01C501B401A0
:1023B0000E9434284B015C01D8015C962D913D911F
:1023C0004D915C915F97C301B2010E948C2A9B01E1
:1023D000AC01C501B4010E9434284B015C01F80135
:1023E00074972081318142815381C701B6010E94D7
:1023F0008C2A9B01AC01C501B4010E943428F10173
:1024000061937193819391931F01F3E000321F0751
:1024100009F0AACF809119048130A9F5C09248092A
:10242000D0924909E0924A09F0924B092091B308F1
:102430003091B4084091B5085091B6086D897E89F5
:102440008F89988D0E94332860934C0970934D09B1
:1024500080934E0990934F092091BB083091BC089E
:102460004091BD085091BE0869A17AA18BA19CA1A1
:102470000E9433286D837E838F839887C980DA809A
:10248000EB80FC8055C0809118048130E9F42985E7
:102490003A854B855C8520934809309349094093E0
:1024A0004A0950934B098DA19EA1AFA1B8A5809375
:1024B0004C0990934D09A0934E09B0934F09CD84D8
:1024C000D988E98CFD8C34C08091DB089091DC08C0
:1024D000A091DD08B091DE088093480990934909E6
:1024E000A0934A09B0934B098091DF089091E008CE
:1024F000A091E108B091E20880934C0990934D09B6
:10250000A0934E09B0934F09C090E308D090E4081F
:10251000E090E508F090E6082091E7083091E8089F
:102520004091E9085091EA082D833E834F835887F4
:10253000209148093091490940914A0950914B092D
:1025400060917C0270917D0280917E0290917F0269
:102550000E948C2A4B015C0120914C0930914D095D
:1025600040914E0950914F09609180027091810213
:1025700080918202909183020E948C2A9B01AC017F
:10258000C501B4010E9434284B015C0120918402F2
:10259000309185024091860250918702B601C701B1
:1025A0000E948C2A9B01AC01C501B4010E94342811
:1025B0006B017C01209188023091890240918A024E
:1025C00050918B026D817E818F8198850E948C2A2B
:1025D0009B01AC01C701B6010E9434286B017C014C
:1025E00069817A818B819C819F7720E030E040E493
:1025F0005FE30E94982887FD04C020E030E0A90135
:1026000004C020E030E040E85FE3C701B6010E946B
:102610008C2A362E272E89839D8320E030E040E2ED
:1026200051E40E9434282DEC3CEC4CE455E40E942B
:102630008C2A0E94722960934809709349098093FB
:102640004A0990934B090E94B71C882349F01092C5
:1026500048091092490910924A0910924B0922C068
:10266000609148097091490980914A0990914B09FC
:102670000E948E1C8111EBCF60914809709149092D
:1026800080914A0990914B0920E030E040E857E4FE
:102690000E948C29609348097093490980934A09E4
:1026A00090934B09C0904809D0904909E0904A099D
:1026B000F0904B0920E030E0A901C701B6010E946B
:1026C000982887FF09C0C701B60190580E940929C0
:1026D00071956195710904C0C701B6010E9409296D
:1026E0007D8B69A320E030E040E251E460912C0949
:1026F00070912D0980912E0990912F090E94342804
:102700002DEC3CEC4CE455E40E948C2A0E9472298A
:10271000609348097093490980934A0990934B0943
:102720000E94B71C882349F0109248091092490969
:1027300010924A0910924B0922C060914809709189
:10274000490980914A0990914B090E948E1C811180
:10275000EBCF609148097091490980914A099091A5
:102760004B0920E030E040E857E40E948C29609358
:1027700048097093490980934A0990934B09C09086
:102780004809D0904909E0904A09F0904B0920E0AF
:1027900030E0A901C701B6010E94982887FF09C04F
:1027A000C701B60190580E94092971956195710978
:1027B00004C0C701B6010E9409297DA369AB20E0CE
:1027C00030E040E251E46091B7087091B808809120
:1027D000B9089091BA080E9434282DEC3CEC4CE4E6
:1027E00055E40E948C2A0E947229609348097093D4
:1027F000490980934A0990934B090E94B71C88238A
:1028000049F0109248091092490910924A09109211
:102810004B0922C0609148097091490980914A0989
:1028200090914B090E948E1C8111EBCF6091480959
:102830007091490980914A0990914B0920E030E05C
:1028400040E857E40E948C29609348097093490935
:1028500080934A0990934B09C0904809D090490948
:10286000E0904A09F0904B0920E030E0A901C7014F
:10287000B6010E94982887FF09C0C701B601905889
:102880000E94092971956195710904C0C701B601BB
:102890000E9409294B0120E030E040E251E46985C3
:1028A0007A858B859C850E9434282DEC3CEC4CE489
:1028B00055E40E948C2A0E94722960934809709303
:1028C000490980934A0990934B090E94B71C8823B9
:1028D00049F0109248091092490910924A09109241
:1028E0004B0922C0609148097091490980914A09B9
:1028F00090914B090E948E1C8111EBCF6091480989
:102900007091490980914A0990914B0920E030E08B
:1029100040E857E40E948C29609348097093490964
:1029200080934A0990934B09C0904809D090490977
:10293000E0904A09F0904B0920E030E0A901C7017E
:10294000B6010E94982887FF09C0C701B6019058B8
:102950000E94092971956195710904C0C701B601EA
:102960000E9409295B0120E030E040E251E46D85DE
:102970007989898D9D8D0E9434282DEC3CEC4CE4A6
:1029800055E40E948C2A0E94722960934809709332
:10299000490980934A0990934B09E9D7882349F064
:1029A000109248091092490910924A0910924B0955
:1029B00021C0609148097091490980914A0990911C
:1029C0004B09ACD78111ECCF60914809709149094E
:1029D00080914A0990914B0920E030E040E857E4AB
:1029E0000E948C29609348097093490980934A0991
:1029F00090934B09C0904809D0904909E0904A094A
:102A0000F0904B0920E030E0A901C701B6010E9417
:102A1000982887FF09C0C701B60190580E9409296C
:102A200071956195710904C0C701B6010E94092919
:102A3000172F698720E030E040E251E46091DB0825
:102A40007091DC088091DD089091DE080E943428A6
:102A50002DEC3CEC4CE455E40E948C2A0E94722937
:102A6000609348097093490980934A0990934B09F0
:102A70007ED7882349F01092480910924909109294
:102A80004A0910924B0921C0609148097091490987
:102A900080914A0990914B0941D78111ECCF609107
:102AA00048097091490980914A0990914B0920E0A9
:102AB00030E040E857E40E948C2960934809709305
:102AC000490980934A0990934B09C0904809D090D6
:102AD0004909E0904A09F0904B0920E030E0A90153
:102AE000C701B6010E94982887FF09C0C701B60137
:102AF00090580E94092971956195710904C0C70118
:102B0000B6010E940929072F6D8720E030E040E2DE
:102B100051E46091E3087091E4088091E508909198
:102B2000E6080E9434282DEC3CEC4CE455E40E946D
:102B30008C2A0E94722960934809709349098093F6
:102B40004A0990934B0913D7882349F010924809FA
:102B50001092490910924A0910924B0921C06091C4
:102B600048097091490980914A0990914B09D6D63C
:102B70008111ECCF609148097091490980914A090F
:102B800090914B0920E030E040E857E40E948C2906
:102B9000609348097093490980934A0990934B09BF
:102BA000C0904809D0904909E0904A09F0904B093B
:102BB00020E030E0A901C701B6010E94982887FFF4
:102BC00009C0C701B60190580E9409297195619505
:102BD000710904C0C701B6010E94092980911A0435
:102BE0008093FB083D893093FC0849A14093FD0880
:102BF0005DA15093FE0889A98093FF089092000977
:102C000080920109B0920209A0920309109304096D
:102C100099859093050900930609AD85A09307094E
:102C2000709308096093090960914F0870915008EA
:102C300080915108909152080E940929C62E6091F6
:102C40004708709148088091490890914A080E946D
:102C50000929E62E60914B0870914C0880914D082F
:102C600090914E080E940929062F609143087091A7
:102C7000440880914508909146080E940929262F12
:102C800060913F08709140088091410890914208FE
:102C90002AAB0E940929862F812C912C92E0A92E23
:102CA0002AA94FE050E06BEF78E00E945A01209192
:102CB000B7083091B8084091B9085091BA082987EF
:102CC0003A874B875C8780912C0990912D09A091C0
:102CD0002E09B0912F098D879E87AF87B88B00E0B2
:102CE00010E0D801A45FBD4FBE8BAD8BF801E5525B
:102CF000F74FFA8BE98BFD01E455FF4F20813181BD
:102D0000428153816DA57EA58FA598A90E948C2A2A
:102D10006B017C01ED89FE89E056FF4F20813181F6
:102D20004281538169A57AA58BA59CA50E948C2A16
:102D30009B01AC01C701B6010E9434286B017C01E4
:102D4000ED89FE89E854FF4F208131814281538112
:102D5000C301B2010E948C2A9B01AC01C701B601DC
:102D60000E9434286B017C01ED89FE89E452FF4FFB
:102D7000208131814281538169857A858B859C854B
:102D80000E948C2A4B015C01ED89FE89E053FF4FC4
:102D900020813181428153816D857E858F8598891F
:102DA0000E948C2A9B01AC01C501B4010E94342809
:102DB0004B015C01ED89FE89EC53FF4F208131818D
:102DC00042815381632D722D89819D810E948C2ABD
:102DD0009B01AC01C501B4010E9434289B01AC01E8
:102DE000C701B6010E943428A989BA899F966D93BC
:102DF0007D938D939C93D2970C5F1F4F0C301105E0
:102E000009F06FCF2D853E854F855889209316098F
:102E100030931709409318095093190989859A85A9
:102E2000AB85BC8580931A0990931B09A0931C095C
:102E3000B0931D09209144093091450940914609FC
:102E400050914709298B3A8B4B8B5C8B80914009C1
:102E500090914109A0914209B0914309898F9A8FBD
:102E6000AB8FBC8F209130093091310940913209EC
:102E7000509133092D8F3E8F4F8F58A380913C097D
:102E800090913D09A0913E09B0913F098D8B9E8B99
:102E9000AF8BB88F20917402309175024091760209
:102EA0005091770269897A898B899C890E948C2A42
:102EB0006B017C0120916C0230916D0240916E0299
:102EC00050916F02698D7A8D8B8D9C8D0E948C2A1A
:102ED0004B015C01209164023091650240916602D1
:102EE000509167026D8D7E8D8F8D98A10E948C2AE6
:102EF0002B013C0120915C0230915D0240915E0209
:102F000050915F026D897E898F89988D0E948C2AED
:102F10009B01AC01C301B2010E9434289B01AC01AA
:102F2000C501B4010E9434289B01AC01C701B60160
:102F30000E9434289B01AC016D857E858F85988920
:102F40000E9433286D877E878F87988B60931E0938
:102F500070931F0980932009909321092091780292
:102F60003091790240917A0250917B0269897A8985
:102F70008B899C890E948C2A6B017C0120917002B4
:102F8000309171024091720250917302698D7A8D75
:102F90008B8D9C8D0E948C2A4B015C0120916802D4
:102FA0003091690240916A0250916B026D8D7E8D65
:102FB0008F8D98A10E948C2A2B013C0120916002E8
:102FC0003091610240916202509163026D897E8965
:102FD0008F89988D0E948C2A9B01AC01C301B2019C
:102FE0000E9434289B01AC01C501B4010E94342821
:102FF0009B01AC01C701B6010E9434289B01AC01C2
:1030000069857A858B859C850E94332869877A87B4
:103010008B879C87609322097093230980932409EE
:1030200090932509ACE0B2E0BEA3ADA300E010E0B0
:10303000EDA1FEA120A931A942A953A969897A89E4
:103040008B899C890E948C2A6B017C01ADA1BEA159
:1030500090962D913D914D915C919397698D7A8DCC
:103060008B8D9C8D0E948C2A4B015C01EDA1FEA1F1
:1030700020893189428953896D8D7E8D8F8D98A1EC
:103080000E948C2A2B013C01ADA1BEA12D913D9146
:103090004D915C916D897E898F89988D0E948C2AD3
:1030A0009B01AC01C301B2010E9434289B01AC0119
:1030B000C501B4010E9434289B01AC01C701B601CF
:1030C0000E9434286B017C01F801E552F74FFAA306
:1030D000E9A3EDA1FEA1E05CFF4F20813181428197
:1030E0005381632D722D89819D810E948C2A4B0111
:1030F0005C01EDA1FEA1E057FF4F208131814281AB
:10310000538169857A858B859C850E948C2A2B0149
:103110003C01EDA1FEA1E058FF4F208131814281A9
:1031200053816D857E858F8598890E948C2A9B01AD
:10313000AC01C301B2010E9434289B01AC01C5015E
:10314000B4010E943428A70196010E943428A9A145
:10315000BAA150966D937D938D939C9353970C5F7A
:103160001F4FEDA1FEA13496FEA3EDA30031110582
:1031700009F05ECFC0924809D0924909E0924A090D
:10318000F0924B0986E299E00E945F0B609126095C
:1031900070912709072E000C880B990B0E94372984
:1031A0004B015C01C0905403D0905503E09056034E
:1031B000F0905703A70196016091590870915A0841
:1031C00080915B0890915C080E949828882341F0C8
:1031D000C0925908D0925A08E0925B08F0925C08BD
:1031E00020910C0430910D0440910E0450910F0475
:1031F000632D722D89819D810E949828682F661FFA
:103200006627661F88E00E94DE0F00915003109130
:103210005103F0905203E090530398014F2D5E2D1F
:10322000632D722D89819D810E94882A18169CF039
:103230000091100410911104F0901204E090130416
:1032400098014F2D5E2D632D722D89819D810E94E5
:10325000982887FF04C0302E212EF982ED8220911C
:103260001404309115044091160450911704632DF5
:10327000722D89819D810E948C2A0E9472296093FF
:1032800048097093490980934A0990934B096FD379
:10329000882349F0109248091092490910924A096E
:1032A00010924B0921C060914809709149098091A1
:1032B0004A0990914B0932D38111ECCF60914809B2
:1032C0007091490980914A0990914B0920E030E0C2
:1032D00040E853E40E948C2960934809709349099F
:1032E00080934A0990934B09C0904809D0904909AE
:1032F000E0904A09F0904B0920E030E0A901C701B5
:10330000B6010E94982887FF07C0C701B6019058F0
:103310000E940929619504C0C701B6010E940929CC
:1033200070E080E090E00E943729AB01BC01809101
:103330006508909166080E94CD0F809138099091A0
:103340003909A0913A09B0913B098093B308909351
:10335000B408A093B508B093B6082091400330910B
:1033600041034091420350914303C501B4010E94BF
:103370003328209108043091090440910A045091A7
:103380000B040E948C2A20916003309161034091CC
:103390006203509163030E948C2A9B01AC016091EF
:1033A000B7087091B8088091B9089091BA080E9446
:1033B00034286093B7087093B8088093B908909345
:1033C000BA088091340990913509A0913609B091DD
:1033D00037098093BB089093BC08A093BD08B093B5
:1033E000BE082091BF083091C0084091C10850919B
:1033F000C20860916C0370916D0380916E0390918F
:103400006F030E948C2A9B01AC016091EB087091C4
:10341000EC088091ED089091EE080E9434286093AA
:10342000BF087093C0088093C1089093C208209190
:10343000C3083091C4084091C5085091C6086091F6
:1034400088037091890380918A0390918B030E9475
:103450008C2A9B01AC016091EF087091F00880917B
:10346000F1089091F2080E9434286093C308709389
:10347000C4088093C5089093C6082091C70830916E
:10348000C8084091C9085091CA086091A40370917E
:10349000A5038091A6039091A7030E948C2A9B010B
:1034A000AC016091F3087091F4088091F508909157
:1034B000F6080E9434286093C7087093C808809368
:1034C000C9089093CA082091CB083091CC0840914C
:1034D000CD085091CE086091C0037091C1038091D6
:1034E000C2039091C3030E948C2A9B01AC0160919E
:1034F000F7087091F8088091F9089091FA080E94F5
:1035000034286093CB087093CC088093CD089093B7
:10351000CE082091CF083091D0084091D108509129
:10352000D2086091CC037091CD038091CE0390912D
:10353000CF030E948C2A9B01AC0160910A09709113
:103540000B0980910C0990910D090E943428609319
:10355000CF087093D0088093D1089093D20820911F
:10356000D3083091D4084091D5085091D608609185
:10357000E4037091E5038091E6039091E7030E94D4
:103580008C2A9B01AC0160910E0970910F0980910A
:103590001009909111090E9434286093D308709308
:1035A000D4088093D5089093D6082091D7083091FD
:1035B000D8084091D9085091DA086091FC037091C5
:1035C000FD038091FE039091FF030E948C2A9B01D2
:1035D000AC016091120970911309809114099091C6
:1035E00015090E9434286093D7087093D8088093F7
:1035F000D9089093DA08E4960FB6F894DEBF0FBEB0
:10360000CDBFDF91CF911F910F91FF90EF90DF9091
:10361000CF90BF90AF909F908F907F906F905F9072
:103620004F903F902F900895BF92CF92DF92EF92EC
:10363000FF920F931F93CF93DF9384E090E037D1F5
:103640001092550910925409CBE1D8E080ECFE01AC
:1036500011928A95E9F7C12CD12C7601C394C092BE
:10366000A808D092A908E092AA08F092AB0842E11B
:1036700050E063E170E081E090E00E94CC0D63E0F7
:1036800081E00E94CE0EBB24B394B092AC08C882F5
:10369000D982EA82FB821CA21DA21EA21FA280E088
:1036A00090E0A0E8BFE388A799A7AAA7BBA71CA69C
:1036B0001DA61EA61FA618AA19AA1AAA1BAA1CAAEA
:1036C0001DAA1EAA1FAA1092AD0802EB18E0F8016D
:1036D0001082C092AE08D092AF08E092B008F0928B
:1036E000B10880E090E00E944B0BF801B08218AE68
:1036F0008091540390915503A0915603B0915703C4
:103700008093590890935A08A0935B08B0935C0883
:1037100010925808C9AEDAAEEBAEFCAE61E088E0BC
:103720000E94D70FB092580810925D08E7E6F8E0C3
:1037300022E3208393E39093680884E380936908ED
:1037400085E380936A0886E380936B0887E3809320
:103750006C0888E380936D0889E380936E0881E3A9
:1037600080936F0830E330937008809371088093E2
:10377000720880937308209374088093750890935F
:103780007608F0936408E0936308C2E6D8E01882F4
:10379000C0925E08D0925F08E0926008F0926108E3
:1037A000E12CF12C8701A801970166E070E080E030
:1037B00090E00E94B80F90936608809365080E947D
:1037C000CC0FB8828091480390914903A0914A039D
:1037D000B0914B038093B3089093B408A093B508BD
:1037E000B093B6088091640390916503A09166033D
:1037F000B09167038093B7089093B808A093B90875
:10380000B093BA0880914C0390914D03A0914E0360
:10381000B0914F038093BB089093BC08A093BD0860
:10382000B093BE08DF91CF911F910F91FF90EF9061
:10383000DF90CF90BF9008958091A708811103C0B9
:1038400081E08093A7088091AD08811103C081E0D9
:103850008093AD0880915308811103C081E080936B
:10386000530880915D08811103C081E080935D0859
:10387000089560E070E080E89FE7089560E070E000
:1038800080E89FE7089560E070E080E89FEF08958A
:1038900060E070E080E89FEF089560E070E080EC09
:1038A0009FEF089560E070E080EC9FEF0895F5DFF2
:1038B000609362097093630980936409909365092A
:1038C000F1DF6093560970935709809358099093DC
:1038D0005909CFDF60935E0970935F098093600997
:1038E00090936109CBDF60935A0970935B098093D1
:1038F0005C0990935D09C7DF60936609709367095F
:103900008093680990936909C3DF60936A09709393
:103910006B0980936C0990936D090895CF92DF92A3
:10392000EF92FF92CF936B017C0120915A09309165
:103930005B0940915C0950915D090E949828C1E0A3
:10394000882371F020916A0930916B0940916C09CC
:1039500050916D09C701B6010E9498288111C0E0FD
:103960008C2FCF91FF90EF90DF90CF9008950F9321
:103970001F938B019C010027112720783F770115A9
:10398000110520483F4749F4AB01BC016F77772709
:1039900081E0452B462B472B09F480E01F910F91C6
:1039A00008950895883008F070C0A82FB0E0AA0FDD
:1039B000BB1FA55EBB4F11967C936E9390E0FC01FC
:1039C0003197E730F105A0F58827EE58FF4F8F4F6C
:1039D0000C94152B809169008C7F482B40936900D3
:1039E000E89A089580916900440F551F440F551FB0
:1039F000837F482B40936900E99A0895809169007C
:103A000074E0440F551F7A95E1F78F7C482B409363
:103A10006900EA9A08958091690066E0440F551F95
:103A20006A95E1F78F73482B40936900EB9A0895EC
:103A300080916A008C7F482B40936A00EC9A08952D
:103A400080916A00440F551F440F551F837F482BF8
:103A500040936A00ED9A089580916A0024E0440F33
:103A6000551F2A95E1F78F7C482B40936A00EE9A08
:103A7000089580916A0096E0440F551F9A95E1F7EA
:103A80008F73482B40936A00EF9A08951F920F920C
:103A90000FB60F9211240BB60F922F933F934F93B3
:103AA0005F936F937F938F939F93AF93BF93EF93A6
:103AB000FF93E0911F04F09120041995FF91EF917D
:103AC000BF91AF919F918F917F916F915F914F9136
:103AD0003F912F910F900BBE0F900FBE0F901F9034
:103AE00018951F920F920FB60F9211240BB60F92DA
:103AF0002F933F934F935F936F937F938F939F93F6
:103B0000AF93BF93EF93FF93E0912104F0912204D0
:103B10001995FF91EF91BF91AF919F918F917F91F7
:103B20006F915F914F913F912F910F900BBE0F902E
:103B30000FBE0F901F9018951F920F920FB60F9205
:103B400011240BB60F922F933F934F935F936F9374
:103B50007F938F939F93AF93BF93EF93FF93E091E6
:103B60002304F09124041995FF91EF91BF91AF9137
:103B70009F918F917F916F915F914F913F912F9185
:103B80000F900BBE0F900FBE0F901F9018951F92B5
:103B90000F920FB60F9211240BB60F922F933F93F3
:103BA0004F935F936F937F938F939F93AF93BF9345
:103BB000EF93FF93E0912504F09126041995FF916E
:103BC000EF91BF91AF919F918F917F916F915F9195
:103BD0004F913F912F910F900BBE0F900FBE0F9002
:103BE0001F9018951F920F920FB60F9211240BB6CB
:103BF0000F922F933F934F935F936F937F938F9386
:103C00009F93AF93BF93EF93FF93E0911B04F091C9
:103C10001C041995FF91EF91BF91AF919F918F91E6
:103C20007F916F915F914F913F912F910F900BBEBC
:103C30000F900FBE0F901F9018951F920F920FB606
:103C40000F9211240BB60F922F933F934F935F93D4
:103C50006F937F938F939F93AF93BF93EF93FF9354
:103C6000E0911D04F0911E041995FF91EF91BF9111
:103C7000AF919F918F917F916F915F914F913F9104
:103C80002F910F900BBE0F900FBE0F901F901895A5
:103C90001F920F920FB60F9211240BB60F922F9313
:103CA0003F934F935F936F937F938F939F93AF93C4
:103CB000BF93EF93FF93E0912704F09128041995A7
:103CC000FF91EF91BF91AF919F918F917F916F91F4
:103CD0005F914F913F912F910F900BBE0F900FBEB0
:103CE0000F901F9018951F920F920FB60F921124EC
:103CF0000BB60F922F933F934F935F936F937F93E6
:103D00008F939F93AF93BF93EF93FF93E091290419
:103D1000F0912A041995FF91EF91BF91AF919F9176
:103D20008F917F916F915F914F913F912F910F9064
:103D30000BBE0F900FBE0F901F9018951F920F9201
:103D40000FB60F9211242F933F938F939F93AF93AE
:103D5000BF9380918E0590918F05A0919005B091B1
:103D6000910530918D0523E0230F2D3720F4019626
:103D7000A11DB11D05C026E8230F0296A11DB11D8E
:103D800020938D0580938E0590938F05A0939005C9
:103D9000B09391058091920590919305A09194051F
:103DA000B09195050196A11DB11D80939205909348
:103DB0009305A0939405B0939505BF91AF919F9102
:103DC0008F913F912F910F900FBE0F901F901895DC
:103DD0002FB7F89460918E0570918F0580919005B2
:103DE000909191052FBF0895789484B5826084BD29
:103DF00084B5816084BD85B5826085BD85B58160EF
:103E000085BDEEE6F0E0808181608083E1E8F0E04E
:103E10001082808182608083808181608083E0E87D
:103E2000F0E0808181608083E1EBF0E0808184605C
:103E30008083E0EBF0E0808181608083E1E9F0E065
:103E4000808182608083808181608083E0E9F0E00E
:103E5000808181608083E1EAF0E0808182608083FC
:103E6000808181608083E0EAF0E0808181608083EE
:103E7000E1E2F1E0808182608083808181608083E3
:103E8000E0E2F1E0808181608083EAE7F0E0808118
:103E90008460808380818260808380818160808370
:103EA0008081806880831092C10008951F93CF9312
:103EB000DF93182FEB0161E016D1209711F460E039
:103EC00004C0CF3FD10531F461E0812FDF91CF9164
:103ED0001F9145C1E12FF0E0E65CFE4FE4914E2FCB
:103EE00050E0FA013197E231F10508F09DC08827D2
:103EF000E758FF4F8F4F0C94152B84B5806884BD15
:103F0000C7BD97C084B5806284BDC8BD92C0809192
:103F10008000806880938000D0938900C0938800DF
:103F200088C080918000806280938000D0938B0055
:103F3000C0938A007EC0809180008860809380005A
:103F4000D0938D00C0938C0074C08091B0008068C5
:103F50008093B000C093B3006CC08091B0008062C9
:103F60008093B000C093B40064C0809190008068DA
:103F700080939000D0939900C09398005AC080918C
:103F80009000806280939000D0939B00C0939A0031
:103F900050C080919000886080939000D0939D00E5
:103FA000C0939C0046C08091A00080688093A000D0
:103FB0008091A0008F7B8093A000D093A900C09334
:103FC000A80037C08091A00080628093A000D093A9
:103FD000AB00C093AA002DC08091A00088608093A0
:103FE000A000D093AD00C093AC0023C0809120010D
:103FF000806880932001D0932901C093280119C0C3
:1040000080912001806280932001D0932B01C09386
:104010002A010FC080912001886080932001D093F5
:104020002D01C0932C0105C0C038D1050CF04CCF38
:1040300046CFDF91CF911F91089590E0FC01319719
:10404000E231F10508F04EC08827E557FF4F8F4F4A
:104050000C94152B809180008F7703C08091800095
:104060008F7D80938000089580918000877FF9CFB5
:1040700084B58F7702C084B58F7D84BD089580910B
:10408000B0008F7703C08091B0008F7D8093B00027
:104090000895809190008F7707C0809190008F7D68
:1040A00003C080919000877F809390000895809155
:1040B000A0008F7707C08091A0008F7D03C0809102
:1040C000A000877F8093A0000895809120018F77C2
:1040D00007C0809120018F7D03C080912001877FE0
:1040E000809320010895CF93DF9390E0FC01E05886
:1040F000FE4F2491FC01EA53FE4F8491882361F125
:1041000090E0880F991FFC01EA5DFD4FC591D491A5
:10411000FC01E45FFD4FA591B491611109C09FB707
:10412000F8948881209582238883EC912E230BC0FC
:10413000623061F49FB7F8943881822F8095832391
:104140008883EC912E2B2C939FBF06C08FB7F894D9
:10415000E8812E2B28838FBFDF91CF9108951F9385
:10416000CF93DF93282F30E0F901E65CFE4F849176
:10417000F901E058FE4FD491F901EA53FE4FC49182
:10418000CC23C1F0162F811158DFEC2FF0E0EE0F99
:10419000FF1FE45FFD4FA591B4918FB7F894111103
:1041A00005C09C91ED2FE095E92302C0EC91ED2B29
:1041B000EC938FBFDF91CF911F910895FC01918DFA
:1041C000228D892F90E0805C9F4F821B91098F7315
:1041D00099270895FC01918D828D981731F0828D79
:1041E000E80FF11D858D90E008958FEF9FEF089502
:1041F000FC01918D828D981761F0828DDF01A80FEF
:10420000B11D5D968C91928D9F5F9F73928F90E010
:1042100008958FEF9FEF0895FC01848DDF01A80FB3
:10422000B11DA35ABF4F2C91848D90E001968F73DE
:104230009927848FA689B7892C93A089B1898C91FD
:1042400080648C93938D848D981306C00288F389C3
:10425000E02D80818F7D80830895CF93DF93EC01E3
:10426000888D8823C1F0EA89FB89808185FD05C09E
:10427000A889B9898C9186FD0EC00FB607FCF5CFD1
:10428000808185FFF2CFA889B9898C9185FFEDCF18
:10429000CE01C2DFE8CFDF91CF910895EF92FF9278
:1042A0000F931F93CF93DF93EC0181E0888F9B8D59
:1042B0008C8D981305C0E889F989808185FD23C01C
:1042C000F62E0B8D10E00F5F1F4F0F731127E02E9E
:1042D0008C8DE8120BC00FB607FCFACFE889F9897C
:1042E000808185FFF5CFCE0197DFF2CF8B8DFE0168
:1042F000E80FF11DE35AFF4FF0820B8FEA89FB892B
:104300008081806207C0EE89FF896083E889F9892E
:1043100080818064808381E090E0DF91CF911F9164
:104320000F91FF90EF900895CF92DF92EF92FF925E
:104330001F93CF93DF93EC016A017B01122FE88971
:10434000F98982E080834115514E61057105B1F014
:1043500060E079E08DE390E0A70196010E94F32AE6
:10436000DA01C9010197A109B109B695A7959795F9
:104370008795AC01411580E15807A8F0E889F989D3
:10438000108260E874E88EE190E0A70196010E9437
:10439000F32ABA01A90141505109610971097695C1
:1043A000679557954795EC85FD855083EE85FF858C
:1043B0004083188EEC89FD891083EA89FB8980810E
:1043C00080618083EA89FB89808188608083EA89B3
:1043D000FB89808180688083EA89FB8980818F7D69
:1043E0008083DF91CF911F91FF90EF90DF90CF906E
:1043F00008951F920F920FB60F9211240BB60F92D1
:104400002F938F939F93EF93FF93E091A605F091E5
:10441000A7058081E091AC05F091AD0582FD12C049
:1044200090818091AF058F5F8F732091B0058217C7
:1044300051F0E091AF05F0E0EA56FA4F958F809386
:10444000AF0501C08081FF91EF919F918F912F91D6
:104450000F900BBE0F900FBE0F901F9018951F92DC
:104460000F920FB60F9211240BB60F922F933F931A
:104470004F935F936F937F938F939F93AF93BF936C
:10448000EF93FF9386E995E0C7DEFF91EF91BF912F
:10449000AF919F918F917F916F915F914F913F91DC
:1044A0002F910F900BBE0F900FBE0F901F9018957D
:1044B000E6E9F5E01382128288EE93E0A0E0B0E036
:1044C00084839583A683B78386E594E09183808374
:1044D00085EC90E09587848784EC90E097878687C9
:1044E00080EC90E0918B808B81EC90E0938B828BC1
:1044F00082EC90E0958B848B86EC90E0978B868B9A
:10450000118E128E138E148E08951F920F920FB675
:104510000F9211240BB60F922F938F939F93EF93CB
:10452000FF93E0914306F09144068081E0914906B3
:10453000F0914A0682FD12C0908180914C068F5FF7
:104540008F7320914D06821751F0E0914C06F0E0F8
:10455000ED5CF94F958F80934C0601C08081FF91EF
:10456000EF919F918F912F910F900BBE0F900FBEE7
:104570000F901F9018951F920F920FB60F92112453
:104580000BB60F922F933F934F935F936F937F934D
:104590008F939F93AF93BF93EF93FF9383E396E043
:1045A0003BDEFF91EF91BF91AF919F918F917F91F2
:1045B0006F915F914F913F912F910F900BBE0F9094
:1045C0000FBE0F901F901895E3E3F6E0138212825E
:1045D00088EE93E0A0E0B0E084839583A683B78360
:1045E00086E594E0918380838DEC90E095878487C5
:1045F0008CEC90E09787868788EC90E0918B808B9D
:1046000089EC90E0938B828B8AEC90E0958B848B85
:104610008EEC90E0978B868B118E128E138E148EFB
:1046200008951F920F920FB60F9211240BB60F929E
:104630002F938F939F93EF93FF93E091E006F09178
:10464000E1068081E091E606F091E70682FD12C066
:1046500090818091E9068F5F8F732091EA0682171F
:1046600051F0E091E906F0E0E053F94F958F809327
:10467000E90601C08081FF91EF919F918F912F9169
:104680000F900BBE0F900FBE0F901F9018951F92AA
:104690000F920FB60F9211240BB60F922F933F93E8
:1046A0004F935F936F937F938F939F93AF93BF933A
:1046B000EF93FF9380ED96E0AFDDFF91EF91BF9117
:1046C000AF919F918F917F916F915F914F913F91AA
:1046D0002F910F900BBE0F900FBE0F901F9018954B
:1046E000E0EDF6E01382128288EE93E0A0E0B0E005
:1046F00084839583A683B78386E594E09183808342
:1047000085ED90E09587848784ED90E09787868794
:1047100080ED90E0918B808B81ED90E0938B828B8C
:1047200082ED90E0958B848B86ED90E0978B868B65
:10473000118E128E138E148E08951F920F920FB643
:104740000F9211240BB60F922F938F939F93EF9399
:10475000FF93E0917D07F0917E078081E0918307D0
:10476000F091840782FD12C09081809186078F5F4F
:104770008F7320918707821751F0E0918607F0E050
:10478000E359F84F958F8093860701C08081FF9190
:10479000EF919F918F912F910F900BBE0F900FBEB5
:1047A0000F901F9018951F920F920FB60F92112421
:1047B0000BB60F922F933F934F935F936F937F931B
:1047C0008F939F93AF93BF93EF93FF938DE697E003
:1047D00023DDFF91EF91BF91AF919F918F917F91D9
:1047E0006F915F914F913F912F910F900BBE0F9062
:1047F0000FBE0F901F901895EDE6F7E0138212821E
:1048000088EE93E0A0E0B0E084839583A683B7832D
:1048100086E594E09183808385E391E095878487A2
:1048200084E391E09787868780E391E0918B808B8A
:1048300081E391E0938B828B82E391E0958B848B73
:1048400086E391E0978B868B118E128E138E148ED9
:1048500008958F929F92AF92BF92CF92DF92EF9284
:10486000FF920F931F93CF93DF937C018B016C0119
:1048700082E0C80ED11C4701E5E08E0E911CC0E01D
:10488000D0E0F60161916F014AE050E0C8013BD1F0
:104890005C016EE2C80168D08A0D9B1DC80FD91F4C
:1048A000C814D90471F74AE050E0F7016581C801E6
:1048B0002AD18C0F9D1FDF91CF911F910F91FF90F7
:1048C000EF90DF90CF90BF90AF909F908F90089522
:1048D000EAE0F8E086E694E0918380831282138216
:1048E000148215820895CF92DF92EF92FF920F9378
:1048F0001F93CF93DF936C017A018B01C0E0D0E06E
:10490000CE15DF0589F0D8016D918D01D601ED91AD
:10491000FC910190F081E02DC6011995892B11F4CD
:104920007E0102C02196ECCFC701DF91CF911F918C
:104930000F91FF90EF90DF90CF9008956115710572
:1049400079F0FB0101900020E9F73197AF01461B98
:10495000570BDC01ED91FC910280F381E02D19945D
:1049600080E090E00895EACFDC01ED91FC910190A8
:10497000F081E02D199468E674E0E0CF4F925F92E9
:104980006F927F92EF92FF920F931F93CF93DF93DB
:10499000CDB7DEB7A1970FB6F894DEBF0FBECDBF7F
:1049A0007C01FA01CB0119A2223008F42AE08E0121
:1049B0000F5D1F4F422E512C612C712CBF01A301A2
:1049C000920111D6F901CA01015011096A3014F49B
:1049D000605D01C0695CD8016C93232B242B252BCF
:1049E00069F7B801C701AADFA1960FB6F894DEBF38
:1049F0000FBECDBFDF91CF911F910F91FF90EF9030
:104A00007F906F905F904F900895CF92DF92EF92DA
:104A1000FF920F931F93CF93DF93EC016A017B0109
:104A20002115310579F4E881F9810190F081E02DBB
:104A3000642FDF91CF911F910F91FF90EF90DF9046
:104A4000CF9019942A303105D9F477FF18C06DE260
:104A50008BDF8C0144275527BA014C195D096E097B
:104A60007F092AE0CE018ADF800F911FDF91CF916D
:104A70001F910F91FF90EF90DF90CF9008952AE063
:104A8000B701A601CE01DF91CF911F910F91FF9049
:104A9000EF90DF90CF9072CF9A01AB01770F660B4A
:104AA000770BB3CF0F931F93CF93DF93EC019A0152
:104AB000AB01770F660B770BA8DF8C01CE015BDFB4
:104AC000800F911FDF91CF911F910F9108950F9348
:104AD0001F93CF93DF93EC0198DF8C01CE014BDF66
:104AE000800F911FDF91CF911F910F910895211594
:104AF000310541F4DC01ED91FC910190F081E02D54
:104B0000642F19943BCF9A01462F50E060E070E08B
:104B1000EECF0F931F93CF93DF93EC019A01462FB3
:104B200050E060E070E0E3DF8C01CE0124DF800F15
:104B3000911FDF91CF911F910F9108959A01AB01C1
:104B400060E070E0D4CF0F931F93CF93DF93EC011D
:104B50009A01AB0160E070E0CADF8C01CE010BDF8F
:104B6000800F911FDF91CF911F910F9108950F93A7
:104B70001F93CF93DF93EC01BADF8C01CE01FBDEF4
:104B8000800F911FDF91CF911F910F9108954F9248
:104B90005F926F927F928F929F92AF92BF92CF92CD
:104BA000DF92EF92FF92CF93DF93EC016A017B01DA
:104BB000B22E9A01AB01C701B60111D5882319F0B5
:104BC0006BE674E024C026013701E89477F82FEFF4
:104BD0003FEF4FE75FE7C301B20101D581110CC080
:104BE0002FEF3FEF4FE75FE7C301B201A1D21816E5
:104BF0001CF46FE674E00BC02FEF3FEF4FE75FE46C
:104C0000C701B60185D4181694F463E774E0CE01A9
:104C1000DF91CF91FF90EF90DF90CF90BF90AF905A
:104C20009F908F907F906F905F904F9087CE2FEFE7
:104C30003FEF4FE75FECC701B6017AD287FDE5CFC2
:104C400020E030E0A901C701B60172D287FF09C098
:104C50006DE2CE0189DE4C01F7FAF094F7F8F0949A
:104C600002C0812C912CA12C60E070E080E09FE3D9
:104C7000AB1439F020E030E040E251E45DD2A3947F
:104C8000F7CF9B01AC01C701B601EED12B013C016E
:104C9000C0D26B017C01E9D29B01AC01C301B2011E
:104CA000E2D12B013C012AE0B701A601CE0166DE6C
:104CB0007C01E80CF91CBB2029F06EE2CE0154DE29
:104CC000E80EF91EDB2CDD2001F120E030E040E2AF
:104CD00051E4C301B20120D42B013C019AD24B0113
:104CE000A12CB12C2AE0B501A401CE0147DEE80ECB
:104CF000F91EC501B401B9D29B01AC01C301B201D7
:104D0000B2D12B013C01DA94DECFC701DF91CF9104
:104D1000FF90EF90DF90CF90BF90AF909F908F90DB
:104D20007F906F905F904F90089531CF0F931F93B6
:104D3000CF93DF93EC012BDF8C01CE011CDE800FC3
:104D4000911FDF91CF911F910F9108958230A9F0AB
:104D500028F4882349F0813051F00895843021F1FE
:104D6000E8F0853039F1089510926E000895809131
:104D70006F008D7F80936F000895809170008D7F0C
:104D80008093700081E08093B0008091B100887FB3
:104D900084608093B1001092B300089580917100F7
:104DA0008D7F809371000895809172008D7F809334
:104DB00072000895809173008D7F80937300089531
:104DC000CF93C82F80912B048C1307C0E0E4F2E04E
:104DD000E4918FEF80932B0401C0EFEF8E2FB6DFAD
:104DE00060E08C2FCF91BBC91F920F920FB60F922C
:104DF00011240BB60F922F933F934F935F936F93B2
:104E00007F938F939F93AF93BF93EF93FF93809183
:104E1000130890911408A0911508B0911608892BD9
:104E20008A2B8B2B51F180911008E0911108F091A1
:104E3000120890818927808380911308909114082B
:104E4000A0911508B0911608181619061A061B0627
:104E5000BCF48091130890911408A0911508B091AA
:104E600016080197A109B1098093130890931408BB
:104E7000A0931508B093160803C080912B04A0DFFF
:104E8000FF91EF91BF91AF919F918F917F916F9122
:104E90005F914F913F912F910F900BBE0F900FBEDE
:104EA0000F901F90189540E052EC61E070E080E0B8
:104EB00090E006D061E08DE016D960E08DE04FC94A
:104EC0008130910571F01CF4892B39F008958230FE
:104ED000910559F0039769F0089526E086E995E079
:104EE0000BC026E083E396E007C026E080ED96E065
:104EF00003C026E08DE697E017CA1F920F920FB607
:104F00000F9211240BB60F922F933F934F935F9301
:104F10006F937F938F939F93AF93BF93EF93FF9381
:104F20008FE89DEF909325018093240180911908CB
:104F300090911A08019719F461E08DE010D934D0EE
:104F4000FF91EF91BF91AF919F918F917F916F9161
:104F50005F914F913F912F910F900BBE0F900FBE1D
:104F60000F901F9018958FE89DEF909325018093E7
:104F70002401A3E7B0E08C918E7F8C93E0E2F1E016
:104F800080818C7F8083E1E2F1E08081877E808375
:104F900080818460808380818C7F80838C9181601C
:104FA0008C93089581E008958091180891E0980FFE
:104FB00090931808882339F021E030E030931A08E4
:104FC0002093190807C078940E94E50FF894809107
:104FD000180881508093180808950F931F93CF935A
:104FE000DF931F92CDB7DEB781E089830E94F41E64
:104FF0005ADF0091500410915104F801118210827F
:105000000E94141BB0DF81E0F80120813181232B45
:1050100009F080E089837894789489818823C1F0AD
:1050200081E0F80120813181232B09F480E0809315
:1050300017089091170881E0911180E08983898198
:10504000882311F0AFDF02C080E090E08983E5CFD4
:105050000E941C1CF89480E090E00F90DF91CF91AB
:105060001F910F9108955058BB27AA270ED0FFC15A
:10507000F0D130F0F5D120F031F49F3F11F41EF45F
:10508000E5C10EF4E095E7FBB2C1E92F01D280F350
:10509000BA17620773078407950718F071F49EF535
:1050A00030C20EF4E0950B2EBA2FA02D0B01B901E2
:1050B00090010C01CA01A0011124FF27591B99F08E
:1050C000593F50F4503E68F11A16F040A22F232F9A
:1050D000342F4427585FF3CF469537952795A795EA
:1050E000F0405395C9F77EF41F16BA0B620B730B91
:1050F000840BBAF09150A1F0FF0FBB1F661F771F02
:10510000881FC2F70EC0BA0F621F731F841F48F4B6
:10511000879577956795B795F7959E3F08F0B3CF3C
:105120009395880F08F09927EE0F97958795089526
:105130003AD108F481E008950CD099C191D140F0A2
:1051400088D130F021F45F3F19F051C15111DAC11B
:105150007DC19ED198F39923C9F35523B1F3951BD3
:10516000550BBB27AA2762177307840738F09F5F88
:105170005F4F220F331F441FAA1FA9F333D00E2EF7
:105180003AF0E0E830D091505040E695001CCAF764
:1051900029D0FE2F27D0660F771F881FBB1F261729
:1051A00037074807AB07B0E809F0BB0B802DBF01FC
:1051B000FF2793585F4F2AF09E3F510568F017C1B3
:1051C000A1C15F3FECF3983EDCF386957795679538
:1051D000B795F7959F5FC9F7880F911D96958795AD
:1051E00097F90895E1E0660F771F881FBB1F6217CC
:1051F00073078407BA0720F0621B730B840BBA0B8A
:10520000EE1F88F7E095089504D06894B1117AC133
:10521000089546D188F09F5790F0B92F9927B7513C
:10522000A0F0D1F0660F771F881F991F1AF0BA956A
:10523000C9F712C0B13081F064D1B1E0089561C105
:10524000672F782F8827B85F39F0B93FCCF3869560
:1052500077956795B395D9F73EF4909580957095BD
:1052600061957F4F8F4F9F4F0895E89409C097FB3A
:105270003EF490958095709561957F4F8F4F9F4F2D
:105280009923A9F0F92F96E9BB279395F695879571
:1052900077956795B795F111F8CFFAF4BB0F11F434
:1052A00060FF1BC06F5F7F4F8F4F9F4F16C08823DB
:1052B00011F096E911C0772321F09EE8872F762F11
:1052C00005C0662371F096E8862F70E060E02AF052
:1052D0009A95660F771F881FDAF7880F969587953E
:1052E00097F90895F7D080F09F3740F491110EF0B0
:1052F00009C160E070E080E89FEB089526F41B167A
:10530000611D711D811D79C093C0A3D018F011F0EB
:10531000A7D038F49BC0F6C0E92FBAD0B0F355231C
:10532000C9F3E7FB6217730784079507A8F199F3A0
:10533000E92FFF2788232AF03197660F771F881FF0
:10534000DAF7952F5527442332F091505040220F21
:10535000331F441FD2F7BB27E91BF50B621B730BEE
:10536000840BB109C1F222F4620F731F841FB11DB7
:1053700031972AF0660F771F881FBB1FEFCF915020
:1053800050405AF041F0882332F0660F771F881F93
:1053900091505040C1F793954BC08695779567958E
:1053A0009F5FD9F7F8CF990F0008550FAA0BE0E8D7
:1053B000FEEF16161706E807F907C0F012161306D7
:1053C000E407F50798F0621B730B840B950B39F417
:1053D0000A2661F0232B242B252B21F408950A267D
:1053E00009F4A140A6958FEF811D811D089597F9BD
:1053F0009F6780E870E060E00895882371F4772368
:1054000021F09850872B762F07C0662311F4992737
:105410000DC09051862B70E060E02AF09A95660FDF
:10542000771F881FDAF7880F9695879597F9089563
:105430009F3F31F0915020F4879577956795B79508
:10544000880F911D9695879597F908959FEF80ECA9
:10545000089500240A9416161706180609060895DA
:1054600000240A9412161306140605060895092E40
:105470000394000C11F4882352F0BB0F40F4BF2BAF
:1054800011F460FF04C06F5F7F4F8F4F9F4F0895EF
:1054900057FD9058440F551F59F05F3F71F04795E5
:1054A000880F97FB991F61F09F3F79F087950895CA
:1054B000121613061406551FF2CF4695F1DF08C0E9
:1054C000161617061806991FF1CF86957105610506
:1054D00008940895E5DFA0F0BEE7B91788F4BB276C
:1054E0009F3860F41616B11D672F782F8827985FB4
:1054F000F7CF869577956795B11D93959639C8F343
:105500000895E894BB2766277727CB0197F908957C
:105510004ADF08F48FEF08950BD0A9CF9ADF28F067
:105520009FDF18F0952309F062CF90CF1124EACFC6
:10553000AFDFA0F3959FD1F3950F50E0551F629F09
:10554000F001729FBB27F00DB11D639FAA27F00DDC
:10555000B11DAA1F649F6627B00DA11D661F829F03
:105560002227B00DA11D621F739FB00DA11D621FE8
:10557000839FA00D611D221F749F3327A00D611D05
:10558000231F849F600D211D822F762F6A2F1124E7
:105590009F5750408AF0E1F088234AF0EE0FFF1F3A
:1055A000BB1F661F771F881F91505040A9F79E3F71
:1055B000510570F01CCFA6CF5F3FECF3983EDCF3B3
:1055C000869577956795B795F795E7959F5FC1F7AE
:1055D000FE2B880F911D9695879597F90895E3DE28
:1055E000880B990B0895A1E21A2EAA1BBB1BFD0183
:1055F0000DC0AA1FBB1FEE1FFF1FA217B307E407B2
:10560000F50720F0A21BB30BE40BF50B661F771F09
:10561000881F991F1A9469F76095709580959095E9
:105620009B01AC01BD01CF010895EE0FFF1F881F44
:0E5630008BBF0790F691E02D1994F894FFCFF0
:10563E0000006E09800001000000E8030000803FBA
:10564E00000000000000000000000000735A343B10
:10565E00950FBC3DAAF3013DDB9C7E400BAAA5B87D
:10566E00DD67F1BB3D45803FF58BC53ED3381F3915
:10567E0077969B3CEB0B193C49276B3F75BBB339B7
:10568E00B0F02F3D0FAFC4BA0DAE40BE0000803F4C
:10569E0000000000000000000000000000000000FC
:1056AE000000803F0000000000000000A450D9C29E
:1056BE00B01A9FC22EFFDFC239E692C19A4E503EFB
:1056CE00372D28BE7998A23CC5399A3FA88F303B1A
:1056DE00E1C6273FAC4DD53EB8DA034090BD76C249
:1056EE000F84C645656CEAC743A586C3D6F52A471F
:1056FE00ECFC49C9279E6DC12DEE1645AD5132C742
:10570E00253406C2615FAA45334BC9C7AD24BFC756
:10571E00ADAA724BEE5A8FCD10D68C426AC6EDC52D
:10572E0080670C48AD24BF47ADAA72CBEE5A8F4DA1
:10573E000000803F0000000000000000000000801C
:10574E0000000000000000000000803F000000800C
:10575E00000000000000803F00000000000000007C
:10576E000000008000000080000000000000803F6C
:10577E00033CDEC37CF2B03C0000000000000000E1
:10578E00000010410000000035FA0EBC0000C842B7
:10579E000AD7233C000000000000C8420000008031
:1057AE000000803F0000000000000000000000002C
:1057BE000000000000000000000000800000803F9C
:1057CE0000000000000000000000000000000000CB
:1057DE0000000000000000800000803F000000007C
:1057EE0000000000000000000000000000000000AB
:1057FE00000000800000803F0000000000000080DC
:10580E000000803F000000000000000000000000CB
:10581E0000000000000000800000803F000000003B
:10582E0000000000000000000000000000000080EA
:10583E000000803F0000000058A00B39000000005F
:10584E00000010C1ABAAE241000101D11CD11CD154
:10585E001CD11CD11CD11CD11CD11CFF000000007E
:10586E0050062106F505FD05110620060001FFFF75
:10587E000607FFFFFFFFFFFFFFFFFFFF0504030209
:10588E005409000000004E217324DE20F820EA2087
:10589E002D210000000029240D0A006E616E0069A2
:0858AE006E66006F76660000D3
:00000001FF
