:1000000027C100000C9460150C948B150C94B61548
:100010000C94E1150C940C160C9437160C94621683
:100020000C948D160C947E0C0C94520D0C948F0D28
:1000300040C100000C940E1F3CC100003AC10000FA
:1000400038C1000036C1000034C1000032C10000D8
:1000500030C100002EC100002CC100000C94B81665
:1000600028C100000C94131A0C94491A22C10000F4
:1000700020C100001EC100001CC100001AC1000008
:1000800018C1000016C1000014C1000012C1000018
:100090000C949F1A0C94D51A0CC10000BFC7000025
:1000A00008C1000006C1000004C1000002C1000038
:1000B00000C10000FEC00000FCC00000FAC000004B
:1000C000F8C00000F6C000000C94971F0C942B1B86
:1000D0000C94611BEEC000000C94B71B0C94ED1B3C
:1000E000E8C000003A1504150C151815251546151D
:1000F000531597179C17A117AB17B5172E18BF17D5
:10010000C717CF17D917E317ED17FC1706182E18C6
:1001100010181A18241852185518441848184E1850
:100120008C1859185D18631867186B1871187518B2
:1001300079188C187F188318871800000A0B020999
:100140000C0D0E0807030401000000000000000071
:10015000000000000000000000000000000000009F
:10016000000000000000121110000000000000005C
:10017000000000000000000000000000000000007F
:1001800001021020200808102040102040800201A9
:10019000020108040201010204081020408080408E
:1001A000201008040201800402018040201008048D
:1001B000020108040201010204081020408001022B
:1001C00004081020408005050505070508080808F3
:1001D000020202020A0A08080404040401010101DF
:1001E00001010101030303030303030304070707DA
:1001F0000C0C0C0C0C0C0C0C02020202060606067F
:10020000060606060B0B0B0B0B0B0B0B000022005C
:10021000250028002B002E003100340002010000D0
:10022000050108010B0100002100240027002A001D
:100230002D003000330001010000040107010A0114
:1002400002001707740B721AFE1A8A1B161C821CF6
:1002500011241FBECFEFD1E2DEBFCDBF00E00CBF47
:1002600012E0A0E0B2E0E2E7F6E400E00BBF02C07B
:1002700007900D92A23CB107D9F727E0A2ECB2E0BB
:1002800001C01D92A332B207E1F711E0C8E2D1E04C
:1002900000E006C021970109802FFE010E942F2354
:1002A000C132D10780E00807A9F70E9407200C940B
:1002B0003723A6CE6F927F928F929F92AF92BF927A
:1002C000CF92DF92EF92FF920F931F93CF93DF9322
:1002D0001F92CDB7DEB7B62ED72E3A01F02E3E2DA7
:1002E000B401E22FF0E0E830F10511F4E4E0F0E0D1
:1002F000CC2049F091E0C91649F092E0C91649F0C6
:1003000002E010E008C00AE010E005C000E110E0E3
:1003100002C008E010E0813009F4FDC038F08230FE
:1003200009F412C2833009F428C34FC4F1100CC081
:10033000E69DA001E79D500DF69D500D11246B2DFB
:100340007D2D80EE93E026C380EE93E039830E94FA
:10035000CD1C398131111DC08B2C9D2C680C791C52
:100360008614970409F431C4E1E0A801FE1207C025
:10037000F401608180EE93E00E949D1D06C0F401AF
:10038000608180EE93E00E94A31DFFEF8F1A9F0A09
:10039000E7CF3130E9F48B2C9D2C6114710409F402
:1003A00014C481E0F40160817181A801F81205C0D4
:1003B00080EE93E00E94B81D04C080EE93E00E949E
:1003C000BD1DF1E06F1A710882E0880E911CE5CF27
:1003D0003230F9F48B2C9D2C6114710409F4F5C3AF
:1003E00091E0F40140815181628173819801F91299
:1003F00005C080EE93E00E94911D04C080EE93E062
:100400000E94D11DF1E06F1A710884E0880E911CE2
:10041000E3CF3330F1F48B2C9D2C680C791C8614BF
:10042000970409F4D2C391E0F4016081062E000C18
:10043000770BA801F91205C080EE93E00E94661DBB
:1004400004C080EE93E00E946C1DFFEF8F1A9F0A9C
:10045000E6CF3430E9F48B2C9D2C6114710409F43F
:10046000B4C381E0F40160817181A801F81205C074
:1004700080EE93E00E94661D04C080EE93E00E942F
:100480006C1DF1E06F1A710882E0880E911CE5CFB7
:100490003530F9F48B2C9D2C6114710409F495C34B
:1004A00091E0F40140815181628173819801F912D8
:1004B00005C080EE93E00E941F1D04C080EE93E013
:1004C0000E94811DF1E06F1A710884E0880E911C72
:1004D000E3CF363009F079C30B2D1D2DB12C6114FB
:1004E000710409F472C391E0F80140815181628185
:1004F00073819501F91205C080EE93E00E94AF1E52
:1005000004C080EE93E00E94B01EF1E06F1A710803
:100510000C5F1F4FE4CFF1100CC0E69DA001E79DDA
:10052000500DF69D500D11246B2D7D2D8DE794E01F
:1005300031C28DE794E039830E94CD1C398131119D
:100540001BC08B2C9D2C680C791C8614970409F415
:100550003CC381E0A801F4016081F81205C08DE779
:1005600094E00E949D1D04C08DE794E00E94A31DAD
:10057000FFEF8F1A9F0AE9CF3130E9F48B2C9D2CC5
:100580006114710409F421C381E0F4016081718177
:10059000A801F81205C08DE794E00E94B81D04C0C0
:1005A0008DE794E00E94BD1DF1E06F1A710882E0B2
:1005B000880E911CE5CF3230F9F48B2C9D2C611400
:1005C000710409F402C391E0F40140815181628118
:1005D00073819801F91205C08DE794E00E94911D86
:1005E00004C08DE794E00E94D11DF1E06F1A7108FC
:1005F00084E0880E911CE3CF3330F1F48B2C9D2CDA
:10060000680C791C8614970409F4DFC291E0F401A8
:100610006081062E000C770BA801F91205C08DE74A
:1006200094E00E94661D04C08DE794E00E946C1D5A
:10063000FFEF8F1A9F0AE6CF3430E9F48B2C9D2C04
:100640006114710409F4C1C281E0F4016081718117
:10065000A801F81205C08DE794E00E94661D04C051
:100660008DE794E00E946C1DF1E06F1A710882E042
:10067000880E911CE5CF3530F9F48B2C9D2C61143C
:10068000710409F4A2C291E0F401408151816281B8
:1006900073819801F91205C08DE794E00E941F1D37
:1006A00004C08DE794E00E94811DF1E06F1A71088B
:1006B00084E0880E911CE3CF363009F086C28B2C83
:1006C0009D2CB12C6114710409F47FC291E0F401F6
:1006D000F9121AC0C1100AC0408151816281738130
:1006E00095018DE794E00E94AF1E27C06081718163
:1006F000828193810E941E21AB01BC0198018DE78C
:1007000094E00E941F1D19C0C1100AC04081518190
:100710006281738195018DE794E00E94B01E0DC047
:1007200060817181828193810E941E21AB01BC0195
:1007300098018DE794E00E94811DF1E06F1A710825
:1007400084E0880E911CBECFF1100CC0E69DA00184
:10075000E79D500DF69D500D11246B2D7D2D8AE1E6
:1007600095E018C18AE195E039830E94CD1C39815A
:1007700031111BC08B2C9D2C680C791C861497049E
:1007800009F423C291E0A801F4016081F91205C0C7
:100790008AE195E00E949D1D04C08AE195E00E94D7
:1007A000A31DFFEF8F1A9F0AE9CF3130E9F48B2C9C
:1007B0009D2C6114710409F408C281E0F401608188
:1007C0007181A801F81205C08AE195E00E94B81D68
:1007D00004C08AE195E00E94BD1DF1E06F1A710826
:1007E00082E0880E911CE5CF3230F9F48B2C9D2CE1
:1007F0006114710409F4E9C191E0F401408151816F
:10080000628173819801F91205C08AE195E00E9426
:10081000911D04C08AE195E00E94D11DF1E06F1A9C
:10082000710884E0880E911CE3CF3330F1F48B2CF7
:100830009D2C680C791C8614970409F4C6C191E0BC
:10084000F4016081062E000C770BA801F91205C097
:100850008AE195E00E94661D04C08AE195E00E944D
:100860006C1DFFEF8F1A9F0AE6CF3430E9F48B2C12
:100870009D2C6114710409F4A8C181E0F401608128
:100880007181A801F81205C08AE195E00E94661DF9
:1008900004C08AE195E00E946C1DF1E06F1A7108B6
:1008A00082E0880E911CE5CF3530F9F48B2C9D2C1D
:1008B0006114710409F489C191E0F401408151810E
:1008C000628173819801F91205C08AE195E00E9466
:1008D0001F1D04C08AE195E00E94811DF1E06F1A9E
:1008E000710884E0880E911CE3CF363009F06DC1A9
:1008F0008B2C9D2CB12C6114710409F466C191E01C
:10090000F401F9121AC0C1100AC0408151816281FC
:10091000738195018AE195E00E94AF1E27C0608136
:100920007181828193810E941E21AB01BC019801DB
:100930008AE195E00E941F1D19C0C1100AC04081C4
:1009400051816281738195018AE195E00E94B01E18
:100950000DC060817181828193810E941E21AB0153
:10096000BC0198018AE195E00E94811DF1E06F1AB7
:10097000710884E0880E911CBECFF1101CC0E69D6A
:10098000A001E79D500DF69D500D11246B2D7D2D7E
:1009900087EB95E00F90DF91CF911F910F91FF9022
:1009A000EF90DF90CF90BF90AF909F908F907F900F
:1009B0006F900C948D1C87EB95E039830E94CD1CC1
:1009C000398131111BC08B2C9D2C680C791C86142D
:1009D000970409F4FAC091E0A801F4016081F912CA
:1009E00005C087EB95E00E949D1D04C087EB95E054
:1009F0000E94A31DFFEF8F1A9F0AE9CF3130E9F45F
:100A00008B2C9D2C6114710409F4DFC081E0F4018A
:100A100060817181A801F81205C087EB95E00E9402
:100A2000B81D04C087EB95E00E94BD1DF1E06F1A70
:100A3000710882E0880E911CE5CF3230F9F48B2CDE
:100A40009D2C6114710409F4C0C091E0F40140814F
:100A50005181628173819801F91205C087EB95E09D
:100A60000E94911D04C087EB95E00E94D11DF1E02A
:100A70006F1A710884E0880E911CE3CF3330F1F4D3
:100A80008B2C9D2C680C791C8614970409F49DC04E
:100A900091E0F4016081062E000C770BA801F91299
:100AA00005C087EB95E00E94661D04C087EB95E0CA
:100AB0000E946C1DFFEF8F1A9F0AE6CF3430E9F4D5
:100AC0008B2C9D2C6114710409F47FC081E0F4012A
:100AD00060817181A801F81205C087EB95E00E9442
:100AE000661D04C087EB95E00E946C1DF1E06F1A53
:100AF000710882E0880E911CE5CF3530F9F48B2C1B
:100B00009D2C6114710409F460C091E0F4014081EE
:100B10005181628173819801F91205C087EB95E0DC
:100B20000E941F1D04C087EB95E00E94811DF1E02B
:100B30006F1A710884E0880E911CE3CF363009F0FB
:100B400044C08B2C9D2CB12C61147104F1F191E007
:100B5000F401F9121AC0C1100AC0408151816281AA
:100B60007381950187EB95E00E94AF1E27C06081DD
:100B70007181828193810E941E21AB01BC01980189
:100B800087EB95E00E941F1D19C0C1100AC040816B
:100B9000518162817381950187EB95E00E94B01EBF
:100BA0000DC060817181828193810E941E21AB0101
:100BB000BC01980187EB95E00E94811DF1E06F1A5E
:100BC000710884E0880E911CBFCF0F90DF91CF9108
:100BD0001F910F91FF90EF90DF90CF90BF90AF905B
:100BE0009F908F907F906F9008958091F20290E097
:100BF0002091F302821B910908959091F302809154
:100C0000F202981750F4E92FF0E0EC50FD4F2081EC
:100C100030E09F5F9093F30202C02FEF3FEFC901D6
:100C20000895E091F3028091F202E81730F4F0E0C9
:100C3000EC50FD4F808190E008958FEF9FEF089575
:100C40000895CF92DF92EF92FF920F931F93CF936D
:100C5000DF937C01262F972F8A018091CE02882373
:100C600091F0C62FD72F6E01C40ED51ECC15DD0511
:100C700069F06991D701ED91FC910190F081E02D2F
:100C8000C7011995F3CF642F822F90D1C801DF914E
:100C9000CF911F910F91FF90EF90DF90CF9008952B
:100CA000CF93DF931F92CDB7DEB769832091CE0239
:100CB0002223D1F02091CF02203240F021E030E019
:100CC000FC013383228380E090E014C08091D00245
:100CD000E82FF0E0EF52FD4F998190838F5F809372
:100CE000D0028093CF0204C061E0CE0101965ED1B4
:100CF00081E090E00F90DF91CF910895FC01138285
:100D0000128288EE93E0A0E0B0E084839583A6830E
:100D1000B7838AE792E09183808308951092F3026B
:100D20001092F2021092D0021092CF0283C081E0A2
:100D30008093CE026093F1021092D0021092CF0203
:100D400008950F93062F21E04091CF0261ED72E0EC
:100D50008091F102D5D01092D0021092CF02109261
:100D6000CE020F9108954F925F926F927F92AF9251
:100D7000BF92CF92EF92FF920F931F93CF93DF9387
:100D80005C01F62ED42F28013901EE2011F1CFDFBE
:100D9000CE2DC43008F0C3E0C150C0F0D501ED91B4
:100DA000FC91B8E0CB9FC0011124A301920104C0C3
:100DB00056954795379527958A95D2F7CA01B90177
:100DC0000190F081E02DC5011995E6CF60E0C501E5
:100DD000B8DF4D2FD13208F040E22C2D64EF72E0E5
:100DE0008F2D46D01092F3028093F202DF91CF91C3
:100DF0001F910F91FF90EF90CF90BF90AF907F9099
:100E00006F905F904F900895CF92EF920F931F9342
:100E1000C22EE12C00E010E09801A5DF1F910F9198
:100E2000EF90CF90089521E0EFCF61E08ACF82EC80
:100E300092E064CF1092810381E080937F0310924F
:100E40007E0361E084E10E94C91861E085E10E94AF
:100E5000C918E9EBF0E080818E7F808380818D7FEF
:100E6000808388E48093B80085E48093BC00089573
:100E7000413208F043C0909181039111FCCF91E081
:100E80009093810320937F032FEF209314031092FC
:100E90005903240F2093580390938003909180036B
:100EA000880F892B8093800380917E03813061F4C9
:100EB00010927E03809180038093BB008091BC00E0
:100EC00083FDF8CF85EC01C085EE8093BC00809156
:100ED00081038130E1F380915903841710F440912C
:100EE00059032AE533E0FB01D9018A2F821B8417BD
:100EF00018F48D918193F9CF842F089580E008959F
:100F00000F93413208F04AC0909181039111FCCFB8
:100F100032E03093810300937F033FEF309314035B
:100F20001092590340935803FB016AE573E0DB011B
:100F30003A2F361B341718F431913D93F9CF1092A4
:100F4000800330918003880F832B809380038091EE
:100F50007E03813061F410927E0380918003809340
:100F6000BB008091BC0083FDF8CF85EC01C085EE0D
:100F70008093BC00222321F0809181038230D1F341
:100F8000809114038F3F79F080911403803241F0F7
:100F900080911403803331F094E005C091E003C0E8
:100FA00092E001C093E0892F0F910895409136039C
:100FB000262F30E0240F311D21323105DCF4209141
:100FC00081032430C9F4FC0180E090E0861758F4D6
:100FD000309136032191DC01A85CBC4FA30FB11DF9
:100FE0002C930196F3CF80913603680F60933603FC
:100FF00080E0089581E0089582E0089585ED809372
:10100000BC008091BC0084FDFCCF10928103089548
:1010100085EC8093BC001092810308951F920F927B
:101020000FB60F9211240BB60F922F933F934F934D
:101030005F936F937F938F939F93AF93BF93EF9340
:10104000FF938091B900887F803609F49DC070F5C8
:10105000883209F45CC090F4803109F455C038F44A
:10106000882309F4F3C0883009F44EC0F2C08831F7
:1010700009F44DC0803209F45EC0EBC0803409F43D
:1010800069C050F4803309F456C0883309F0E1C0D8
:1010900080931403BDDFDDC0803509F44FC088356F
:1010A00009F45DC0883409F0D4C0D2C0883909F48D
:1010B000C3C0A8F4883709F467C038F4883609F447
:1010C00063C0803709F460C0C4C0883809F4B4C074
:1010D000803909F45FC0803809F0BBC05BC0803B39
:1010E00009F482C038F4803A09F466C0883A09F4F9
:1010F0007BC0AFC0803C09F4A3C0883C09F4A0C009
:10110000883B09F486C0A5C08091800310C09091EF
:10111000590380915803981770F5E091590381E0C5
:101120008E0F80935903F0E0E65AFC4F8081809344
:10113000BB0085EC82C0809314038AC0E091590300
:1011400081E08E0F809359038091BB00F0E0E65A56
:10115000FC4F808390915903809158036AC0E091BD
:10116000590381E08E0F809359038091BB00F0E01A
:10117000E65AFC4F808380917F03811169C081E032
:1011800080937E0384EA5DC083E0809381031092A4
:101190001503CFCF80911503803208F04DC0E09148
:1011A000150381E08E0F809315038091BB00F0E062
:1011B000EA5EFC4F8083BDCF2BDF80911503803228
:1011C00030F4E0911503F0E0EA5EFC4F108260918C
:1011D000150370E0E0917A03F0917B0386E193E0E0
:1011E00019951092150335C084E080938103109205
:1011F000370310923603E0917C03F0917D0319953B
:1012000080913603811105C081E0809336031092EE
:101210003803E091370381E08E0F80933703F0E0CD
:10122000E85CFC4F80818093BB00909137038091F4
:101230003603981708F47DCF85E88093BC0009C079
:1012400085EC8093BC001092810303C010921403BC
:10125000D5DEFF91EF91BF91AF919F918F917F91DB
:101260006F915F914F913F912F910F900BBE0F9017
:101270000FBE0F901F901895EF92FF920F931F9340
:10128000CF93DF931F921F92CDB7DEB7062F142F97
:10129000682F82EC92E029833A8349DD602F82EC4B
:1012A00092E0FEDC2981022FE22E3A81F32E8E2D70
:1012B000801B811738F4F70161917F0182EC92E085
:1012C000EFDCF5CF82EC92E0B0DD91E0811190E0AF
:1012D000892F0F900F90DF91CF911F910F91FF9069
:1012E000EF900895CF93DF931F92CDB7DEB7498378
:1012F0009E012F5F3F4F41E0BFDF0F90DF91CF9105
:1013000008952F923F924F925F926F927F928F92A9
:101310009F92AF92BF92CF92DF92EF92FF920F9384
:101320001F93CF93DF9300D01F921F92CDB7DEB7EC
:10133000F82EE62E242E69010E9402174B015C0153
:10134000312C1D82822D90E09C838B832801612C9F
:10135000712C321408F04DC06F2D82EC92E0E7DC66
:101360006E2D82EC92E09CDC82EC92E05EDD6F2DD3
:1013700082EC92E0DCDC4B815C8143195109413203
:10138000510514F040E250E06F2D82EC92E04BDD0D
:1013900082EC92E02ADC892B11F10115110591F400
:1013A000F6012D81E20FF11D27FDFA95FA83E983FD
:1013B00082EC92E022DCE981FA8180832D812F5F2B
:1013C0002D83E6CF0E940217DC01CB018819990911
:1013D000AA09BB0984159505A605B70508F382EC93
:1013E00092E023DD822D40E2421508F480E2380EBF
:1013F000B0CF01151105D1F00E940217DC01CB011D
:1014000088199909AA09BB0920E030E080179107E3
:10141000A207B30758F0822D90E0ED812E2FEE0F3A
:10142000330B2817390714F42FEF2D838D810F907C
:101430000F900F900F900F90DF91CF911F910F9110
:10144000FF90EF90DF90CF90BF90AF909F908F90E4
:101450007F906F905F904F903F902F9008950F93E3
:101460001F9389019A0141E04CDF1F910F9108956C
:10147000EF92FF920F931F93CF93DF931F92CDB7FD
:10148000DEB7182F062FF42EE22E20910A0230919B
:101490000B02AE014F5F5F4FE2DF9981EE2041F01A
:1014A00041E050E001C0440FFA94EAF7492B09C02B
:1014B00021E030E0A90101C0440FFA94EAF7409519
:1014C00049234983602F812F0DDF0F90DF91CF914A
:1014D0001F910F91FF90EF900895DF92EF92FF928E
:1014E0000F931F93CF93DF931F92CDB7DEB7182FC3
:1014F000F62EE42ED22E20910A0230910B02AE017C
:101500004F5F5F4FACDF882319F1EE2DF0E0ED194E
:10151000F109319621E030E002C0220F331FDA9446
:10152000E2F7215031090E2E01C0220F0A94EAF78A
:10153000802F01C0880FEA95EAF7422F40959981E4
:1015400049232823422B49836F2D812FCBDE01C0F5
:1015500080E00F90DF91CF911F910F91FF90EF905E
:10156000DF90089528E6FC01208308950F93062F4D
:1015700023E042E06AE1FC018081AFDF0F91089532
:101580000F93062F22E044E06BE1FC018081A5DF90
:101590000F9108950F93062F22E044E06CE1FC01C7
:1015A00080819BDF0F9108950F931F93CF93DF935B
:1015B000EC0100910A0210910B029C012F5F3F4F3A
:1015C00042E063E488819DDE298130E0322F2227CA
:1015D0008A81A901482BCA01DF91CF911F910F91F8
:1015E00008950F931F93CF93DF93EC0100910A02AC
:1015F00010910B029C012F5F3F4F42E065E4888110
:1016000080DE298130E0322F22278A81A901482BF0
:10161000CA01DF91CF911F910F9108950F931F93EE
:10162000CF93DF93EC0100910A0210910B029C0111
:101630002F5F3F4F42E067E4888163DE298130E01D
:10164000322F22278A81A901482BCA01DF91CF912D
:101650001F910F910895262F46E06BE6FC018081D3
:1016600007CF0F93062F23E042E06BE6FC01808159
:1016700034DF0F910895CF93DF93EC0161E0F1DF48
:1016800060E0CE017DDF60E0CE0184DF60E0CE016E
:10169000DF91CF91E0CFCF93DF931F92CDB7DEB72D
:1016A000682F82EC92E0698339DB698182E893E0FC
:1016B0005DDF82E893E00F90DF91CF91DCCFCF9395
:1016C000DF93EC0182E893E06FDF9983888382E8FF
:1016D00093E087DF9B838A8382E893E09FDF9D838B
:1016E0008C83DF91CF91089582E893E03BCF9CB14A
:1016F00095FB882780F994FF03C081110FC002C0B9
:10170000882361F08091950390919603A0919703AF
:10171000B09198030196A11DB11D0BC08091950356
:1017200090919603A0919703B09198030197A10916
:10173000B1098093950390939603A0939703B09378
:10174000980308959CB194FB882780F995FF03C006
:10175000882379F002C081110CC08091950390918B
:101760009603A0919703B09198030196A11DB11D16
:101770000BC08091950390919603A0919703B0912F
:1017800098030197A109B10980939503909396035B
:10179000A0939703B0939803089599B193FB88277A
:1017A00080F992FF03C081110FC002C0882361F04D
:1017B0008091A3039091A403A091A503B091A603E7
:1017C0000196A11DB11D0BC08091A3039091A403AC
:1017D000A091A503B091A6030197A109B109809337
:1017E000A3039093A403A093A503B093A603089525
:1017F00099B192FB882780F993FF03C0882379F081
:1018000002C081110CC08091A3039091A403A09108
:10181000A503B091A6030196A11DB11D0BC0809137
:10182000A3039091A403A091A503B091A6030197EF
:10183000A109B1098093A3039093A403A093A503E6
:10184000B093A60308952CB1822F807890E0880F82
:10185000892F881F990B26FF03C0892B79F402C0BA
:10186000019761F48091B1039091B203A091B30309
:10187000B091B4030196A11DB11D0BC08091B103BD
:101880009091B203A091B303B091B4030197A10961
:10189000B1098093B1039093B203A093B303B093C3
:1018A000B40308952CB126FB882780F990E027FF28
:1018B00003C0019779F402C0892B61F48091B103D0
:1018C0009091B203A091B303B091B4030196A11D0E
:1018D000B11D0BC08091B1039091B203A091B303ED
:1018E000B091B4030197A109B1098093B10390931A
:1018F000B203A093B303B093B40308951F920F9261
:101900000FB60F9211242F933F934F935F936F93D2
:101910007F938F939F93AF93BF9383B185FB992759
:1019200090F9292F30E086FB882780F94091D50374
:101930005091D6032417350779F5482F50E050937E
:10194000D4034093D303882359F0232B61F04091B3
:10195000CD035091CE036091CF037091D00366C048
:101960002130310561F48091CD039091CE03A09197
:10197000CF03B091D0030196A11DB11D35C0409198
:10198000CD035091CE036091CF037091D0034150AD
:101990005109610971093FC03093D6032093D503E3
:1019A0002130310551F58823A1F08091CD0390912C
:1019B000CE03A091CF03B091D0030196A11DB11D1C
:1019C0008093CD039093CE03A093CF03B093D00325
:1019D00047C08091CD039091CE03A091CF03B091E9
:1019E000D0030197A109B1098093CD039093CE0351
:1019F000A093CF03B093D00327C04091CD03509163
:101A0000CE036091CF037091D00381110FC04F5F5F
:101A10005F4F6F4F7F4F4093CD035093CE03609342
:101A2000CF037093D0039923D9F00EC041505109D0
:101A3000610971094093CD035093CE036093CF03A6
:101A40007093D00391110CC08091CD039091CE037F
:101A5000A091CF03B091D0030196A11DB11D0BC081
:101A60008091CD039091CE03A091CF03B091D0038C
:101A70000197A109B1098093CD039093CE03A09360
:101A8000CF03B093D003BF91AF919F918F917F917E
:101A90006F915F914F913F912F910F900FBE0F90DB
:101AA0001F9018951F920F920FB60F9211248F93CB
:101AB0009F93AF93BF938091060181709091030132
:101AC00090FF03C081110FC002C0813061F480918A
:101AD000BF039091C003A091C103B091C2030196CE
:101AE000A11DB11D0BC08091BF039091C003A091B7
:101AF000C103B091C2030197A109B1098093BF034B
:101B00009093C003A093C103B093C203BF91AF9160
:101B10009F918F910F900FBE0F901F9018951F925D
:101B20000F920FB60F9211248F939F93AF93BF9391
:101B30008091030181709091060190FF03C0813074
:101B400079F402C081110CC08091BF039091C00351
:101B5000A091C103B091C2030196A11DB11D0BC09C
:101B60008091BF039091C003A091C103B091C203C3
:101B70000197A109B1098093BF039093C003A0937B
:101B8000C103B093C203BF91AF919F918F910F900A
:101B90000FBE0F901F9018950F931F93CF93DF9355
:101BA0008C018EE0809FE001819FD00D1124CF56E3
:101BB000DC4F798368835B834A838881998160E005
:101BC0000E948D188A819B8160E00E948D18888117
:101BD000998161E00E94C9188A819B8161E00E941D
:101BE000C9180230110509F47DC044F4011511052E
:101BF000E9F00130110509F447C0BAC003301105FE
:101C000009F4A2C00430110509F0B2C08091680047
:101C100081608093680080916B00806280936B008C
:101C200080916B00806480936B00A2C080919103CF
:101C30009091920302978431910540F4FC01EA5798
:101C4000FD4F8081082E000C990B02C08FEF9FEF93
:101C500041E050E067E77BE0BFD68091930390912D
:101C6000940302978431910540F4FC01EA57FD4F3B
:101C70008081082E000C990B02C08FEF9FEF41E08E
:101C800050E062EA7BE05BC080919F039091A003EB
:101C900002978431910540F4FC01EA57FD4F8081A1
:101CA000082E000C990B02C08FEF9FEF41E050E02F
:101CB0006DEC7BE091D68091A1039091A2030297F5
:101CC0008431910540F4FC01EA57FD4F8081082ED4
:101CD000000C990B02C08FEF9FEF41E050E068EFDE
:101CE0007BE02DC08091AD039091AE0302978431CB
:101CF000910540F4FC01EA57FD4F8081082E000C4D
:101D0000990B02C08FEF9FEF41E050E063E27CE06F
:101D100063D68091AF039091B0030297843191050F
:101D200040F4FC01EA57FD4F8081082E000C990B0E
:101D300002C08FEF9FEF41E050E062E57CE0DF9171
:101D4000CF911F910F9148C6809168008460809365
:101D500068008091680082608093680080916D00C7
:101D6000816080936D0080916C00826080936C0034
:101D7000DF91CF911F910F9108952EE0269FF001E2
:101D8000279FF00D1124EF56FC4F648175818681E9
:101D900097810895833009F45DC028F4813051F0B3
:101DA000823071F1B5C0843009F466C0853009F421
:101DB00089C0AEC06330A9F028F4613041F06230D0
:101DC00059F00895643091F06530A9F0089580913C
:101DD0008100887F816025C08091B100887F81600B
:101DE00027C080919100887F8160ADC08091A10063
:101DF000887F8160AFC080912101887F8160B1C000
:101E00006330C9F028F4613041F0623069F0089520
:101E10006430B1F06530C9F0089580918100887F09
:101E200082608093810008958091B100887F8260F4
:101E30008093B100089580919100887F826083C073
:101E40008091A100887F826085C080912101887F78
:101E5000826087C0633009F472C038F4613009F4DD
:101E600064C0623009F466C00895643009F46EC03D
:101E7000653009F472C008956330A9F028F4613028
:101E800041F0623059F00895643091F06530A9F066
:101E9000089580918100887F8460C3CF8091B100D4
:101EA000887F8460C5CF80919100887F84604BC01B
:101EB0008091A100887F84604DC080912101887F3E
:101EC00084604FC06330A9F028F4613041F0623083
:101ED00059F00895643091F06530A9F0089580912B
:101EE0008100887F85609DCF8091B100887F85606B
:101EF0009FCF80919100887F856025C08091A1004F
:101F0000887F856027C080912101887F856029C0F6
:101F10006330A9F028F4613041F0623059F008953F
:101F20006430A1F06530C9F0089580918100887F08
:101F3000836077CF8091B100887F836079CF809173
:101F40009100887F83608093910008958091A10023
:101F5000887F83608093A100089580912101887F0C
:101F600083608093210108951F93CF93DF931F9285
:101F7000CDB7DEB7162F61E0812F79830E948D18CF
:101F8000812F7981972F0F90DF91CF911F91089525
:101F90000895CF93C82FCB01BA010E941E218C2F28
:101FA000CF919EC7662311F061E001C060E00C9400
:101FB0008D18662311F061E001C060E00C94C9182F
:101FC0002F923F924F925F926F927F928F929F9249
:101FD000AF92BF92CF92DF92EF92FF920F931F9337
:101FE000CF93DF93CDB7DEB7A1970FB6F894DEBFDE
:101FF0000FBECDBFC090FD06D090FE06E090FF065C
:10200000F0900007209114023091150240911602C1
:1020100050911702C701B6010E94A6222091050720
:102020003091060740910707509108070E944D2004
:1020300020912C0230912D0240912E0250912F02BE
:102040000E94A6226B8F7C8F8D8F9E8F20913002F5
:10205000309131024091320250913302C701B601F2
:102060000E94A622209101073091020740910307A8
:10207000509104070E944E202B8D3C8D4D8D5E8D1E
:102080000E944E202B013C01809134028E8B2090C7
:1020900035023090360210913702282F322D432D11
:1020A000512FB201C3010E94A2221816BCF08091E8
:1020B00028028E8B2090290230902A0210912B0248
:1020C000282F322D432D512FB201C3010E94B2207F
:1020D00087FD04C04E8A252C362C172D20E030E0D9
:1020E00040E251E46E89722D832D912F0E944E2083
:1020F0002DEC3CEC4CE455E40E94A6220E948C217D
:102100006B017C014ED4811123C0C701B60120D4DC
:1021100081111EC020E030E040E857E4C701B6015D
:102120000E94A6216B017C01962EAD2CBE2C0F2D9A
:1021300020E030E0A9010E94B22087FF0DC0C70156
:10214000B60190580E9423217195619571090AC0CA
:10215000912CA12CB12C00E0692D7A2D8B2D902F84
:102160000E9423217F8B6F8F61E070E080E090E020
:1021700004DE0E9451212091500230915102409181
:102180005202509153020E94A622209110023091D7
:10219000110240911202509113020E94A62220E0E7
:1021A00030E040E251E40E944E202DEC3CEC4CE447
:1021B00055E40E94A6220E948C216B017C01F1D380
:1021C000811123C0C701B601C3D381111EC020E015
:1021D00030E040E857E4C701B6010E94A6216B0138
:1021E0007C01962EAD2CBE2C0F2D20E030E0A901F5
:1021F0000E94B22087FF0DC0C701B60190580E940F
:1022000023217195619571090AC0912CA12CB12CE3
:1022100000E0692D7A2D8B2D902F0E94232178A329
:10222000862E20E030E040E251E46091FD0670919E
:10223000FE068091FF06909100070E944E202DEC33
:102240003CEC4CE455E40E94A6220E948C216B01D8
:102250007C01A7D3811123C0C701B60179D38111B5
:102260001EC020E030E040E857E4C701B6010E94FC
:10227000A6216B017C01B62E0D2DAE2C9F2C20E0EB
:1022800030E0A9010E94B22087FF0DC0C701B6014E
:1022900090580E9423217195619571090AC0B12C53
:1022A00000E0A12C912C6B2D702F8A2D992D0E946E
:1022B00023218091640289838F898A838F8D8B8308
:1022C00088A18C838D827E836F8380E888871986BE
:1022D0008A871B868C871D868E871F86609199064C
:1022E00070919A0680919B0690919C060E942321F2
:1022F000C62E6091910670919206809193069091FE
:1023000094060E942321E62E609195067091960610
:1023100080919706909198060E942321062F609144
:102320008D0670918E0680918F06909190060E9486
:102330002321262F6091890670918A0680918B0651
:1023400090918C0629A30E942321862F812C912C09
:1023500092E0A92E29A14FE050E0BE016F5F7F4FB0
:102360000E945A019201A3016E89722D832D912F33
:102370000E944D2020912402309125024091260296
:10238000509127020E94A6226F8B788F898F9A8F97
:10239000C090FD06D090FE06E090FF06F09000078A
:1023A000209118023091190240911A0250911B029B
:1023B000C701B6010E94A6222B013C01C701B6014C
:1023C0009F7720E030E040E45FE30E94B22087FD89
:1023D00004C020E030E0A90104C020E030E040E883
:1023E0005FE36E89722D832D912F0E94A6226B01CF
:1023F0007C01CE01409663D980903C0290903D02D2
:10240000A0903E02B0903F02A50194016091A30606
:102410007091A4068091A5069091A6060E94B22014
:10242000882341F08092A3069092A406A092A5066C
:10243000B092A606209158023091590240915A025A
:1024400050915B02B601C7010E94B220682F661F3F
:102450006627661F88E0ADDD1091380200913902D1
:1024600030903A0220903B02212F302F432D522DE5
:10247000B601C7010E94A222181694F010915C02C6
:1024800000915D0230905E0220905F02212F302F7C
:10249000432D522DB601C7010E94B22087FF04C010
:1024A000C12ED02EE32CF22C2091600230916102DB
:1024B0004091620250916302B601C7010E94A622B8
:1024C0000E948C216B017C016CD2811121C0C7015B
:1024D000B6013ED281111CC020E030E040E853E458
:1024E000C701B6010E94A6216B017C01162F0D2D9C
:1024F0003E2C2F2C20E030E0A9010E94B22087FF63
:102500000BC0C701B60190580E94232161950AC0F3
:1025100010E000E0312C212C612F702F832D922DA3
:102520000E94232170E080E090E00E945121AB01E5
:10253000BC018091AF069091B0062BDD6889798946
:10254000072E000C880B990B0E94512120910C0240
:1025500030910D0240910E0250910F020E944D20C9
:1025600020915402309155024091560250915702E9
:102570000E94A622209140023091410240914202E5
:10258000509143020E94A6229B01AC016091FD067E
:102590007091FE068091FF06909100070E944E20E8
:1025A0006093FD067093FE068093FF0690930007EC
:1025B000A30192016F89788D898D9A8D0E944E209A
:1025C000209148023091490240914A0250914B02B9
:1025D0000E94A6229B01AC01609101077091020745
:1025E00080910307909104070E944E206093010799
:1025F00070930207809303079093040720914C0285
:1026000030914D0240914E0250914F026B8D7C8D66
:102610008D8D9E8D0E94A6229B01AC0160910507C5
:102620007091060780910707909108070E944E203D
:102630006093050770930607809307079093080738
:10264000A1960FB6F894DEBF0FBECDBFDF91CF913C
:102650001F910F91FF90EF90DF90CF90BF90AF90C0
:102660009F908F907F906F905F904F903F902F90B2
:1026700008959F92AF92BF92CF92DF92EF92FF9216
:102680000F931F93CF93DF9384E090E02AD11092B1
:102690000A0710920907C5E6D6E084EAFE01119206
:1026A0008A95E9F7C12CD12C7601C394C092F20629
:1026B000D092F306E092F406F092F50642E150E083
:1026C00063E170E081E090E067DA63E081E062DB83
:1026D000992493949092F606C882D982EA82FB826A
:1026E0001CA21DA21EA21FA280E090E0A0E8BFE3F2
:1026F00088A799A7AAA7BBA71CA61DA61EA61FA6AA
:1027000018AA19AA1AAA1BAA1CAA1DAA1EAA1FAA9D
:102710001092F7060CEF16E0F8011082C092F8064E
:10272000D092F906E092FA06F092FB0680E090E083
:102730000E944B0BF801908218AE9CE0A92E92E00B
:10274000B92EF50180A991A9A2A9B3A98093A306E6
:102750009093A406A093A506B093A6061092A20695
:10276000C9AEDAAEEBAEFCAE61E088E01BDC909265
:10277000A2061092A706E1EBF6E022E3208393E3A2
:102780009093B20684E38093B30685E38093B40606
:1027900086E38093B50687E38093B60688E380934B
:1027A000B70689E38093B80681E38093B90630E3E6
:1027B0003093BA068093BB068093BC068093BD0617
:1027C0002093BE068093BF069093C006F093AE069A
:1027D000E093AD06CCEAD6E01882C092A806D0926B
:1027E000A906E092AA06F092AB06E12CF12C870133
:1027F000A801970166E070E080E090E0B5DB90937F
:10280000B0068093AF06C4DB9882F50180AD91AD30
:10281000A2ADB3AD8093FD069093FE06A093FF0694
:10282000B093000784899589A689B78980930107A9
:1028300090930207A0930307B093040780899189BE
:10284000A289B3898093050790930607A093070791
:10285000B0930807DF91CF911F910F91FF90EF90F8
:10286000DF90CF90BF90AF909F9008958091F10638
:10287000811103C081E08093F1068091F7068111F8
:1028800003C081E08093F70680919D06811103C00B
:1028900081E080939D068091A706811103C081E0AD
:1028A0008093A706089560E070E080E89FE70895B0
:1028B00060E070E080E89FE7089560E070E080E805
:1028C0009FEF089560E070E080E89FEF089560E07A
:1028D00070E080EC9FEF089560E070E080EC9FEF87
:1028E0000895F5DF60931707709318078093190711
:1028F00090931A07F1DF60930B0770930C07809396
:102900000D0790930E07CFDF6093130770931407A2
:102910008093150790931607CBDF60930F07709392
:1029200010078093110790931207C7DF60931B076E
:1029300070931C0780931D0790931E07C3DF60935D
:102940001F07709320078093210790932207089513
:10295000CF92DF92EF92FF92CF936B017C01209197
:102960000F073091100740911107509112070E94F4
:10297000B220C1E0882371F020911F073091200719
:102980004091210750912207C701B6010E94B22051
:102990008111C0E08C2FCF91FF90EF90DF90CF900E
:1029A00008950F931F938B019C0100271127207816
:1029B0003F770115110520483F4749F4AB01BC01A1
:1029C0006F77772781E0452B462B472B09F480E072
:1029D0001F910F9108950895883008F070C0A82FB6
:1029E000B0E0AA0FBB1FAB59BD4F11967C936E93FD
:1029F00090E0FC013197E730F105A0F58827EE580B
:102A0000FF4F8F4F0C942F23809169008C7F482BB0
:102A100040936900E89A089580916900440F551F1A
:102A2000440F551F837F482B40936900E99A08950E
:102A30008091690074E0440F551F7A95E1F78F7C0F
:102A4000482B40936900EA9A08958091690066E0F6
:102A5000440F551F6A95E1F78F73482B4093690027
:102A6000EB9A089580916A008C7F482B40936A000E
:102A7000EC9A089580916A00440F551F440F551F2A
:102A8000837F482B40936A00ED9A089580916A00F5
:102A900024E0440F551F2A95E1F78F7C482B409383
:102AA0006A00EE9A089580916A0096E0440F551FDF
:102AB0009A95E1F78F73482B40936A00EF9A089537
:102AC0001F920F920FB60F9211240BB60F922F93F5
:102AD0003F934F935F936F937F938F939F93AF93A6
:102AE000BF93EF93FF93E0916902F0916A02199509
:102AF000FF91EF91BF91AF919F918F917F916F91D6
:102B00005F914F913F912F910F900BBE0F900FBE91
:102B10000F901F9018951F920F920FB60F921124CD
:102B20000BB60F922F933F934F935F936F937F93C7
:102B30008F939F93AF93BF93EF93FF93E0916B02BB
:102B4000F0916C021995FF91EF91BF91AF919F9118
:102B50008F917F916F915F914F913F912F910F9046
:102B60000BBE0F900FBE0F901F9018951F920F92E3
:102B70000FB60F9211240BB60F922F933F934F93E2
:102B80005F936F937F938F939F93AF93BF93EF93D5
:102B9000FF93E0916D02F0916E021995FF91EF9114
:102BA000BF91AF919F918F917F916F915F914F9165
:102BB0003F912F910F900BBE0F900FBE0F901F9063
:102BC00018951F920F920FB60F9211240BB60F9209
:102BD0002F933F934F935F936F937F938F939F9325
:102BE000AF93BF93EF93FF93E0916F02F091700268
:102BF0001995FF91EF91BF91AF919F918F917F9127
:102C00006F915F914F913F912F910F900BBE0F905D
:102C10000FBE0F901F9018951F920F920FB60F9234
:102C200011240BB60F922F933F934F935F936F93A3
:102C30007F938F939F93AF93BF93EF93FF93E09115
:102C40006502F09166021995FF91EF91BF91AF91E6
:102C50009F918F917F916F915F914F913F912F91B4
:102C60000F900BBE0F900FBE0F901F9018951F92E4
:102C70000F920FB60F9211240BB60F922F933F9322
:102C80004F935F936F937F938F939F93AF93BF9374
:102C9000EF93FF93E0916702F09168021995FF911D
:102CA000EF91BF91AF919F918F917F916F915F91C4
:102CB0004F913F912F910F900BBE0F900FBE0F9031
:102CC0001F9018951F920F920FB60F9211240BB6FA
:102CD0000F922F933F934F935F936F937F938F93B5
:102CE0009F93AF93BF93EF93FF93E0917102F091A5
:102CF00072021995FF91EF91BF91AF919F918F91C2
:102D00007F916F915F914F913F912F910F900BBEEB
:102D10000F900FBE0F901F9018951F920F920FB635
:102D20000F9211240BB60F922F933F934F935F9303
:102D30006F937F938F939F93AF93BF93EF93FF9383
:102D4000E0917302F09174021995FF91EF91BF9198
:102D5000AF919F918F917F916F915F914F913F9133
:102D60002F910F900BBE0F900FBE0F901F901895D4
:102D70001F920F920FB60F9211242F933F938F93B0
:102D80009F93AF93BF938091D8039091D903A09163
:102D9000DA03B091DB033091D70323E0230F2D3703
:102DA00020F40196A11DB11D05C026E8230F02964F
:102DB000A11DB11D2093D7038093D8039093D9030D
:102DC000A093DA03B093DB038091DC039091DD03E1
:102DD000A091DE03B091DF030196A11DB11D809388
:102DE000DC039093DD03A093DE03B093DF03BF9178
:102DF000AF919F918F913F912F910F900FBE0F90A8
:102E00001F9018952FB7F8946091D8037091D9034B
:102E10008091DA039091DB032FBF0895789484B5F5
:102E2000826084BD84B5816084BD85B5826085BDC6
:102E300085B5816085BDEEE6F0E0808181608083AC
:102E4000E1E8F0E01082808182608083808181608F
:102E50008083E0E8F0E0808181608083E1EBF0E056
:102E6000808184608083E0EBF0E0808181608083FA
:102E7000E1E9F0E0808182608083808181608083ED
:102E8000E0E9F0E0808181608083E1EAF0E0808128
:102E900082608083808181608083E0EAF0E08081CD
:102EA00081608083E1E2F1E08081826080838081C3
:102EB00081608083E0E2F1E0808181608083EAE7E5
:102EC000F0E0808184608083808182608083808163
:102ED000816080838081806880831092C100089522
:102EE0001F93CF93DF93182FEB0161E016D120974A
:102EF00011F460E004C0CF3FD10531F461E0812FCF
:102F0000DF91CF911F9145C1E12FF0E0E65CFE4FCC
:102F1000E4914E2F50E0FA013197E231F10508F0CB
:102F20009DC08827E758FF4F8F4F0C942F2384B5FF
:102F3000806884BDC7BD97C084B5806284BDC8BDAC
:102F400092C080918000806880938000D093890037
:102F5000C093880088C08091800080628093800048
:102F6000D0938B00C0938A007EC0809180008860DF
:102F700080938000D0938D00C0938C0074C08091AA
:102F8000B00080688093B000C093B3006CC08091A3
:102F9000B00080628093B000C093B40064C08091A0
:102FA0009000806880939000D0939900C09398001F
:102FB0005AC080919000806280939000D0939B00D3
:102FC000C0939A0050C080919000886080939000D8
:102FD000D0939D00C0939C0046C08091A000806863
:102FE0008093A0008091A0008F7B8093A000D0935D
:102FF000A900C093A80037C08091A0008062809390
:10300000A000D093AB00C093AA002DC08091A00077
:1030100088608093A000D093AD00C093AC0023C023
:1030200080912001806880932001D0932901C09372
:10303000280119C080912001806280932001D093E3
:103040002B01C0932A010FC08091200188608093DA
:103050002001D0932D01C0932C0105C0C038D105AB
:103060000CF04CCF46CFDF91CF911F91089590E0A7
:10307000FC013197E231F10508F04EC08827E55791
:10308000FF4F8F4F0C942F23809180008F7703C0C8
:10309000809180008F7D80938000089580918000D2
:1030A000877FF9CF84B58F7702C084B58F7D84BDCB
:1030B00008958091B0008F7703C08091B0008F7D1C
:1030C0008093B0000895809190008F7707C0809121
:1030D00090008F7D03C080919000877F8093900047
:1030E00008958091A0008F7707C08091A0008F7D08
:1030F00003C08091A000877F8093A00008958091F5
:1031000020018F7707C0809120018F7D03C08091BF
:103110002001877F809320010895CF93DF9390E073
:10312000FC01E058FE4F2491FC01EA53FE4F8491CC
:10313000882361F190E0880F991FFC01EA5DFD4F43
:10314000C591D491FC01E45FFD4FA591B49161114B
:1031500009C09FB7F8948881209582238883EC91D9
:103160002E230BC0623061F49FB7F8943881822F10
:10317000809583238883EC912E2B2C939FBF06C0D0
:103180008FB7F894E8812E2B28838FBFDF91CF91E2
:1031900008951F93CF93DF93282F30E0F901E65C69
:1031A000FE4F8491F901E058FE4FD491F901EA53A2
:1031B000FE4FC491CC23C1F0162F811158DFEC2FA4
:1031C000F0E0EE0FFF1FE45FFD4FA591B4918FB7C4
:1031D000F894111105C09C91ED2FE095E92302C0F0
:1031E000EC91ED2BEC938FBFDF91CF911F91089560
:1031F000FC01918D228D892F90E0805C9F4F821B76
:1032000091098F7399270895FC01918D828D9817EC
:1032100031F0828DE80FF11D858D90E008958FEFDC
:103220009FEF0895FC01918D828D981761F0828D3A
:10323000DF01A80FB11D5D968C91928D9F5F9F73EA
:10324000928F90E008958FEF9FEF0895FC01848D99
:10325000DF01A80FB11DA35ABF4F2C91848D90E0C0
:1032600001968F739927848FA689B7892C93A0899B
:10327000B1898C9180648C93938D848D981306C052
:103280000288F389E02D80818F7D80830895CF931C
:10329000DF93EC01888D8823C1F0EA89FB89808166
:1032A00085FD05C0A889B9898C9186FD0EC00FB631
:1032B00007FCF5CF808185FFF2CFA889B9898C9171
:1032C00085FFEDCFCE01C2DFE8CFDF91CF9108952A
:1032D000EF92FF920F931F93CF93DF93EC0181E066
:1032E000888F9B8D8C8D981305C0E889F989808122
:1032F00085FD23C0F62E0B8D10E00F5F1F4F0F735F
:103300001127E02E8C8DE8120BC00FB607FCFACF08
:10331000E889F989808185FFF5CFCE0197DFF2CF6B
:103320008B8DFE01E80FF11DE35AFF4FF0820B8FEA
:10333000EA89FB898081806207C0EE89FF8960830A
:10334000E889F98980818064808381E090E0DF9161
:10335000CF911F910F91FF90EF900895CF92DF9240
:10336000EF92FF921F93CF93DF93EC016A017B01F1
:10337000122FE889F98982E080834115514E610559
:103380007105B1F060E079E08DE390E0A70196016E
:103390000E940D23DA01C9010197A109B109B6956F
:1033A000A79597958795AC01411580E15807A8F03E
:1033B000E889F989108260E874E88EE190E0A7015D
:1033C00096010E940D23BA01A901415051096109DA
:1033D00071097695679557954795EC85FD855083DE
:1033E000EE85FF854083188EEC89FD891083EA897C
:1033F000FB89808180618083EA89FB898081886084
:103400008083EA89FB89808180688083EA89FB89DF
:1034100080818F7D8083DF91CF911F91FF90EF900E
:10342000DF90CF9008951F920F920FB60F92112444
:103430000BB60F922F938F939F93EF93FF93E0918F
:10344000F003F091F1038081E091F603F091F7032E
:1034500082FD12C090818091F9038F5F8F7320915C
:10346000FA03821751F0E091F903F0E0E052FC4FCB
:10347000958F8093F90301C08081FF91EF919F9117
:103480008F912F910F900BBE0F900FBE0F901F903A
:1034900018951F920F920FB60F9211240BB60F9230
:1034A0002F933F934F935F936F937F938F939F934C
:1034B000AF93BF93EF93FF9380EE93E0C7DEFF914E
:1034C000EF91BF91AF919F918F917F916F915F919C
:1034D0004F913F912F910F900BBE0F900FBE0F9009
:1034E0001F901895E0EEF3E01382128288EE93E0CD
:1034F000A0E0B0E084839583A683B78380EA92E05E
:103500009183808385EC90E09587848784EC90E0BC
:103510009787868780EC90E0918B808B81EC90E0A0
:10352000938B828B82EC90E0958B848B86EC90E081
:10353000978B868B118E128E138E148E08951F9288
:103540000F920FB60F9211240BB60F922F938F93F9
:103550009F93EF93FF93E0918D04F0918E0480810F
:10356000E0919304F091940482FD12C090818091C7
:1035700096048F5F8F7320919704821751F0E0912A
:103580009604F0E0E358FB4F958F8093960401C0BA
:103590008081FF91EF919F918F912F910F900BBEA2
:1035A0000F900FBE0F901F9018951F920F920FB69D
:1035B0000F9211240BB60F922F933F934F935F936B
:1035C0006F937F938F939F93AF93BF93EF93FF93EB
:1035D0008DE794E03BDEFF91EF91BF91AF919F911A
:1035E0008F917F916F915F914F913F912F910F90AC
:1035F0000BBE0F900FBE0F901F901895EDE7F4E0F3
:103600001382128288EE93E0A0E0B0E08483958379
:10361000A683B78380EA92E0918380838DEC90E06B
:10362000958784878CEC90E09787868788EC90E07C
:10363000918B808B89EC90E0938B828B8AEC90E06D
:10364000958B848B8EEC90E0978B868B118E128EEF
:10365000138E148E08951F920F920FB60F9211249D
:103660000BB60F922F938F939F93EF93FF93E0915D
:103670002A05F0912B058081E0913005F09131050C
:1036800082FD12C09081809133058F5F8F732091EE
:103690003405821751F0E0913305F0E0E65EFA4F11
:1036A000958F8093330501C08081FF91EF919F91A9
:1036B0008F912F910F900BBE0F900FBE0F901F9008
:1036C00018951F920F920FB60F9211240BB60F92FE
:1036D0002F933F934F935F936F937F938F939F931A
:1036E000AF93BF93EF93FF938AE195E0AFDDFF9136
:1036F000EF91BF91AF919F918F917F916F915F916A
:103700004F913F912F910F900BBE0F900FBE0F90D6
:103710001F901895EAE1F5E01382128288EE93E09B
:10372000A0E0B0E084839583A683B78380EA92E02B
:103730009183808385ED90E09587848784ED90E088
:103740009787868780ED90E0918B808B81ED90E06C
:10375000938B828B82ED90E0958B848B86ED90E04D
:10376000978B868B118E128E138E148E08951F9256
:103770000F920FB60F9211240BB60F922F938F93C7
:103780009F93EF93FF93E091C705F091C805808167
:10379000E091CD05F091CE0582FD12C0908180911F
:1037A000D0058F5F8F732091D105821751F0E09182
:1037B000D005F0E0E954FA4F958F8093D00501C011
:1037C0008081FF91EF919F918F912F910F900BBE70
:1037D0000F900FBE0F901F9018951F920F920FB66B
:1037E0000F9211240BB60F922F933F934F935F9339
:1037F0006F937F938F939F93AF93BF93EF93FF93B9
:1038000087EB95E023DDFF91EF91BF91AF919F9101
:103810008F917F916F915F914F913F912F910F9079
:103820000BBE0F900FBE0F901F901895E7EBF5E0C1
:103830001382128288EE93E0A0E0B0E08483958347
:10384000A683B78380EA92E09183808385E391E049
:103850009587848784E391E09787868780E391E06A
:10386000918B808B81E391E0938B828B82E391E05B
:10387000958B848B86E391E0978B868B118E128ECD
:10388000138E148E08958F929F92AF92BF92CF9213
:10389000DF92EF92FF920F931F93CF93DF937C0100
:1038A0008B016C0182E0C80ED11C4701E5E08E0E51
:1038B000911CC0E0D0E0F60161916F014AE050E058
:1038C000C8013BD15C016EE2C80168D08A0D9B1D26
:1038D000C80FD91FC814D90471F74AE050E0F701A6
:1038E0006581C8012AD18C0F9D1FDF91CF911F9157
:1038F0000F91FF90EF90DF90CF90BF90AF909F908F
:103900008F900895E4E5F6E080EB92E09183808368
:1039100012821382148215820895CF92DF92EF9261
:10392000FF920F931F93CF93DF936C017A018B016A
:10393000C0E0D0E0CE15DF0589F0D8016D918D0192
:10394000D601ED91FC910190F081E02DC601199511
:10395000892B11F47E0102C02196ECCFC701DF91C3
:10396000CF911F910F91FF90EF90DF90CF9008952E
:103970006115710579F0FB0101900020E9F731979D
:10398000AF01461B570BDC01ED91FC910280F381E6
:10399000E02D199480E090E00895EACFDC01ED91EC
:1039A000FC910190F081E02D199462EB72E0E0CF80
:1039B0004F925F926F927F92EF92FF920F931F93BD
:1039C000CF93DF93CDB7DEB7A1970FB6F894DEBFE4
:1039D0000FBECDBF7C01FA01CB0119A2223008F441
:1039E0002AE08E010F5D1F4F422E512C612C712C4D
:1039F000BF01A301920111D6F901CA0101501109B9
:103A00006A3014F4605D01C0695CD8016C93232BAB
:103A1000242B252B69F7B801C701AADFA1960FB6A1
:103A2000F894DEBF0FBECDBFDF91CF911F910F91F4
:103A3000FF90EF907F906F905F904F900895CF929E
:103A4000DF92EF92FF920F931F93CF93DF93EC01DE
:103A50006A017B012115310579F4E881F981019032
:103A6000F081E02D642FDF91CF911F910F91FF9096
:103A7000EF90DF90CF9019942A303105D9F477FF79
:103A800018C06DE28BDF8C0144275527BA014C1911
:103A90005D096E097F092AE0CE018ADF800F911F40
:103AA000DF91CF911F910F91FF90EF90DF90CF901A
:103AB00008952AE0B701A601CE01DF91CF911F91B1
:103AC0000F91FF90EF90DF90CF9072CF9A01AB01F2
:103AD000770F660B770BB3CF0F931F93CF93DF93C3
:103AE000EC019A01AB01770F660B770BA8DF8C0115
:103AF000CE015BDF800F911FDF91CF911F910F915E
:103B000008950F931F93CF93DF93EC0198DF8C01FF
:103B1000CE014BDF800F911FDF91CF911F910F914D
:103B200008952115310541F4DC01ED91FC910190DE
:103B3000F081E02D642F19943BCF9A01462F50E07D
:103B400060E070E0EECF0F931F93CF93DF93EC0113
:103B50009A01462F50E060E070E0E3DF8C01CE0177
:103B600024DF800F911FDF91CF911F910F91089556
:103B70009A01AB0160E070E0D4CF0F931F93CF9315
:103B8000DF93EC019A01AB0160E070E0CADF8C01C9
:103B9000CE010BDF800F911FDF91CF911F910F910D
:103BA00008950F931F93CF93DF93EC01BADF8C013D
:103BB000CE01FBDE800F911FDF91CF911F910F91FE
:103BC00008954F925F926F927F928F929F92AF92E1
:103BD000BF92CF92DF92EF92FF92CF93DF93EC01EF
:103BE0006A017B01B22E9A01AB01C701B60111D562
:103BF000882319F065EB72E024C026013701E894B0
:103C000077F82FEF3FEF4FE75FE7C301B20101D530
:103C100081110CC02FEF3FEF4FE75FE7C301B20107
:103C2000A1D218161CF469EB72E00BC02FEF3FEF26
:103C30004FE75FE4C701B60185D4181694F46DEB25
:103C400072E0CE01DF91CF91FF90EF90DF90CF90A7
:103C5000BF90AF909F908F907F906F905F904F90AC
:103C600087CE2FEF3FEF4FE75FECC701B6017AD267
:103C700087FDE5CF20E030E0A901C701B60172D28F
:103C800087FF09C06DE2CE0189DE4C01F7FAF0949E
:103C9000F7F8F09402C0812C912CA12C60E070E028
:103CA00080E09FE3AB1439F020E030E040E251E4E3
:103CB0005DD2A394F7CF9B01AC01C701B601EED151
:103CC0002B013C01C0D26B017C01E9D29B01AC010C
:103CD000C301B201E2D12B013C012AE0B701A601E8
:103CE000CE0166DE7C01E80CF91CBB2029F06EE2F7
:103CF000CE0154DEE80EF91EDB2CDD2001F120E0C0
:103D000030E040E251E4C301B20120D42B013C0178
:103D10009AD24B01A12CB12C2AE0B501A401CE010D
:103D200047DEE80EF91EC501B401B9D29B01AC0112
:103D3000C301B201B2D12B013C01DA94DECFC7013D
:103D4000DF91CF91FF90EF90DF90CF90BF90AF9039
:103D50009F908F907F906F905F904F90089531CF9C
:103D60000F931F93CF93DF93EC012BDF8C01CE01D8
:103D70001CDE800F911FDF91CF911F910F9108954D
:103D80008230A9F028F4882349F0813051F0089559
:103D9000843021F1E8F0853039F1089510926E00F9
:103DA000089580916F008D7F80936F0008958091BA
:103DB00070008D7F8093700081E08093B0008091CF
:103DC000B100887F84608093B1001092B3000895A1
:103DD000809171008D7F80937100089580917200B1
:103DE0008D7F809372000895809173008D7F809302
:103DF00073000895CF93C82F809175028C1307C06C
:103E0000E0E4F2E0E4918FEF8093750201C0EFEF00
:103E10008E2FB6DF60E08C2FCF91BBC91F920F921F
:103E20000FB60F9211240BB60F922F933F934F931F
:103E30005F936F937F938F939F93AF93BF93EF9312
:103E4000FF9380915D0690915E06A0915F06B09110
:103E50006006892B8A2B8B2B51F180915A06E091B9
:103E60005B06F0915C0690818927808380915D06D6
:103E700090915E06A0915F06B09160061816190633
:103E80001A061B06BCF480915D0690915E06A09117
:103E90005F06B09160060197A109B10980935D06A4
:103EA00090935E06A0935F06B093600603C0809176
:103EB0007502A0DFFF91EF91BF91AF919F918F911C
:103EC0007F916F915F914F913F912F910F900BBE1A
:103ED0000F900FBE0F901F90189540E052EC61E0DC
:103EE00070E080E090E006D061E08DE016D960E0FF
:103EF0008DE04FC98130910571F01CF4892B39F0A8
:103F000008958230910559F0039769F0089526E0ED
:103F100080EE93E00BC026E08DE794E007C026E03A
:103F20008AE195E003C026E087EB95E017CA1F926F
:103F30000F920FB60F9211240BB60F922F933F934F
:103F40004F935F936F937F938F939F93AF93BF93A1
:103F5000EF93FF938EE19BEF9093250180932401D3
:103F60008091630690916406019719F461E08DE0F9
:103F700010D934D0FF91EF91BF91AF919F918F9164
:103F80007F916F915F914F913F912F910F900BBE59
:103F90000F900FBE0F901F9018958EE19BEF90939E
:103FA000250180932401A3E7B0E08C918E7F8C9350
:103FB000E0E2F1E080818C7F8083E1E2F1E08081CA
:103FC000877E808380818360808380818B7F8083F4
:103FD0008C9181608C93089581E0089580916206B0
:103FE00091E0980F90936206882339F021E030E049
:103FF000309364062093630607C078940E94E00F14
:10400000F8948091620681508093620608950F9320
:104010001F93CF93DF931F92CDB7DEB781E08983E3
:104020000E940E175ADF00919A0210919B02F8012C
:10403000118210820E943913B0DF81E0F8012081E3
:104040003181232B09F080E08983789478948981E9
:104050008823C1F081E0F80120813181232B09F40C
:1040600080E0809361069091610681E0911180E08B
:1040700089838981882311F0AFDF02C080E090E05E
:104080008983E5CF0E943614F89480E090E00F9089
:10409000DF91CF911F910F9108955058BB27AA2708
:1040A0000ED0FFC1F0D130F0F5D120F031F49F3FB8
:1040B00011F41EF4E5C10EF4E095E7FBB2C1E92F5F
:1040C00001D280F3BA17620773078407950718F0C7
:1040D00071F49EF530C20EF4E0950B2EBA2FA02D90
:1040E0000B01B90190010C01CA01A0011124FF27A5
:1040F000591B99F0593F50F4503E68F11A16F040A0
:10410000A22F232F342F4427585FF3CF469537959E
:104110002795A795F0405395C9F77EF41F16BA0B63
:10412000620B730B840BBAF09150A1F0FF0FBB1F11
:10413000661F771F881FC2F70EC0BA0F621F731F5A
:10414000841F48F4879577956795B795F7959E3FB7
:1041500008F0B3CF9395880F08F09927EE0F979545
:10416000879508953AD108F481E008950CD099C15B
:1041700091D140F088D130F021F45F3F19F051C166
:104180005111DAC17DC19ED198F39923C9F355230A
:10419000B1F3951B550BBB27AA276217730784073A
:1041A00038F09F5F5F4F220F331F441FAA1FA9F3F0
:1041B00033D00E2E3AF0E0E830D091505040E695E2
:1041C000001CCAF729D0FE2F27D0660F771F881F43
:1041D000BB1F261737074807AB07B0E809F0BB0B32
:1041E000802DBF01FF2793585F4F2AF09E3F510556
:1041F00068F017C1A1C15F3FECF3983EDCF38695F0
:1042000077956795B795F7959F5FC9F7880F911DCB
:104210009695879597F90895E1E0660F771F881FB7
:10422000BB1F621773078407BA0720F0621B730B6A
:10423000840BBA0BEE1F88F7E095089504D06894BC
:10424000B1117AC1089546D188F09F5790F0B92FE7
:104250009927B751A0F0D1F0660F771F881F991FDB
:104260001AF0BA95C9F712C0B13081F064D1B1E04B
:10427000089561C1672F782F8827B85F39F0B93F5B
:10428000CCF3869577956795B395D9F73EF49095DD
:104290008095709561957F4F8F4F9F4F0895E8945B
:1042A00009C097FB3EF490958095709561957F4F7E
:1042B0008F4F9F4F9923A9F0F92F96E9BB2793952C
:1042C000F695879577956795B795F111F8CFFAF43C
:1042D000BB0F11F460FF1BC06F5F7F4F8F4F9F4F6D
:1042E00016C0882311F096E911C0772321F09EE8CB
:1042F000872F762F05C0662371F096E8862F70E031
:1043000060E02AF09A95660F771F881FDAF7880F0A
:104310009695879597F90895F7D080F09F3740F4E8
:1043200091110EF009C160E070E080E89FEB089504
:1043300026F41B16611D711D811D79C093C0A3D089
:1043400018F011F0A7D038F49BC0F6C0E92FBAD00E
:10435000B0F35523C9F3E7FB62177307840795078A
:10436000A8F199F3E92FFF2788232AF03197660FE8
:10437000771F881FDAF7952F5527442332F0915085
:104380005040220F331F441FD2F7BB27E91BF50B08
:10439000621B730B840BB109C1F222F4620F731F0D
:1043A000841FB11D31972AF0660F771F881FBB1F2E
:1043B000EFCF915050405AF041F0882332F0660F11
:1043C000771F881F91505040C1F793954BC0869539
:1043D000779567959F5FD9F7F8CF990F0008550F2C
:1043E000AA0BE0E8FEEF16161706E807F907C0F07B
:1043F00012161306E407F50798F0621B730B840B83
:10440000950B39F40A2661F0232B242B252B21F45C
:1044100008950A2609F4A140A6958FEF811D811DFC
:10442000089597F99F6780E870E060E00895882319
:1044300071F4772321F09850872B762F07C06623DD
:1044400011F499270DC09051862B70E060E02AF09E
:104450009A95660F771F881FDAF7880F96958795CC
:1044600097F908959F3F31F0915020F48795779503
:104470006795B795880F911D9695879597F908953B
:104480009FEF80EC089500240A941616170618066C
:104490000906089500240A94121613061406050648
:1044A0000895092E0394000C11F4882352F0BB0FD9
:1044B00040F4BF2B11F460FF04C06F5F7F4F8F4F3C
:1044C0009F4F089557FD9058440F551F59F05F3F77
:1044D00071F04795880F97FB991F61F09F3F79F026
:1044E00087950895121613061406551FF2CF4695A8
:1044F000F1DF08C0161617061806991FF1CF86952A
:104500007105610508940895E5DFA0F0BEE7B917CD
:1045100088F4BB279F3860F41616B11D672F782FDB
:104520008827985FF7CF869577956795B11D939506
:104530009639C8F30895E894BB2766277727CB01FF
:1045400097F908954ADF08F48FEF08950BD0A9CFAB
:104550009ADF28F09FDF18F0952309F062CF90CF03
:104560001124EACFAFDFA0F3959FD1F3950F50E070
:10457000551F629FF001729FBB27F00DB11D639F15
:10458000AA27F00DB11DAA1F649F6627B00DA11DBB
:10459000661F829F2227B00DA11D621F739FB00D61
:1045A000A11D621F839FA00D611D221F749F3327D1
:1045B000A00D611D231F849F600D211D822F762F6A
:1045C0006A2F11249F5750408AF0E1F088234AF067
:1045D000EE0FFF1FBB1F661F771F881F91505040B3
:1045E000A9F79E3F510570F01CCFA6CF5F3FECF3BB
:1045F000983EDCF3869577956795B795F795E7959F
:104600009F5FC1F7FE2B880F911D9695879597F9AF
:104610000895E3DE880B990B0895A1E21A2EAA1BD8
:10462000BB1BFD010DC0AA1FBB1FEE1FFF1FA21762
:10463000B307E407F50720F0A21BB30BE40BF50B5F
:10464000661F771F881F991F1A9469F760957095E8
:10465000809590959B01AC01BD01CF010895EE0FAF
:10466000FF1F881F8BBF0790F691E02D1994F894D7
:02467000FFCF7A
:1046720000002307800001000000E8030000E4C3FB
:104682007CF2B03C4547923E553C79440000000024
:10469200000000000000803F0000C0C00000C842CF
:1046A2000DD109430000C04000001041000000008D
:1046B2000AD7A33B000000000AD7A33B0AD7A33BBB
:1046C20035FA0EBCFDB30BB900000000000010C1AA
:1046D200ABAAE24101EB14EB14EB14EB14EB14EB79
:1046E20014EB14EB14FF0000000050062106F50540
:1046F200FD05110620060001FFFF0607FFFFFFFF71
:10470200FFFFFFFFFFFF050403020907000000008F
:1047120068198D1CF81812190419471900000000B5
:10472200431C0D0A006E616E00696E66006F76664C
:02473200000085
:00000001FF
